{"abi":[{"type":"constructor","inputs":[{"name":"_userRegistryAddress","type":"address","internalType":"address"},{"name":"_rwaGemNftAddress","type":"address","internalType":"address"},{"name":"initialOwner","type":"address","internalType":"address"}],"stateMutability":"nonpayable"},{"type":"function","name":"EVALUATION_INTERVAL","inputs":[],"outputs":[{"name":"","type":"uint256","internalType":"uint256"}],"stateMutability":"view"},{"type":"function","name":"HEALTH_FACTOR_DENOMINATOR","inputs":[],"outputs":[{"name":"","type":"uint256","internalType":"uint256"}],"stateMutability":"view"},{"type":"function","name":"HEALTH_FACTOR_THRESHOLD","inputs":[],"outputs":[{"name":"","type":"uint256","internalType":"uint256"}],"stateMutability":"view"},{"type":"function","name":"MAX_LTV","inputs":[],"outputs":[{"name":"","type":"uint256","internalType":"uint256"}],"stateMutability":"view"},{"type":"function","name":"diamondPriceFeed","inputs":[],"outputs":[{"name":"","type":"address","internalType":"contract AggregatorV3Interface"}],"stateMutability":"view"},{"type":"function","name":"diamondQualityMultipliers","inputs":[{"name":"","type":"uint256","internalType":"uint256"}],"outputs":[{"name":"","type":"uint256","internalType":"uint256"}],"stateMutability":"view"},{"type":"function","name":"getAssetEvaluationData","inputs":[{"name":"tokenId","type":"uint256","internalType":"uint256"}],"outputs":[{"name":"currentValue","type":"uint256","internalType":"uint256"},{"name":"maxLoanAmount","type":"uint256","internalType":"uint256"},{"name":"lastUpdated","type":"uint256","internalType":"uint256"},{"name":"priceSource","type":"address","internalType":"address"}],"stateMutability":"view"},{"type":"function","name":"getAssetValuationStatus","inputs":[{"name":"tokenId","type":"uint256","internalType":"uint256"}],"outputs":[{"name":"valuation","type":"uint256","internalType":"uint256"},{"name":"lastEvaluated","type":"uint256","internalType":"uint256"},{"name":"needsRevaluation","type":"bool","internalType":"bool"}],"stateMutability":"view"},{"type":"function","name":"getCollateralValue","inputs":[{"name":"collateralId","type":"uint256","internalType":"uint256"}],"outputs":[{"name":"","type":"uint256","internalType":"uint256"}],"stateMutability":"nonpayable"},{"type":"function","name":"getCurrentPrice","inputs":[{"name":"assetType","type":"uint8","internalType":"enum RwaGemNFT.AssetType"}],"outputs":[{"name":"price","type":"uint256","internalType":"uint256"}],"stateMutability":"view"},{"type":"function","name":"getHealthFactor","inputs":[{"name":"collateralId","type":"uint256","internalType":"uint256"},{"name":"loanAmount","type":"uint256","internalType":"uint256"}],"outputs":[{"name":"","type":"uint256","internalType":"uint256"}],"stateMutability":"nonpayable"},{"type":"function","name":"getMaxLoanAmount","inputs":[{"name":"collateralId","type":"uint256","internalType":"uint256"}],"outputs":[{"name":"","type":"uint256","internalType":"uint256"}],"stateMutability":"nonpayable"},{"type":"function","name":"getOracleInfo","inputs":[],"outputs":[{"name":"evaluationInterval","type":"uint256","internalType":"uint256"},{"name":"healthFactorThreshold","type":"uint256","internalType":"uint256"},{"name":"healthFactorDenominator","type":"uint256","internalType":"uint256"},{"name":"maxLtv","type":"uint256","internalType":"uint256"}],"stateMutability":"pure"},{"type":"function","name":"getPriceFeeds","inputs":[],"outputs":[{"name":"diamondFeed","type":"address","internalType":"address"},{"name":"goldFeed","type":"address","internalType":"address"},{"name":"silverFeed","type":"address","internalType":"address"}],"stateMutability":"view"},{"type":"function","name":"getQualityMultiplier","inputs":[{"name":"assetType","type":"uint8","internalType":"enum RwaGemNFT.AssetType"},{"name":"purity","type":"uint256","internalType":"uint256"}],"outputs":[{"name":"multiplier","type":"uint256","internalType":"uint256"}],"stateMutability":"view"},{"type":"function","name":"goldPriceFeed","inputs":[],"outputs":[{"name":"","type":"address","internalType":"contract AggregatorV3Interface"}],"stateMutability":"view"},{"type":"function","name":"goldQualityMultipliers","inputs":[{"name":"","type":"uint256","internalType":"uint256"}],"outputs":[{"name":"","type":"uint256","internalType":"uint256"}],"stateMutability":"view"},{"type":"function","name":"isLoanHealthy","inputs":[{"name":"collateralId","type":"uint256","internalType":"uint256"},{"name":"loanAmount","type":"uint256","internalType":"uint256"}],"outputs":[{"name":"","type":"bool","internalType":"bool"}],"stateMutability":"nonpayable"},{"type":"function","name":"lastEvaluationTime","inputs":[{"name":"","type":"uint256","internalType":"uint256"}],"outputs":[{"name":"","type":"uint256","internalType":"uint256"}],"stateMutability":"view"},{"type":"function","name":"officialValuations","inputs":[{"name":"","type":"uint256","internalType":"uint256"}],"outputs":[{"name":"","type":"uint256","internalType":"uint256"}],"stateMutability":"view"},{"type":"function","name":"owner","inputs":[],"outputs":[{"name":"","type":"address","internalType":"address"}],"stateMutability":"view"},{"type":"function","name":"renounceOwnership","inputs":[],"outputs":[],"stateMutability":"nonpayable"},{"type":"function","name":"requestCollateralRevaluation","inputs":[{"name":"collateralId","type":"uint256","internalType":"uint256"}],"outputs":[],"stateMutability":"nonpayable"},{"type":"function","name":"rwaGemNftAddress","inputs":[],"outputs":[{"name":"","type":"address","internalType":"address"}],"stateMutability":"view"},{"type":"function","name":"setPriceFeed","inputs":[{"name":"assetType","type":"uint8","internalType":"enum RwaGemNFT.AssetType"},{"name":"priceFeedAddress","type":"address","internalType":"address"}],"outputs":[],"stateMutability":"nonpayable"},{"type":"function","name":"setQualityMultiplier","inputs":[{"name":"assetType","type":"uint8","internalType":"enum RwaGemNFT.AssetType"},{"name":"purity","type":"uint256","internalType":"uint256"},{"name":"multiplier","type":"uint256","internalType":"uint256"}],"outputs":[],"stateMutability":"nonpayable"},{"type":"function","name":"silverPriceFeed","inputs":[],"outputs":[{"name":"","type":"address","internalType":"contract AggregatorV3Interface"}],"stateMutability":"view"},{"type":"function","name":"silverQualityMultipliers","inputs":[{"name":"","type":"uint256","internalType":"uint256"}],"outputs":[{"name":"","type":"uint256","internalType":"uint256"}],"stateMutability":"view"},{"type":"function","name":"transferOwnership","inputs":[{"name":"newOwner","type":"address","internalType":"address"}],"outputs":[],"stateMutability":"nonpayable"},{"type":"function","name":"userRegistryAddress","inputs":[],"outputs":[{"name":"","type":"address","internalType":"address"}],"stateMutability":"view"},{"type":"function","name":"valuateAsset","inputs":[{"name":"tokenId","type":"uint256","internalType":"uint256"}],"outputs":[{"name":"","type":"uint256","internalType":"uint256"}],"stateMutability":"nonpayable"},{"type":"event","name":"AssetValuated","inputs":[{"name":"tokenId","type":"uint256","indexed":true,"internalType":"uint256"},{"name":"value","type":"uint256","indexed":false,"internalType":"uint256"}],"anonymous":false},{"type":"event","name":"OwnershipTransferred","inputs":[{"name":"previousOwner","type":"address","indexed":true,"internalType":"address"},{"name":"newOwner","type":"address","indexed":true,"internalType":"address"}],"anonymous":false},{"type":"event","name":"PriceFeedUpdated","inputs":[{"name":"assetType","type":"uint8","indexed":true,"internalType":"enum RwaGemNFT.AssetType"},{"name":"newPriceFeed","type":"address","indexed":false,"internalType":"address"}],"anonymous":false},{"type":"event","name":"QualityMultiplierUpdated","inputs":[{"name":"assetType","type":"uint8","indexed":true,"internalType":"enum RwaGemNFT.AssetType"},{"name":"purity","type":"uint256","indexed":false,"internalType":"uint256"},{"name":"multiplier","type":"uint256","indexed":false,"internalType":"uint256"}],"anonymous":false},{"type":"error","name":"OwnableInvalidOwner","inputs":[{"name":"owner","type":"address","internalType":"address"}]},{"type":"error","name":"OwnableUnauthorizedAccount","inputs":[{"name":"account","type":"address","internalType":"address"}]},{"type":"error","name":"ReentrancyGuardReentrantCall","inputs":[]}],"bytecode":{"object":"0x60c03461010257601f6113a038819003918201601f19168301916001600160401b0383118484101761010657808492606094604052833981010312610102576100478161011a565b906100546020820161011a565b906001600160a01b039061006a9060400161011a565b169182156100ef575f80546001600160a01b031981168517825560405194916001600160a01b03909116907f8be0079c531659141344cd1fd0a4f28419497f9722a3daafe3b4186f6b6457e09080a36001805560805260a052611271908161012f823960805181610d2b015260a0518181816101ad01528181610bc40152610d6f0152f35b631e4fbdf760e01b5f525f60045260245ffd5b5f80fd5b634e487b7160e01b5f52604160045260245ffd5b51906001600160a01b03821682036101025756fe6080806040526004361015610012575f80fd5b5f3560e01c908162671bdc14610eb6575080628bbc8b14610dbb5780630f0f63e4146109f2578063115252c114610d9e578063253323f114610d5a5780633f39eaa114610d165780634b4c690914610cec5780634d2c872a14610cd35780635fdf650b14610cab57806361a772a114610b6357806368441f8f14610b375780636ca42ae314610af7578063715018a614610aa057806372eb031214610a215780637336310f146109f757806381bf8d3d146109f257806382fee08f146109cc5780638da5cb5b146109a55780639c84cd1014610973578063c2d5e89d14610958578063c422f9d014610930578063cf28adeb146108ca578063cfe273d6146108a0578063d5eaadf214610876578063de84199114610765578063e2efed381461073b578063e4cb481b146106d5578063e95f2c7d14610643578063eff8fe5a14610483578063f2fde38b146103fa5763fc1f338a1461016f575f80fd5b34610396576020366003190112610396576004356002600154146103eb5760026001556040516356411d3f60e11b8152600481018290525f816024817f00000000000000000000000000000000000000000000000000000000000000006001600160a01b03165afa9081156103a2575f915f915f916103c1575b506040516377fc7f2d60e11b81529060048410156103ad57836004830152602082602481305afa9182156103a2575f92610362575b5092610260929161271094859280155f146102e957505f8181526005602052604090205461025b9350156102e2575f52600560205260405f20545b925b610f4f565b046402540be4008102908082046402540be40014901517156102ce57816020925f52600883528160405f2055805f52600983524260405f20557f9bca23aa57eab37d7b7b0ae5844f40ee973a4d808e4c3e94ff463de0d89f99d583604051848152a260018055604051908152f35b634e487b7160e01b5f52601160045260245ffd5b5084610259565b6001810361031c57505f8181526006602052604090205461025b9350156102e2575f52600660205260405f205492610f4f565b60021461032f575b5061025b9192610f4f565b5f8181526007602052604090205461025b93901561035b57505f52600760205260405f20545b91610324565b9050610355565b929150926020833d60201161039a575b8161037f60209383610f0a565b81010312610396579151919290919061271061021e565b5f80fd5b3d9150610372565b6040513d5f823e3d90fd5b634e487b7160e01b5f52602160045260245ffd5b9150506103e091503d805f833e6103d88183610f0a565b810190611047565b50505050505f6101e9565b633ee5aeb560e01b5f5260045ffd5b34610396576020366003190112610396576004356001600160a01b0381169081900361039657610428611215565b8015610470575f80546001600160a01b03198116831782556001600160a01b0316907f8be0079c531659141344cd1fd0a4f28419497f9722a3daafe3b4186f6b6457e09080a3005b631e4fbdf760e01b5f525f60045260245ffd5b3461039657602036600319011261039657600435600481101561039657806105d357506002546001600160a01b03165b6001600160a01b0316801561058e5760a060049160405192838092633fabe5a360e21b82525afa9081156103a2575f91610541575b505f8113156104fc57602090604051908152f35b60405162461bcd60e51b815260206004820152601960248201527f496e76616c6964207072696365206665656420616e73776572000000000000006044820152606490fd5b905060a0813d60a011610586575b8161055c60a09383610f0a565b810103126103965761056d816111fe565b5061057f6080602083015192016111fe565b50816104e8565b3d915061054f565b60405162461bcd60e51b815260206004820152601960248201527f50726963652066656564206e6f7420636f6e66696775726564000000000000006044820152606490fd5b600181036105ed57506003546001600160a01b03166104b3565b600203610605576004546001600160a01b03166104b3565b60405162461bcd60e51b8152602060048201526016602482015275556e737570706f72746564206173736574207479706560501b6044820152606490fd5b34610396576020366003190112610396576040516382fee08f60e01b815260048035908201526020816024815f305af19081156103a2575f916106a3575b506046810290808204604614901517156102ce57602090606460405191048152f35b90506020813d6020116106cd575b816106be60209383610f0a565b81010312610396575181610681565b3d91506106b1565b3461039657602036600319011261039657604051637e0f99c560e11b815260048035908201526020816024815f305af180156103a25761071157005b6107329060203d602011610734575b61072a8183610f0a565b810190610f40565b005b503d610720565b34610396576020366003190112610396576004355f526009602052602060405f2054604051908152f35b34610396576040366003190112610396576004356004811015610396576024356001600160a01b038116908190036103965761079f611215565b8015610831575f826107ef57600280546001600160a01b031916831790555b6103ad5760207f97f7578becfa7a6013824d8ab1174e8c0522d468cd75e7a7e7fc4bde2733844291604051908152a2005b505f6001830361081057600380546001600160a01b031916831790556107be565b505f600283036107be57600480546001600160a01b031916831790556107be565b60405162461bcd60e51b815260206004820152601a60248201527f496e76616c6964207072696365206665656420616464726573730000000000006044820152606490fd5b34610396576020366003190112610396576004355f526007602052602060405f2054604051908152f35b34610396576020366003190112610396576004355f526005602052602060405f2054604051908152f35b3461039657602036600319011261039657600435805f52600860205260405f2054905f52600960205260405f20549081158015610919575b606092604051928352602083015215156040820152f35b50620151808201918281116102ce57914211610902565b34610396575f366003190112610396576003546040516001600160a01b039091168152602090f35b34610396575f36600319011261039657602060405160648152f35b34610396575f366003190112610396576080604051620151808152604660208201526064604082015260466060820152f35b34610396575f366003190112610396575f546040516001600160a01b039091168152602090f35b346103965760203660031901126103965760206109ea600435611157565b604051908152f35b610ed9565b34610396576020366003190112610396576004355f526008602052602060405f2054604051908152f35b3461039657610a2f36610ef4565b60405191632696439560e11b8352600483015260248201526020816044815f305af180156103a2575f90610a6d575b60209060466040519110158152f35b506020813d602011610a98575b81610a8760209383610f0a565b810103126103965760209051610a5e565b3d9150610a7a565b34610396575f36600319011261039657610ab8611215565b5f80546001600160a01b0319811682556001600160a01b03167f8be0079c531659141344cd1fd0a4f28419497f9722a3daafe3b4186f6b6457e08280a3005b34610396575f36600319011261039657600254600354600454604080516001600160a01b0394851681529284166020840152921691810191909152606090f35b34610396576040366003190112610396576004356004811015610396576109ea60209160243590611106565b34610396576020366003190112610396576004355f815f52600860205260405f2054906046820290828204604614831517156102ce575f848152600960205260408082205490516356411d3f60e11b815260048101969096529190856024817f00000000000000000000000000000000000000000000000000000000000000006001600160a01b03165afa9485156103a2575f95610c88575b5060048510156103ad5760809480610c435750506002546001600160a01b0316916064905b6040805195865291900460208501528301526001600160a01b03166060820152f35b60018103610c625750506003546001600160a01b031691606490610c21565b909290600214610c75575b606490610c21565b6004546001600160a01b03169250610c6d565b610c9d9195503d805f833e6103d88183610f0a565b505050505050509385610bfc565b34610396575f366003190112610396576004546040516001600160a01b039091168152602090f35b346103965760206109ea610ce636610ef4565b90610f62565b34610396576020366003190112610396576004355f526006602052602060405f2054604051908152f35b34610396575f366003190112610396576040517f00000000000000000000000000000000000000000000000000000000000000006001600160a01b03168152602090f35b34610396575f366003190112610396576040517f00000000000000000000000000000000000000000000000000000000000000006001600160a01b03168152602090f35b34610396575f366003190112610396576020604051620151808152f35b3461039657606036600319011261039657600435600481101561039657602435604435610de6611215565b8015610e71575f83610e3757825f5260056020528160405f20555b6103ad577fbf6dc57010438a5f2760f8469e6f9f5c04ec59df45d245415125fd14dbe8c4139160409182519182526020820152a2005b505f60018403610e5457825f5260066020528160405f2055610e01565b505f60028403610e0157825f5260076020528160405f2055610e01565b60405162461bcd60e51b815260206004820152601b60248201527f4d756c7469706c696572206d75737420626520706f73697469766500000000006044820152606490fd5b34610396575f366003190112610396576002546001600160a01b03168152602090f35b34610396575f36600319011261039657602060405160468152f35b6040906003190112610396576004359060243590565b90601f8019910116810190811067ffffffffffffffff821117610f2c57604052565b634e487b7160e01b5f52604160045260245ffd5b90816020910312610396575190565b818102929181159184041417156102ce57565b604051906382fee08f60e01b825260048201526020816024815f305af19081156103a2575f91610fb2575b508115610fab576064810290808204606414901517156102ce570490565b50505f1990565b90506020813d602011610fdc575b81610fcd60209383610f0a565b8101031261039657515f610f8d565b3d9150610fc0565b92919267ffffffffffffffff8211610f2c576040519161100e601f8201601f191660200184610f0a565b829481845281830111610396578281602093845f96015e010152565b9080601f8301121561039657815161104492602001610fe4565b90565b916101008383031261039657825160048110156103965792602081015192604082015192606083015167ffffffffffffffff8111610396578261108b91850161102a565b92608081015167ffffffffffffffff811161039657836110ac91830161102a565b9260a082015167ffffffffffffffff81116103965782019080601f830112156103965781516110dd92602001610fe4565b9160c082015180151581036103965760e092909201516001600160a01b03811681036103965790565b60048110156103ad578061112457505f52600560205260405f205490565b6001810361113c57505f52600660205260405f205490565b60021461114857505f90565b5f52600760205260405f205490565b805f52600960205260405f20541580156111dc575b61117f575f52600860205260405f205490565b60405190637e0f99c560e11b825260048201526020816024815f305af19081156103a2575f916111ad575090565b90506020813d6020116111d4575b816111c860209383610f0a565b81010312610396575190565b3d91506111bb565b50805f52600960205260405f20546201518081018091116102ce57421161116c565b519069ffffffffffffffffffff8216820361039657565b5f546001600160a01b0316330361122857565b63118cdaa760e01b5f523360045260245ffdfea26469706673582212201bf1732fff27a0bbbc2c560768d2a4444ebfa6bd89a8b6aedf0cf12968ef1bcd64736f6c634300081c0033","linkReferences":{}},"methodIdentifiers":{"EVALUATION_INTERVAL()":"115252c1","HEALTH_FACTOR_DENOMINATOR()":"c2d5e89d","HEALTH_FACTOR_THRESHOLD()":"0f0f63e4","MAX_LTV()":"81bf8d3d","diamondPriceFeed()":"00671bdc","diamondQualityMultipliers(uint256)":"cfe273d6","getAssetEvaluationData(uint256)":"61a772a1","getAssetValuationStatus(uint256)":"cf28adeb","getCollateralValue(uint256)":"82fee08f","getCurrentPrice(uint8)":"eff8fe5a","getHealthFactor(uint256,uint256)":"4d2c872a","getMaxLoanAmount(uint256)":"e95f2c7d","getOracleInfo()":"9c84cd10","getPriceFeeds()":"6ca42ae3","getQualityMultiplier(uint8,uint256)":"68441f8f","goldPriceFeed()":"c422f9d0","goldQualityMultipliers(uint256)":"4b4c6909","isLoanHealthy(uint256,uint256)":"72eb0312","lastEvaluationTime(uint256)":"e2efed38","officialValuations(uint256)":"7336310f","owner()":"8da5cb5b","renounceOwnership()":"715018a6","requestCollateralRevaluation(uint256)":"e4cb481b","rwaGemNftAddress()":"253323f1","setPriceFeed(uint8,address)":"de841991","setQualityMultiplier(uint8,uint256,uint256)":"008bbc8b","silverPriceFeed()":"5fdf650b","silverQualityMultipliers(uint256)":"d5eaadf2","transferOwnership(address)":"f2fde38b","userRegistryAddress()":"3f39eaa1","valuateAsset(uint256)":"fc1f338a"},"id":49}