{"abi":[{"type":"constructor","inputs":[{"name":"initialOwner","type":"address","internalType":"address"}],"stateMutability":"nonpayable"},{"type":"function","name":"collateralOracle","inputs":[],"outputs":[{"name":"","type":"address","internalType":"address"}],"stateMutability":"view"},{"type":"function","name":"gemLendingPool","inputs":[],"outputs":[{"name":"","type":"address","internalType":"address"}],"stateMutability":"view"},{"type":"function","name":"gemLoanVault","inputs":[],"outputs":[{"name":"","type":"address","internalType":"address"}],"stateMutability":"view"},{"type":"function","name":"getAllContractAddresses","inputs":[],"outputs":[{"name":"userRegistryAddr","type":"address","internalType":"address"},{"name":"rwaGemNftAddr","type":"address","internalType":"address"},{"name":"collateralOracleAddr","type":"address","internalType":"address"},{"name":"gemLendingPoolAddr","type":"address","internalType":"address"},{"name":"gemLoanVaultAddr","type":"address","internalType":"address"},{"name":"stablecoinAddr","type":"address","internalType":"address"}],"stateMutability":"view"},{"type":"function","name":"getContractAddress","inputs":[{"name":"contractName","type":"string","internalType":"string"}],"outputs":[{"name":"","type":"address","internalType":"address"}],"stateMutability":"view"},{"type":"function","name":"getContractNames","inputs":[],"outputs":[{"name":"contractNames","type":"string[]","internalType":"string[]"}],"stateMutability":"pure"},{"type":"function","name":"getDeploymentStatus","inputs":[],"outputs":[{"name":"isFullyDeployed","type":"bool","internalType":"bool"},{"name":"deployedContracts","type":"uint256","internalType":"uint256"},{"name":"totalContracts","type":"uint256","internalType":"uint256"}],"stateMutability":"view"},{"type":"function","name":"isContractRegistered","inputs":[{"name":"contractAddress","type":"address","internalType":"address"}],"outputs":[{"name":"isRegistered","type":"bool","internalType":"bool"},{"name":"contractName","type":"string","internalType":"string"}],"stateMutability":"view"},{"type":"function","name":"owner","inputs":[],"outputs":[{"name":"","type":"address","internalType":"address"}],"stateMutability":"view"},{"type":"function","name":"pauseProtocol","inputs":[],"outputs":[],"stateMutability":"nonpayable"},{"type":"function","name":"paused","inputs":[],"outputs":[{"name":"","type":"bool","internalType":"bool"}],"stateMutability":"view"},{"type":"function","name":"renounceOwnership","inputs":[],"outputs":[],"stateMutability":"nonpayable"},{"type":"function","name":"rwaGemNft","inputs":[],"outputs":[{"name":"","type":"address","internalType":"address"}],"stateMutability":"view"},{"type":"function","name":"setContractAddress","inputs":[{"name":"contractName","type":"string","internalType":"string"},{"name":"contractAddress","type":"address","internalType":"address"}],"outputs":[],"stateMutability":"nonpayable"},{"type":"function","name":"stablecoin","inputs":[],"outputs":[{"name":"","type":"address","internalType":"address"}],"stateMutability":"view"},{"type":"function","name":"transferOwnership","inputs":[{"name":"newOwner","type":"address","internalType":"address"}],"outputs":[],"stateMutability":"nonpayable"},{"type":"function","name":"unpauseProtocol","inputs":[],"outputs":[],"stateMutability":"nonpayable"},{"type":"function","name":"userRegistry","inputs":[],"outputs":[{"name":"","type":"address","internalType":"address"}],"stateMutability":"view"},{"type":"event","name":"ContractRegistered","inputs":[{"name":"contractName","type":"string","indexed":false,"internalType":"string"},{"name":"contractAddress","type":"address","indexed":false,"internalType":"address"}],"anonymous":false},{"type":"event","name":"OwnershipTransferred","inputs":[{"name":"previousOwner","type":"address","indexed":true,"internalType":"address"},{"name":"newOwner","type":"address","indexed":true,"internalType":"address"}],"anonymous":false},{"type":"event","name":"Paused","inputs":[{"name":"account","type":"address","indexed":false,"internalType":"address"}],"anonymous":false},{"type":"event","name":"ProtocolPaused","inputs":[],"anonymous":false},{"type":"event","name":"ProtocolUnpaused","inputs":[],"anonymous":false},{"type":"event","name":"Unpaused","inputs":[{"name":"account","type":"address","indexed":false,"internalType":"address"}],"anonymous":false},{"type":"error","name":"EnforcedPause","inputs":[]},{"type":"error","name":"ExpectedPause","inputs":[]},{"type":"error","name":"OwnableInvalidOwner","inputs":[{"name":"owner","type":"address","internalType":"address"}]},{"type":"error","name":"OwnableUnauthorizedAccount","inputs":[{"name":"account","type":"address","internalType":"address"}]}],"bytecode":{"object":"0x60803460b857601f61144138819003918201601f19168301916001600160401b0383118484101760bc5780849260209460405283398101031260b857516001600160a01b0381169081900360b857801560a5575f80546001600160a01b031981168317825560405192916001600160a01b03909116907f8be0079c531659141344cd1fd0a4f28419497f9722a3daafe3b4186f6b6457e09080a361137090816100d18239f35b631e4fbdf760e01b5f525f60045260245ffd5b5f80fd5b634e487b7160e01b5f52604160045260245ffdfe60806040526004361015610011575f80fd5b5f5f3560e01c806304433bbc14610ce65780630c0d360614610cbe5780632f8a599714610c9657806337df1e9d14610b495780633b33b61a14610ae8578063534e785c146106cc5780635c7460d6146106a45780635c975abb146106805780635ff998f91461059e578063715018a6146105475780638da5cb5b14610520578063979f6a81146104f8578063a217d5ce146104d0578063dbf6248914610351578063e9cbd82214610328578063f2fde38b146102a2578063f93b6be5146101275763f9f6b49b146100e0575f80fd5b34610124576020366003190112610124576101016100fc610de3565b611225565b9061012060405192839215158352604060208401526040830190610dbf565b0390f35b80fd5b50346101245780600319360112610124576101406112f4565b805460ff8160a01c16156102935760ff60a01b191681556040513381527f5db9ee0a495bf2e6ff9c91a7834c1ba4fdd244a5e8aa4e537bd38aeae4b073aa90602090a160015481906001600160a01b03168061025a575b506004546001600160a01b031680610221575b506005546001600160a01b0316806101e5575b50807f4cb3d6140b72ba86787ec31591f74ca57f8fd93a9ff34d2f6349365eb01f915f91a180f35b803b1561021e57818091600460405180948193631fa5d41d60e11b83525af1156101bd578161021391610d33565b61012457805f6101bd565b50fd5b803b1561021e57818091600460405180948193631fa5d41d60e11b83525af1156101aa578161024f91610d33565b61012457805f6101aa565b803b1561021e57818091600460405180948193631fa5d41d60e11b83525af115610197578161028891610d33565b61012457805f610197565b638dfc202b60e01b8252600482fd5b5034610124576020366003190112610124576102bc610de3565b6102c46112f4565b6001600160a01b031680156103145781546001600160a01b03198116821783556001600160a01b03167f8be0079c531659141344cd1fd0a4f28419497f9722a3daafe3b4186f6b6457e08380a380f35b631e4fbdf760e01b82526004829052602482fd5b50346101245780600319360112610124576006546040516001600160a01b039091168152602090f35b50346104bd575f3660031901126104bd5761036a6112f4565b5f5460ff8160a01c166104c15760ff60a01b1916600160a01b175f556040513381527f62e78cea01bee320cd4e420270b5ea74000d11b0c9f74754ebdbfc544b05a25890602090a16001546001600160a01b031680610486575b5060045481906001600160a01b03168061044d575b506005546001600160a01b031680610414575b50807f442792558b9a96e0f079309b45d9c253e8c39f6394bd465b3c4ffa8f834de07991a180f35b803b1561021e57818091600460405180948193638456cb5960e01b83525af1156103ec578161044291610d33565b61012457805f6103ec565b803b1561021e57818091600460405180948193638456cb5960e01b83525af1156103d9578161047b91610d33565b61012457805f6103d9565b803b156104bd575f8091600460405180948193638456cb5960e01b83525af1156103c4576104b691505f90610d33565b5f5f6103c4565b5f80fd5b63d93c066560e01b5f5260045ffd5b346104bd575f3660031901126104bd576003546040516001600160a01b039091168152602090f35b346104bd575f3660031901126104bd576005546040516001600160a01b039091168152602090f35b346104bd575f3660031901126104bd575f546040516001600160a01b039091168152602090f35b346104bd575f3660031901126104bd5761055f6112f4565b5f80546001600160a01b0319811682556001600160a01b03167f8be0079c531659141344cd1fd0a4f28419497f9722a3daafe3b4186f6b6457e08280a3005b346104bd575f3660031901126104bd576001545f906001600160a01b0316610678575b600254606091906001600160a01b031661066a575b6003546001600160a01b031661065c575b6004546001600160a01b031661064e575b6005546001600160a01b0316610640575b6006546001600160a01b0316610632575b60405190600681148252602082015260066040820152f35b61063b90611203565b61061a565b61064990611203565b610609565b61065790611203565b6105f8565b61066590611203565b6105e7565b61067390611203565b6105d6565b5060016105c1565b346104bd575f3660031901126104bd57602060ff5f5460a01c166040519015158152f35b346104bd575f3660031901126104bd576001546040516001600160a01b039091168152602090f35b346104bd5760403660031901126104bd5760043567ffffffffffffffff81116104bd576106fd903690600401610d69565b6024356001600160a01b038116908190036104bd5761071a6112f4565b8015610ab1576040516020810183519161074e602082818801958087875e81015f838201520301601f198101835282610d33565b51902060405160208101906b55736572526567697374727960a01b8252600c815261077a602c82610d33565b519020036107c85750600180546001600160a01b031916821790555f51602061131b5f395f51905f52916107bd915b604051928392604084526040840190610dbf565b9060208301520390a1005b60405160208101906107f260208287518087875e81015f838201520301601f198101835282610d33565b519020604051602081019068149dd851d95b53999d60ba1b82526009815261081b602982610d33565b5190200361084e5750600280546001600160a01b031916821790555f51602061131b5f395f51905f52916107bd916107a9565b604051602081019061087860208287518087875e81015f838201520301601f198101835282610d33565b51902060405160208101906f436f6c6c61746572616c4f7261636c6560801b8252601081526108a8603082610d33565b519020036108db5750600380546001600160a01b031916821790555f51602061131b5f395f51905f52916107bd916107a9565b604051602081019061090560208287518087875e81015f838201520301601f198101835282610d33565b51902060405160208101906d11d95b53195b991a5b99d41bdbdb60921b8252600e8152610933602e82610d33565b519020036109665750600480546001600160a01b031916821790555f51602061131b5f395f51905f52916107bd916107a9565b604051602081019061099060208287518087875e81015f838201520301601f198101835282610d33565b51902060405160208101906b11d95b531bd85b95985d5b1d60a21b8252600c81526109bc602c82610d33565b519020036109ef5750600580546001600160a01b031916821790555f51602061131b5f395f51905f52916107bd916107a9565b604051610a186020828181019487518091875e81015f838201520301601f198101835282610d33565b51902060405160208101906929ba30b13632b1b7b4b760b11b8252600a8152610a42602a82610d33565b51902003610a7457600680546001600160a01b031916821790555f51602061131b5f395f51905f52916107bd916107a9565b60405162461bcd60e51b8152602060048201526015602482015274556e6b6e6f776e20636f6e7472616374206e616d6560581b6044820152606490fd5b60405162461bcd60e51b815260206004820152600f60248201526e496e76616c6964206164647265737360881b6044820152606490fd5b346104bd575f3660031901126104bd57600154600254600354600454600554600654604080516001600160a01b03978816815295871660208701529386169385019390935290841660608401528316608083015290911660a082015260c090f35b346104bd575f3660031901126104bd57604051610b6760e082610d33565b6006815260c05f5b818110610c855782610b7f611106565b610b8882611095565b52610b9281611095565b50610b9b611130565b610ba4826110b6565b52610bae816110b6565b50610bb7611157565b610bc0826110c6565b52610bca816110c6565b50610bd3611185565b610bdc826110d6565b52610be6816110d6565b50610bef6111b1565b610bf8826110e6565b52610c02816110e6565b50610c0b6111db565b610c14826110f6565b52610c1e816110f6565b506040518091602082016020835281518091526040830190602060408260051b8601019301915f905b828210610c5657505050500390f35b91936001919395506020610c758192603f198a82030186528851610dbf565b9601920192018594939192610c47565b806060602080938601015201610b6f565b346104bd575f3660031901126104bd576004546040516001600160a01b039091168152602090f35b346104bd575f3660031901126104bd576002546040516001600160a01b039091168152602090f35b346104bd5760203660031901126104bd5760043567ffffffffffffffff81116104bd57610d21610d1c6020923690600401610d69565b610df9565b6040516001600160a01b039091168152f35b90601f8019910116810190811067ffffffffffffffff821117610d5557604052565b634e487b7160e01b5f52604160045260245ffd5b81601f820112156104bd5780359067ffffffffffffffff8211610d555760405192610d9e601f8401601f191660200185610d33565b828452602083830101116104bd57815f926020809301838601378301015290565b805180835260209291819084018484015e5f828201840152601f01601f1916010190565b600435906001600160a01b03821682036104bd57565b60405160208101825191610e27602082818701958087875e81015f838201520301601f198101835282610d33565b51902060405160208101906b55736572526567697374727960a01b8252600c8152610e53602c82610d33565b51902003610e6c5750506001546001600160a01b031690565b6040516020810190610e9660208286518087875e81015f838201520301601f198101835282610d33565b519020604051602081019068149dd851d95b53999d60ba1b825260098152610ebf602982610d33565b51902003610ed85750506002546001600160a01b031690565b6040516020810190610f0260208286518087875e81015f838201520301601f198101835282610d33565b51902060405160208101906f436f6c6c61746572616c4f7261636c6560801b825260108152610f32603082610d33565b51902003610f4b5750506003546001600160a01b031690565b6040516020810190610f7560208286518087875e81015f838201520301601f198101835282610d33565b51902060405160208101906d11d95b53195b991a5b99d41bdbdb60921b8252600e8152610fa3602e82610d33565b51902003610fbc5750506004546001600160a01b031690565b6040516020810190610fe660208286518087875e81015f838201520301601f198101835282610d33565b51902060405160208101906b11d95b531bd85b95985d5b1d60a21b8252600c8152611012602c82610d33565b5190200361102b5750506005546001600160a01b031690565b6110546020604051809382820195518091875e81015f838201520301601f198101835282610d33565b51902060405160208101906929ba30b13632b1b7b4b760b11b8252600a815261107e602a82610d33565b51902003610a74576006546001600160a01b031690565b8051156110a25760200190565b634e487b7160e01b5f52603260045260245ffd5b8051600110156110a25760400190565b8051600210156110a25760600190565b8051600310156110a25760800190565b8051600410156110a25760a00190565b8051600510156110a25760c00190565b60405190611115604083610d33565b600c82526b55736572526567697374727960a01b6020830152565b6040519061113f604083610d33565b6009825268149dd851d95b53999d60ba1b6020830152565b60405190611166604083610d33565b601082526f436f6c6c61746572616c4f7261636c6560801b6020830152565b60405190611194604083610d33565b600e82526d11d95b53195b991a5b99d41bdbdb60921b6020830152565b604051906111c0604083610d33565b600c82526b11d95b531bd85b95985d5b1d60a21b6020830152565b604051906111ea604083610d33565b600a82526929ba30b13632b1b7b4b760b11b6020830152565b5f1981146112115760010190565b634e487b7160e01b5f52601160045260245ffd5b6001546001600160a01b039182169116810361124a5750600190611247611106565b90565b6002546001600160a01b031681036112685750600190611247611130565b6003546001600160a01b031681036112865750600190611247611157565b6004546001600160a01b031681036112a45750600190611247611185565b6005546001600160a01b031681036112c257506001906112476111b1565b6006546001600160a01b0316036112de576001906112476111db565b5f906040516112ee602082610d33565b5f815290565b5f546001600160a01b0316330361130757565b63118cdaa760e01b5f523360045260245ffdfe2a88e68a891ddb61f7aebfdeefd9fb74964fcd5371b692ea59cca73fc58f4805a26469706673582212209b3aadcdc1d721e57752131307e285a4f60ab0a004db64937b46e140c4da087e64736f6c634300081c0033","linkReferences":{}},"methodIdentifiers":{"collateralOracle()":"a217d5ce","gemLendingPool()":"2f8a5997","gemLoanVault()":"979f6a81","getAllContractAddresses()":"3b33b61a","getContractAddress(string)":"04433bbc","getContractNames()":"37df1e9d","getDeploymentStatus()":"5ff998f9","isContractRegistered(address)":"f9f6b49b","owner()":"8da5cb5b","pauseProtocol()":"dbf62489","paused()":"5c975abb","renounceOwnership()":"715018a6","rwaGemNft()":"0c0d3606","setContractAddress(string,address)":"534e785c","stablecoin()":"e9cbd822","transferOwnership(address)":"f2fde38b","unpauseProtocol()":"f93b6be5","userRegistry()":"5c7460d6"},"id":53}