{"abi":[{"type":"constructor","inputs":[{"name":"name","type":"string","internalType":"string"},{"name":"symbol","type":"string","internalType":"string"},{"name":"_userRegistryAddress","type":"address","internalType":"address"},{"name":"initialOwner","type":"address","internalType":"address"}],"stateMutability":"nonpayable"},{"type":"function","name":"approve","inputs":[{"name":"to","type":"address","internalType":"address"},{"name":"tokenId","type":"uint256","internalType":"uint256"}],"outputs":[],"stateMutability":"nonpayable"},{"type":"function","name":"approvedLoanVaults","inputs":[{"name":"","type":"address","internalType":"address"}],"outputs":[{"name":"","type":"bool","internalType":"bool"}],"stateMutability":"view"},{"type":"function","name":"assetData","inputs":[{"name":"","type":"uint256","internalType":"uint256"}],"outputs":[{"name":"assetType","type":"uint8","internalType":"enum RwaGemNFT.AssetType"},{"name":"weight","type":"uint256","internalType":"uint256"},{"name":"purity","type":"uint256","internalType":"uint256"},{"name":"certificate","type":"string","internalType":"string"},{"name":"physicalAttributes","type":"string","internalType":"string"},{"name":"assetDocumentHash","type":"bytes","internalType":"bytes"},{"name":"isCollateralized","type":"bool","internalType":"bool"},{"name":"loanVaultAddress","type":"address","internalType":"address"}],"stateMutability":"view"},{"type":"function","name":"balanceOf","inputs":[{"name":"owner","type":"address","internalType":"address"}],"outputs":[{"name":"","type":"uint256","internalType":"uint256"}],"stateMutability":"view"},{"type":"function","name":"depositAsCollateral","inputs":[{"name":"tokenId","type":"uint256","internalType":"uint256"},{"name":"loanVault","type":"address","internalType":"address"}],"outputs":[],"stateMutability":"nonpayable"},{"type":"function","name":"getApproved","inputs":[{"name":"tokenId","type":"uint256","internalType":"uint256"}],"outputs":[{"name":"","type":"address","internalType":"address"}],"stateMutability":"view"},{"type":"function","name":"getAssetDetails","inputs":[{"name":"tokenId","type":"uint256","internalType":"uint256"}],"outputs":[{"name":"assetType","type":"uint8","internalType":"enum RwaGemNFT.AssetType"},{"name":"weight","type":"uint256","internalType":"uint256"},{"name":"purity","type":"uint256","internalType":"uint256"},{"name":"certificate","type":"string","internalType":"string"},{"name":"physicalAttributes","type":"string","internalType":"string"},{"name":"isAssetCollateralized","type":"bool","internalType":"bool"},{"name":"loanVaultAddress","type":"address","internalType":"address"}],"stateMutability":"view"},{"type":"function","name":"getAssetStatistics","inputs":[],"outputs":[{"name":"totalAssets","type":"uint256","internalType":"uint256"},{"name":"totalCollateralized","type":"uint256","internalType":"uint256"},{"name":"diamondCount","type":"uint256","internalType":"uint256"},{"name":"goldCount","type":"uint256","internalType":"uint256"},{"name":"silverCount","type":"uint256","internalType":"uint256"},{"name":"otherGemsCount","type":"uint256","internalType":"uint256"}],"stateMutability":"view"},{"type":"function","name":"getAssetTypeString","inputs":[{"name":"tokenId","type":"uint256","internalType":"uint256"}],"outputs":[{"name":"assetTypeString","type":"string","internalType":"string"}],"stateMutability":"view"},{"type":"function","name":"getAssetsByType","inputs":[{"name":"assetType","type":"uint8","internalType":"enum RwaGemNFT.AssetType"}],"outputs":[{"name":"tokenIds","type":"uint256[]","internalType":"uint256[]"}],"stateMutability":"view"},{"type":"function","name":"getCollateralizedAssets","inputs":[],"outputs":[{"name":"tokenIds","type":"uint256[]","internalType":"uint256[]"},{"name":"loanVaults","type":"address[]","internalType":"address[]"}],"stateMutability":"view"},{"type":"function","name":"getLoanVault","inputs":[{"name":"tokenId","type":"uint256","internalType":"uint256"}],"outputs":[{"name":"","type":"address","internalType":"address"}],"stateMutability":"view"},{"type":"function","name":"getNextTokenId","inputs":[],"outputs":[{"name":"nextId","type":"uint256","internalType":"uint256"}],"stateMutability":"view"},{"type":"function","name":"getUserAssets","inputs":[{"name":"owner","type":"address","internalType":"address"}],"outputs":[{"name":"tokenIds","type":"uint256[]","internalType":"uint256[]"}],"stateMutability":"view"},{"type":"function","name":"isApprovedForAll","inputs":[{"name":"owner","type":"address","internalType":"address"},{"name":"operator","type":"address","internalType":"address"}],"outputs":[{"name":"","type":"bool","internalType":"bool"}],"stateMutability":"view"},{"type":"function","name":"isCollateralized","inputs":[{"name":"tokenId","type":"uint256","internalType":"uint256"}],"outputs":[{"name":"","type":"bool","internalType":"bool"}],"stateMutability":"view"},{"type":"function","name":"isLiquidatedAsset","inputs":[{"name":"tokenId","type":"uint256","internalType":"uint256"}],"outputs":[{"name":"","type":"bool","internalType":"bool"}],"stateMutability":"view"},{"type":"function","name":"mintAsset","inputs":[{"name":"to","type":"address","internalType":"address"},{"name":"assetType","type":"uint8","internalType":"enum RwaGemNFT.AssetType"},{"name":"weight","type":"uint256","internalType":"uint256"},{"name":"purity","type":"uint256","internalType":"uint256"},{"name":"certificate","type":"string","internalType":"string"},{"name":"physicalAttributes","type":"string","internalType":"string"},{"name":"assetDocumentHash","type":"bytes","internalType":"bytes"},{"name":"metadataURI","type":"string","internalType":"string"}],"outputs":[{"name":"","type":"uint256","internalType":"uint256"}],"stateMutability":"nonpayable"},{"type":"function","name":"name","inputs":[],"outputs":[{"name":"","type":"string","internalType":"string"}],"stateMutability":"view"},{"type":"function","name":"owner","inputs":[],"outputs":[{"name":"","type":"address","internalType":"address"}],"stateMutability":"view"},{"type":"function","name":"ownerOf","inputs":[{"name":"tokenId","type":"uint256","internalType":"uint256"}],"outputs":[{"name":"","type":"address","internalType":"address"}],"stateMutability":"view"},{"type":"function","name":"releaseCollateral","inputs":[{"name":"tokenId","type":"uint256","internalType":"uint256"},{"name":"to","type":"address","internalType":"address"}],"outputs":[],"stateMutability":"nonpayable"},{"type":"function","name":"renounceOwnership","inputs":[],"outputs":[],"stateMutability":"nonpayable"},{"type":"function","name":"safeTransferFrom","inputs":[{"name":"from","type":"address","internalType":"address"},{"name":"to","type":"address","internalType":"address"},{"name":"tokenId","type":"uint256","internalType":"uint256"}],"outputs":[],"stateMutability":"nonpayable"},{"type":"function","name":"safeTransferFrom","inputs":[{"name":"from","type":"address","internalType":"address"},{"name":"to","type":"address","internalType":"address"},{"name":"tokenId","type":"uint256","internalType":"uint256"},{"name":"data","type":"bytes","internalType":"bytes"}],"outputs":[],"stateMutability":"nonpayable"},{"type":"function","name":"setApprovalForAll","inputs":[{"name":"operator","type":"address","internalType":"address"},{"name":"approved","type":"bool","internalType":"bool"}],"outputs":[],"stateMutability":"nonpayable"},{"type":"function","name":"setLoanVaultApproval","inputs":[{"name":"loanVault","type":"address","internalType":"address"},{"name":"isApproved","type":"bool","internalType":"bool"}],"outputs":[],"stateMutability":"nonpayable"},{"type":"function","name":"supportsInterface","inputs":[{"name":"interfaceId","type":"bytes4","internalType":"bytes4"}],"outputs":[{"name":"","type":"bool","internalType":"bool"}],"stateMutability":"view"},{"type":"function","name":"symbol","inputs":[],"outputs":[{"name":"","type":"string","internalType":"string"}],"stateMutability":"view"},{"type":"function","name":"tokenExists","inputs":[{"name":"tokenId","type":"uint256","internalType":"uint256"}],"outputs":[{"name":"exists","type":"bool","internalType":"bool"}],"stateMutability":"view"},{"type":"function","name":"tokenURI","inputs":[{"name":"tokenId","type":"uint256","internalType":"uint256"}],"outputs":[{"name":"","type":"string","internalType":"string"}],"stateMutability":"view"},{"type":"function","name":"transferFrom","inputs":[{"name":"from","type":"address","internalType":"address"},{"name":"to","type":"address","internalType":"address"},{"name":"tokenId","type":"uint256","internalType":"uint256"}],"outputs":[],"stateMutability":"nonpayable"},{"type":"function","name":"transferLiquidatedAsset","inputs":[{"name":"tokenId","type":"uint256","internalType":"uint256"},{"name":"to","type":"address","internalType":"address"},{"name":"liquidationPrice","type":"uint256","internalType":"uint256"}],"outputs":[],"stateMutability":"nonpayable"},{"type":"function","name":"transferOwnership","inputs":[{"name":"newOwner","type":"address","internalType":"address"}],"outputs":[],"stateMutability":"nonpayable"},{"type":"function","name":"userRegistry","inputs":[],"outputs":[{"name":"","type":"address","internalType":"contract UserRegistry"}],"stateMutability":"view"},{"type":"function","name":"wasLiquidated","inputs":[{"name":"","type":"uint256","internalType":"uint256"}],"outputs":[{"name":"","type":"bool","internalType":"bool"}],"stateMutability":"view"},{"type":"event","name":"Approval","inputs":[{"name":"owner","type":"address","indexed":true,"internalType":"address"},{"name":"approved","type":"address","indexed":true,"internalType":"address"},{"name":"tokenId","type":"uint256","indexed":true,"internalType":"uint256"}],"anonymous":false},{"type":"event","name":"ApprovalForAll","inputs":[{"name":"owner","type":"address","indexed":true,"internalType":"address"},{"name":"operator","type":"address","indexed":true,"internalType":"address"},{"name":"approved","type":"bool","indexed":false,"internalType":"bool"}],"anonymous":false},{"type":"event","name":"AssetCollateralized","inputs":[{"name":"tokenId","type":"uint256","indexed":true,"internalType":"uint256"},{"name":"loanVault","type":"address","indexed":true,"internalType":"address"}],"anonymous":false},{"type":"event","name":"AssetLiquidated","inputs":[{"name":"tokenId","type":"uint256","indexed":true,"internalType":"uint256"},{"name":"newOwner","type":"address","indexed":true,"internalType":"address"},{"name":"liquidationPrice","type":"uint256","indexed":false,"internalType":"uint256"}],"anonymous":false},{"type":"event","name":"AssetMinted","inputs":[{"name":"minter","type":"address","indexed":true,"internalType":"address"},{"name":"tokenId","type":"uint256","indexed":true,"internalType":"uint256"},{"name":"assetType","type":"uint8","indexed":false,"internalType":"enum RwaGemNFT.AssetType"}],"anonymous":false},{"type":"event","name":"AssetReleased","inputs":[{"name":"tokenId","type":"uint256","indexed":true,"internalType":"uint256"},{"name":"loanVault","type":"address","indexed":true,"internalType":"address"}],"anonymous":false},{"type":"event","name":"BatchMetadataUpdate","inputs":[{"name":"_fromTokenId","type":"uint256","indexed":false,"internalType":"uint256"},{"name":"_toTokenId","type":"uint256","indexed":false,"internalType":"uint256"}],"anonymous":false},{"type":"event","name":"LoanVaultApprovalUpdated","inputs":[{"name":"loanVault","type":"address","indexed":true,"internalType":"address"},{"name":"isApproved","type":"bool","indexed":false,"internalType":"bool"}],"anonymous":false},{"type":"event","name":"MetadataUpdate","inputs":[{"name":"_tokenId","type":"uint256","indexed":false,"internalType":"uint256"}],"anonymous":false},{"type":"event","name":"OwnershipTransferred","inputs":[{"name":"previousOwner","type":"address","indexed":true,"internalType":"address"},{"name":"newOwner","type":"address","indexed":true,"internalType":"address"}],"anonymous":false},{"type":"event","name":"Transfer","inputs":[{"name":"from","type":"address","indexed":true,"internalType":"address"},{"name":"to","type":"address","indexed":true,"internalType":"address"},{"name":"tokenId","type":"uint256","indexed":true,"internalType":"uint256"}],"anonymous":false},{"type":"error","name":"ERC721IncorrectOwner","inputs":[{"name":"sender","type":"address","internalType":"address"},{"name":"tokenId","type":"uint256","internalType":"uint256"},{"name":"owner","type":"address","internalType":"address"}]},{"type":"error","name":"ERC721InsufficientApproval","inputs":[{"name":"operator","type":"address","internalType":"address"},{"name":"tokenId","type":"uint256","internalType":"uint256"}]},{"type":"error","name":"ERC721InvalidApprover","inputs":[{"name":"approver","type":"address","internalType":"address"}]},{"type":"error","name":"ERC721InvalidOperator","inputs":[{"name":"operator","type":"address","internalType":"address"}]},{"type":"error","name":"ERC721InvalidOwner","inputs":[{"name":"owner","type":"address","internalType":"address"}]},{"type":"error","name":"ERC721InvalidReceiver","inputs":[{"name":"receiver","type":"address","internalType":"address"}]},{"type":"error","name":"ERC721InvalidSender","inputs":[{"name":"sender","type":"address","internalType":"address"}]},{"type":"error","name":"ERC721NonexistentToken","inputs":[{"name":"tokenId","type":"uint256","internalType":"uint256"}]},{"type":"error","name":"OwnableInvalidOwner","inputs":[{"name":"owner","type":"address","internalType":"address"}]},{"type":"error","name":"OwnableUnauthorizedAccount","inputs":[{"name":"account","type":"address","internalType":"address"}]}],"bytecode":{"object":"0x60a06040523461040657612a68803803806100198161040a565b9283398101906080818303126104065780516001600160401b038111610406578261004591830161042f565b602082015190926001600160401b0382116104065761006591830161042f565b9061007e606061007760408401610480565b9201610480565b83516001600160401b03811161031a575f54600181811c911680156103fc575b60208210146102fc57601f811161039a575b50602094601f8211600114610339579481929394955f9261032e575b50508160011b915f199060031b1c1916175f555b82516001600160401b03811161031a57600154600181811c91168015610310575b60208210146102fc57601f8111610299575b506020601f821160011461023657819293945f9261022b575b50508160011b915f199060031b1c1916176001555b6001600160a01b031690811561021857600780546001600160a01b03198116841790915560405192906001600160a01b03167f8be0079c531659141344cd1fd0a4f28419497f9722a3daafe3b4186f6b6457e05f80a36001600160a01b03169081156101ca57506080526040516125d390816104958239608051818181610e7101526110510152f35b62461bcd60e51b815260206004820152602360248201527f55736572526567697374727920616464726573732063616e6e6f74206265207a60448201526265726f60e81b6064820152608490fd5b631e4fbdf760e01b5f525f60045260245ffd5b015190505f8061012c565b601f1982169060015f52805f20915f5b81811061028157509583600195969710610269575b505050811b01600155610141565b01515f1960f88460031b161c191690555f808061025b565b9192602060018192868b015181550194019201610246565b60015f527fb10e2d527612073b26eecdfd717e6a320cf44b4afac2b0732d9fcbe2b7fa0cf6601f830160051c810191602084106102f2575b601f0160051c01905b8181106102e75750610113565b5f81556001016102da565b90915081906102d1565b634e487b7160e01b5f52602260045260245ffd5b90607f1690610101565b634e487b7160e01b5f52604160045260245ffd5b015190505f806100cc565b601f198216955f8052805f20915f5b8881106103825750836001959697981061036a575b505050811b015f556100e0565b01515f1960f88460031b161c191690555f808061035d565b91926020600181928685015181550194019201610348565b5f80527f290decd9548b62a8d60345a988386fc84ba6bc95484008f6362f93160ef3e563601f830160051c810191602084106103f2575b601f0160051c01905b8181106103e757506100b0565b5f81556001016103da565b90915081906103d1565b90607f169061009e565b5f80fd5b6040519190601f01601f191682016001600160401b0381118382101761031a57604052565b81601f82011215610406578051906001600160401b03821161031a5761045e601f8301601f191660200161040a565b928284526020838301011161040657815f9260208093018386015e8301015290565b51906001600160a01b03821682036104065756fe60806040526004361015610011575f80fd5b5f3560e01c8062923f9e14611cb457806301ffc9a714611c2c57806306fdde0314611b8a578063081812fc14611b4e578063095ea7b314611a6457806313930b9614611a2757806323b872dd14611a105780632d1d9ed7146119275780632f4a61d914611716578063381a46e714610f965780633dc2a72d14610a0257806342842e0e14610f6d57806345e75be214610f4e578063532c6b3714610ea05780635c7460d614610e5c57806362004a1914610da15780636352211e14610d715780636afe122a14610d3957806370a0823114610d0e578063715018a614610cb3578063765ff06114610bc55780637939c1c614610a315780637b0862d714610a025780638da5cb5b146109da57806395d89b4114610910578063a1f24b3d146107cd578063a22cb4651461073f578063ac823a7e14610643578063b88d4fde146105f3578063c87b56dd146105c0578063caa0f92a146105a3578063d1b2cc2e14610410578063e7e30882146103de578063e985e9c514610387578063f2fde38b146103015763f5a2e76f146101a4575f80fd5b346102fd575f3660031901126102fd575f5f600954905b8181106102c957506101cc8261236e565b916101ef6101d982612357565b916101e76040519384611d82565b808352612357565b602082019290601f19013684375f5f5b828110610264576102228686866020604051948594604086526040860190611e31565b918483038286015251918281520191905f5b818110610242575050500390f35b82516001600160a01b0316845285945060209384019390920191600101610234565b805f52600860205260ff600660405f20015416610284575b6001016101ff565b906102c181836102966001948a6123a0565b52835f526008602052828060a01b03600660405f20015460081c166102bb82886123a0565b526121ba565b91905061027c565b805f52600860205260ff600660405f200154166102e9575b6001016101bb565b916102f56001916121ba565b9290506102e1565b5f80fd5b346102fd5760203660031901126102fd5761031a611d00565b610322612576565b6001600160a01b0316801561037457600780546001600160a01b0319811683179091556001600160a01b03167f8be0079c531659141344cd1fd0a4f28419497f9722a3daafe3b4186f6b6457e05f80a3005b631e4fbdf760e01b5f525f60045260245ffd5b346102fd5760403660031901126102fd576103a0611d00565b6103a8611d16565b9060018060a01b03165f52600560205260405f209060018060a01b03165f52602052602060ff60405f2054166040519015158152f35b346102fd5760203660031901126102fd576004355f526008602052602060ff600660405f200154166040519015158152f35b346102fd5760203660031901126102fd576004356004811015806102fd576009545f805b82811061051c57506104459061236e565b915f905f5b83811061046b576040516020808252819061046790820188611e31565b0390f35b6040516331a9108f60e11b815260048101829052602081602481305afa90816104f0575b5061049d575b60010161044a565b805f5260086020528160ff60405f205416906104dc5760048110156104dc57860361049557916104d481846102bb600194896123a0565b929050610495565b634e487b7160e01b5f52602160045260245ffd5b6105109060203d8111610515575b6105088183611d82565b810190611f2a565b61048f565b503d6104fe565b6040516331a9108f60e11b815260048101829052602081602481305afa9081610587575b5061054e575b600101610434565b805f5260086020528360ff60405f205416906104dc5760048110156104dc578503610546579061057f6001916121ba565b919050610546565b61059e9060203d8111610515576105088183611d82565b610540565b346102fd575f3660031901126102fd576020600954604051908152f35b346102fd5760203660031901126102fd576104676105df600435612508565b604051918291602083526020830190611cdc565b346102fd5760803660031901126102fd5761060c611d00565b610614611d16565b606435916001600160401b0383116102fd57610637610641933690600401611dbe565b91604435916123c8565b005b346102fd5760203660031901126102fd576004355f5260086020526106e360405f2060ff8154169061071c60018201549161070e600282015461070060405161069a816106938160038901611ea9565b0382611d82565b604051926106b6846106af8160048a01611ea9565b0385611d82565b6006604051966106d4886106cd8160058501611ea9565b0389611d82565b0154976040519a8b809b611e64565b60208a015260408901526101006060890152610100880190611cdc565b908682036080880152611cdc565b9084820360a0860152611cdc565b60ff8216151560c084015260089190911c6001600160a01b031660e08301520390f35b346102fd5761074d36611e02565b6001600160a01b039091169081156107ba57335f52600560205260405f20825f5260205261078a8160405f209060ff801983541691151516179055565b60405190151581527f17307eab39ab6107e8899845ad3d59bd9653f200f220920489ca2b5937696c3160203392a3005b50630b61174360e31b5f5260045260245ffd5b346102fd5760203660031901126102fd576004355f52600860205260405f206040516107f881611d66565b61080660ff835416826121dc565b60018201549060208101918252600283015460408201908152604051610833816106938160038901611ea9565b60608301908152600660405195610858876108518160048501611ea9565b0388611d82565b60808501968752604051610873816106938160058601611ea9565b60a0860152015460ff8116151560c0850190815260089190911c6001600160a01b031660e0850190815293519460048610156104dc576108d896610901936108f39251955190519151935115159660018060a01b0390511695604051998a809a611e64565b6020890152604088015260e0606088015260e0870190611cdc565b908582036080870152611cdc565b9160a084015260c08301520390f35b346102fd575f3660031901126102fd576040515f60015461093081611e71565b80845290600181169081156109b65750600114610958575b610467836105df81850382611d82565b60015f9081527fb10e2d527612073b26eecdfd717e6a320cf44b4afac2b0732d9fcbe2b7fa0cf6939250905b80821061099c575090915081016020016105df610948565b919260018160209254838588010152019101909291610984565b60ff191660208086019190915291151560051b840190910191506105df9050610948565b346102fd575f3660031901126102fd576007546040516001600160a01b039091168152602090f35b346102fd5760203660031901126102fd576004355f52600b602052602060ff60405f2054166040519015158152f35b346102fd575f3660031901126102fd576009545f9081808080805b858110610a7957509460c095604051958652602086015260408501526060840152608083015260a0820152f35b6040516331a9108f60e11b815260048101829052602081602481305afa9081610ba9575b50610aab575b600101610a4c565b95865f52600860205260ff600660405f20015416610b99575b865f52600860205260ff60405f20541660048110156104dc57610af557610aec6001916121ba565b965b9050610aa3565b9591825f52600860205260ff60405f20541660048110156104dc57600103610b2857610b226001916121ba565b92610aee565b9192835f52600860205260ff60405f20541660048110156104dc57600203610b5b57610b556001916121ba565b93610aee565b92805f52600860205260ff60405f20541660048110156104dc57600314610b85575b600190610aee565b93610b916001916121ba565b949050610b7d565b90610ba3906121ba565b90610ac4565b610bc09060203d8111610515576105088183611d82565b610a9d565b346102fd5760203660031901126102fd57610bde611d00565b610be781612326565b610bf08161236e565b5f5f92600954935b84811080610caa575b15610c94576040516331a9108f60e11b815260048101829052602081602481305afa5f9181610c74575b50610c40575b50610c3b906121ba565b610bf8565b6001600160a01b03878116911614610c59575b86610c31565b91610c6c81846102bb610c3b94886123a0565b929050610c53565b610c8d91925060203d8111610515576105088183611d82565b9088610c2b565b6040516020808252819061046790820187611e31565b50818310610c01565b346102fd575f3660031901126102fd57610ccb612576565b600780546001600160a01b031981169091555f906001600160a01b03167f8be0079c531659141344cd1fd0a4f28419497f9722a3daafe3b4186f6b6457e08280a3005b346102fd5760203660031901126102fd576020610d31610d2c611d00565b612326565b604051908152f35b346102fd5760203660031901126102fd576004355f526008602052602060018060a01b03600660405f20015460081c16604051908152f35b346102fd5760203660031901126102fd576020610d8f600435612542565b6040516001600160a01b039091168152f35b346102fd57610daf36611e02565b90610db8612576565b6001600160a01b0316908115610e175760207fc41c7d6e426033cdfd81fcb98f983064544e575e6097d58845b7a3111bf1488291835f52600a8252610e0c8160405f209060ff801983541691151516179055565b6040519015158152a2005b60405162461bcd60e51b815260206004820152601a60248201527f496e76616c6964206c6f616e207661756c7420616464726573730000000000006044820152606490fd5b346102fd575f3660031901126102fd576040517f00000000000000000000000000000000000000000000000000000000000000006001600160a01b03168152602090f35b346102fd5760403660031901126102fd57600435610ebc611d16565b815f526008602052610ee160018060a01b03600660405f20015460081c163314612124565b815f526008602052610efc60ff600660405f20015416612161565b5f82815260086020526040812060060180546001600160a81b03191690556001600160a01b039190911691907fa6beaa28c0fece1ae6319144a40bae517a3d55231c725f5aa07d3ba77edc2d979080a3005b346102fd5760203660031901126102fd576104676105df600435612237565b346102fd57610641610f7e36611d2c565b9060405192610f8e602085611d82565b5f84526123c8565b346102fd576101003660031901126102fd57610fb0611d00565b6024359060048210156102fd576084356001600160401b0381116102fd57610fdc903690600401611dbe565b9060a4356001600160401b0381116102fd57610ffc903690600401611dbe565b9260c4356001600160401b0381116102fd5761101c903690600401611dbe565b9360e4356001600160401b0381116102fd5761103c903690600401611dbe565b60405163c3c5a54760e01b81523360048201527f00000000000000000000000000000000000000000000000000000000000000006001600160a01b03169490602081602481895afa9081156116a7575f916116f7575b50156116b25760405163c3c5a54760e01b81526001600160a01b039091166004820181905294602090829060249082905afa9081156116a7575f91611678575b501561163357600954936110e5856121ba565b6009558015611620575f858152600260205260409020546001600160a01b0316801515918690836115ed575b805f52600360205260405f2060018154019055815f52600260205260405f20816bffffffffffffffffffffffff60a01b825416179055827fddf252ad1be2c89b69c2b068fc378daa952ba7f163c4a11628f55a4df523b3ef5f80a4506115da57835f52600660205260405f20908051906001600160401b03821161147c576111a38261119d8554611e71565b856121e8565b602090601f8311600114611577576111d292915f918361156c575b50508160011b915f199060031b1c19161790565b90555b7ff8e1a15aba9398e019f0b49df1a4fde98ee17ae345cb5f6b5e2c27f5033e8ce76020604051858152a160405161120b81611d66565b61121583826121dc565b6020810191604435835260408201956064358752606083019081526080830191825260a0830197885260c08301965f885260e08401945f8652875f52600860205260405f20945160048110156104dc5760ff801987541691161785555160018501555160028401556003830190518051906001600160401b03821161147c576112a28261119d8554611e71565b602090601f8311600114611509576112d092915f91836114fe5750508160011b915f199060031b1c19161790565b90555b51805160048301916001600160401b03821161147c576112f78261119d8554611e71565b602090601f831160011461149b5761132592915f91836114905750508160011b915f199060031b1c19161790565b90555b6005810195519586516001600160401b03811161147c576020976113508261119d8554611e71565b8890601f831160011461140d57936113c8959361138b846113a5956006958c9d995f926114025750508160011b915f199060031b1c19161790565b90555b0192511515839060ff801983541691151516179055565b518154610100600160a81b03191660089190911b610100600160a81b0316179055565b6113d56040518092611e64565b7f0c718ee65070b0b4b4de07b6233d379e1a4ae5ab3041a4e41f549a0facd7f5e0843392a3604051908152f35b015190508e806111be565b90601f19831691845f52815f20925f5b8181106114655750846006948b9c98946113c89a98946113a5986001951061144d575b505050811b01905561138e565b01515f1960f88460031b161c191690558d8080611440565b92938c60018192878601518155019501930161141d565b634e487b7160e01b5f52604160045260245ffd5b015190508a806111be565b90601f19831691845f52815f20925f5b8181106114e657509084600195949392106114ce575b505050811b019055611328565b01515f1960f88460031b161c191690558980806114c1565b929360206001819287860151815501950193016114ab565b015190508b806111be565b90601f19831691845f52815f20925f5b818110611554575090846001959493921061153c575b505050811b0190556112d3565b01515f1960f88460031b161c191690558a808061152f565b92936020600181928786015181550195019301611519565b0151905089806111be565b90601f19831691845f52815f20925f5b8181106115c257509084600195949392106115aa575b505050811b0190556111d5565b01515f1960f88460031b161c1916905588808061159d565b92936020600181928786015181550195019301611587565b6339e3563760e11b5f525f60045260245ffd5b5f82815260046020526040902080546001600160a01b0319169055825f52600360205260405f205f198154019055611111565b633250574960e11b5f525f60045260245ffd5b60405162461bcd60e51b815260206004820152601c60248201527f526563697069656e74206d7573742062652072656769737465726564000000006044820152606490fd5b61169a915060203d6020116116a0575b6116928183611d82565b8101906121a2565b876110d2565b503d611688565b6040513d5f823e3d90fd5b60405162461bcd60e51b815260206004820152601960248201527f43616c6c6572206d7573742062652072656769737465726564000000000000006044820152606490fd5b611710915060203d6020116116a0576116928183611d82565b88611092565b346102fd5760403660031901126102fd57600435611732611d16565b6001600160a01b0381169190338390036118d257825f52600a60205260ff60405f2054161561188d57815f52600860205260ff600660405f2001541661184f576040516331a9108f60e11b815260048101839052602081602481305afa9081611832575b506117d65760405162461bcd60e51b8152602060048201526013602482015272151bdad95b88191bd95cdb89dd08195e1a5cdd606a1b6044820152606490fd5b5f82815260086020819052604090912060060180546001600160a81b0319169290911b610100600160a81b03169190911760011790557fb1d7b055405809a781444b384cb8ccb331fb8f88f589e3b2b4f7b1a9b53dd0f25f80a3005b61184a9060203d602011610515576105088183611d82565b611796565b60405162461bcd60e51b8152602060048201526016602482015275105b1c9958591e4818dbdb1b185d195c985b1a5e995960521b6044820152606490fd5b60405162461bcd60e51b815260206004820152601760248201527f4c6f616e207661756c74206e6f7420617070726f7665640000000000000000006044820152606490fd5b60405162461bcd60e51b815260206004820152602760248201527f4f6e6c7920617070726f766564206c6f616e207661756c74732063616e2063616044820152666c6c207468697360c81b6064820152608490fd5b346102fd5760603660031901126102fd57600435611943611d16565b90805f52600860205261196960018060a01b03600660405f20015460081c163314612124565b805f52600860205261198460ff600660405f20015416612161565b5f81815260086020908152604080832060060180546001600160a81b0319169055600b9091529020805460ff191660011790556119d46119c382612542565b828460405192610f8e602085611d82565b60405160443581526001600160a01b03909216917f67c00c2fac20d9aee6e4372af386d312e113c87ac97a3f5a238400b746b28daf90602090a3005b346102fd57610641611a2136611d2c565b91611f97565b346102fd5760203660031901126102fd576001600160a01b03611a48611d00565b165f52600a602052602060ff60405f2054166040519015158152f35b346102fd5760403660031901126102fd57611a7d611d00565b602435611a8981612542565b33151580611b3b575b80611b0e575b611afb5781906001600160a01b0384811691167f8c5be1e5ebec7d5bd14f71427d1e84f3dd0314c0f7b2291e5b200ac8c7c3b9255f80a45f90815260046020526040902080546001600160a01b0319166001600160a01b03909216919091179055005b63a9fbf51f60e01b5f523360045260245ffd5b506001600160a01b0381165f90815260056020908152604080832033845290915290205460ff1615611a98565b506001600160a01b038116331415611a92565b346102fd5760203660031901126102fd57600435611b6b81612542565b505f526004602052602060018060a01b0360405f205416604051908152f35b346102fd575f3660031901126102fd576040515f5f54611ba981611e71565b80845290600181169081156109b65750600114611bd057610467836105df81850382611d82565b5f8080527f290decd9548b62a8d60345a988386fc84ba6bc95484008f6362f93160ef3e563939250905b808210611c12575090915081016020016105df610948565b919260018160209254838588010152019101909291611bfa565b346102fd5760203660031901126102fd5760043563ffffffff60e01b81168091036102fd57602090632483248360e11b8114908115611c71575b506040519015158152f35b6380ac58cd60e01b811491508115611ca3575b8115611c92575b5082611c66565b6301ffc9a760e01b14905082611c8b565b635b5e139f60e01b81149150611c84565b346102fd5760203660031901126102fd576020611cd2600435611f49565b6040519015158152f35b805180835260209291819084018484015e5f828201840152601f01601f1916010190565b600435906001600160a01b03821682036102fd57565b602435906001600160a01b03821682036102fd57565b60609060031901126102fd576004356001600160a01b03811681036102fd57906024356001600160a01b03811681036102fd579060443590565b61010081019081106001600160401b0382111761147c57604052565b90601f801991011681019081106001600160401b0382111761147c57604052565b6001600160401b03811161147c57601f01601f191660200190565b81601f820112156102fd57602081359101611dd882611da3565b92611de66040519485611d82565b828452828201116102fd57815f92602092838601378301015290565b60409060031901126102fd576004356001600160a01b03811681036102fd579060243580151581036102fd5790565b90602080835192838152019201905f5b818110611e4e5750505090565b8251845260209384019390920191600101611e41565b9060048210156104dc5752565b90600182811c92168015611e9f575b6020831014611e8b57565b634e487b7160e01b5f52602260045260245ffd5b91607f1691611e80565b5f9291815491611eb883611e71565b8083529260018116908115611f0d5750600114611ed457505050565b5f9081526020812093945091925b838310611ef3575060209250010190565b600181602092949394548385870101520191019190611ee2565b915050602093945060ff929192191683830152151560051b010190565b908160209103126102fd57516001600160a01b03811681036102fd5790565b604051906331a9108f60e11b82526004820152602081602481305afa9081611f7a575b50611f75575f90565b600190565b611f929060203d602011610515576105088183611d82565b611f6c565b6001600160a01b0390911691908215611620575f828152600260205260409020546001600160a01b03169282903315158061208f575b508461205c575b805f52600360205260405f2060018154019055815f52600260205260405f20816bffffffffffffffffffffffff60a01b825416179055847fddf252ad1be2c89b69c2b068fc378daa952ba7f163c4a11628f55a4df523b3ef5f80a46001600160a01b031680830361204457505050565b6364283d7b60e01b5f5260045260245260445260645ffd5b5f82815260046020526040902080546001600160a01b0319169055845f52600360205260405f205f198154019055611fd4565b909150806120d3575b156120a55782905f611fcd565b82846120bd57637e27328960e01b5f5260045260245ffd5b63177e802f60e01b5f523360045260245260445ffd5b503384148015612102575b8061209857505f838152600460205260409020546001600160a01b03163314612098565b505f84815260056020908152604080832033845290915290205460ff166120de565b1561212b57565b60405162461bcd60e51b815260206004820152600e60248201526d139bdd08185d5d1a1bdc9a5e995960921b6044820152606490fd5b1561216857565b60405162461bcd60e51b8152602060048201526012602482015271139bdd0818dbdb1b185d195c985b1a5e995960721b6044820152606490fd5b908160209103126102fd575180151581036102fd5790565b5f1981146121c85760010190565b634e487b7160e01b5f52601160045260245ffd5b60048210156104dc5752565b601f82116121f557505050565b5f5260205f20906020601f840160051c8301931061222d575b601f0160051c01905b818110612222575050565b5f8155600101612217565b909150819061220e565b5f52600860205260ff60405f20541660048110156104dc578061227a5750604051612263604082611d82565b6007815266111a585b5bdb9960ca1b602082015290565b600181036122a55750604051612291604082611d82565b600481526311dbdb1960e21b602082015290565b600281036122d257506040516122bc604082611d82565b600681526529b4b63b32b960d11b602082015290565b600303612301576040516122e7604082611d82565b600a8152694f746865722047656d7360b01b602082015290565b60405161230f604082611d82565b60078152662ab735b737bbb760c91b602082015290565b6001600160a01b03168015612344575f52600360205260405f205490565b6322718ad960e21b5f525f60045260245ffd5b6001600160401b03811161147c5760051b60200190565b9061237882612357565b6123856040519182611d82565b8281528092612396601f1991612357565b0190602036910137565b80518210156123b45760209160051b010190565b634e487b7160e01b5f52603260045260245ffd5b92916123d5818386611f97565b813b6123e2575b50505050565b604051630a85bd0160e11b81523360048201526001600160a01b039485166024820152604481019190915260806064820152921691906020908290819061242d906084830190611cdc565b03815f865af15f91816124c3575b5061249057503d15612489573d61245181611da3565b9061245f6040519283611d82565b81523d5f602083013e5b805190816124845782633250574960e11b5f5260045260245ffd5b602001fd5b6060612469565b6001600160e01b03191663757a42ff60e11b016124b157505f8080806123dc565b633250574960e11b5f5260045260245ffd5b9091506020813d602011612500575b816124df60209383611d82565b810103126102fd57516001600160e01b0319811681036102fd57905f61243b565b3d91506124d2565b61251181612542565b505f52600660205261069361252f60405f2060405192838092611ea9565b5f60405161253e602082611d82565b5290565b5f818152600260205260409020546001600160a01b0316908115612564575090565b637e27328960e01b5f5260045260245ffd5b6007546001600160a01b0316330361258a57565b63118cdaa760e01b5f523360045260245ffdfea264697066735822122069878facd2abc7d28bc3740012c8682033f9b67e50db5ad31cf1a3dc206de76664736f6c634300081c0033","linkReferences":{}},"methodIdentifiers":{"approve(address,uint256)":"095ea7b3","approvedLoanVaults(address)":"13930b96","assetData(uint256)":"ac823a7e","balanceOf(address)":"70a08231","depositAsCollateral(uint256,address)":"2f4a61d9","getApproved(uint256)":"081812fc","getAssetDetails(uint256)":"a1f24b3d","getAssetStatistics()":"7939c1c6","getAssetTypeString(uint256)":"45e75be2","getAssetsByType(uint8)":"d1b2cc2e","getCollateralizedAssets()":"f5a2e76f","getLoanVault(uint256)":"6afe122a","getNextTokenId()":"caa0f92a","getUserAssets(address)":"765ff061","isApprovedForAll(address,address)":"e985e9c5","isCollateralized(uint256)":"e7e30882","isLiquidatedAsset(uint256)":"3dc2a72d","mintAsset(address,uint8,uint256,uint256,string,string,bytes,string)":"381a46e7","name()":"06fdde03","owner()":"8da5cb5b","ownerOf(uint256)":"6352211e","releaseCollateral(uint256,address)":"532c6b37","renounceOwnership()":"715018a6","safeTransferFrom(address,address,uint256)":"42842e0e","safeTransferFrom(address,address,uint256,bytes)":"b88d4fde","setApprovalForAll(address,bool)":"a22cb465","setLoanVaultApproval(address,bool)":"62004a19","supportsInterface(bytes4)":"01ffc9a7","symbol()":"95d89b41","tokenExists(uint256)":"00923f9e","tokenURI(uint256)":"c87b56dd","transferFrom(address,address,uint256)":"23b872dd","transferLiquidatedAsset(uint256,address,uint256)":"2d1d9ed7","transferOwnership(address)":"f2fde38b","userRegistry()":"5c7460d6","wasLiquidated(uint256)":"7b0862d7"},"id":56}