{"abi":[{"type":"constructor","inputs":[{"name":"initialOwner","type":"address","internalType":"address"}],"stateMutability":"nonpayable"},{"type":"function","name":"authorizedUpdaters","inputs":[{"name":"","type":"address","internalType":"address"}],"outputs":[{"name":"","type":"bool","internalType":"bool"}],"stateMutability":"view"},{"type":"function","name":"getReputationScore","inputs":[{"name":"_user","type":"address","internalType":"address"}],"outputs":[{"name":"","type":"uint256","internalType":"uint256"}],"stateMutability":"view"},{"type":"function","name":"getReputationTier","inputs":[{"name":"_user","type":"address","internalType":"address"}],"outputs":[{"name":"tier","type":"string","internalType":"string"}],"stateMutability":"view"},{"type":"function","name":"getUserProfile","inputs":[{"name":"_user","type":"address","internalType":"address"}],"outputs":[{"name":"user","type":"tuple","internalType":"struct UserRegistry.User","components":[{"name":"isRegistered","type":"bool","internalType":"bool"},{"name":"reputationScore","type":"uint256","internalType":"uint256"},{"name":"registeredAt","type":"uint256","internalType":"uint256"}]}],"stateMutability":"view"},{"type":"function","name":"getUserRegistrationTime","inputs":[{"name":"_user","type":"address","internalType":"address"}],"outputs":[{"name":"registeredAt","type":"uint256","internalType":"uint256"}],"stateMutability":"view"},{"type":"function","name":"isAuthorizedUpdater","inputs":[{"name":"_updater","type":"address","internalType":"address"}],"outputs":[{"name":"isAuthorized","type":"bool","internalType":"bool"}],"stateMutability":"view"},{"type":"function","name":"isRegistered","inputs":[{"name":"_user","type":"address","internalType":"address"}],"outputs":[{"name":"","type":"bool","internalType":"bool"}],"stateMutability":"view"},{"type":"function","name":"owner","inputs":[],"outputs":[{"name":"","type":"address","internalType":"address"}],"stateMutability":"view"},{"type":"function","name":"pause","inputs":[],"outputs":[],"stateMutability":"nonpayable"},{"type":"function","name":"paused","inputs":[],"outputs":[{"name":"","type":"bool","internalType":"bool"}],"stateMutability":"view"},{"type":"function","name":"registerUser","inputs":[],"outputs":[],"stateMutability":"nonpayable"},{"type":"function","name":"renounceOwnership","inputs":[],"outputs":[],"stateMutability":"nonpayable"},{"type":"function","name":"setAuthorizedUpdater","inputs":[{"name":"_updater","type":"address","internalType":"address"},{"name":"_isAuthorized","type":"bool","internalType":"bool"}],"outputs":[],"stateMutability":"nonpayable"},{"type":"function","name":"transferOwnership","inputs":[{"name":"newOwner","type":"address","internalType":"address"}],"outputs":[],"stateMutability":"nonpayable"},{"type":"function","name":"unpause","inputs":[],"outputs":[],"stateMutability":"nonpayable"},{"type":"function","name":"updateReputationScore","inputs":[{"name":"_user","type":"address","internalType":"address"},{"name":"_change","type":"int256","internalType":"int256"}],"outputs":[],"stateMutability":"nonpayable"},{"type":"function","name":"users","inputs":[{"name":"","type":"address","internalType":"address"}],"outputs":[{"name":"isRegistered","type":"bool","internalType":"bool"},{"name":"reputationScore","type":"uint256","internalType":"uint256"},{"name":"registeredAt","type":"uint256","internalType":"uint256"}],"stateMutability":"view"},{"type":"event","name":"AuthorizedUpdaterSet","inputs":[{"name":"updater","type":"address","indexed":true,"internalType":"address"},{"name":"isAuthorized","type":"bool","indexed":false,"internalType":"bool"}],"anonymous":false},{"type":"event","name":"OwnershipTransferred","inputs":[{"name":"previousOwner","type":"address","indexed":true,"internalType":"address"},{"name":"newOwner","type":"address","indexed":true,"internalType":"address"}],"anonymous":false},{"type":"event","name":"Paused","inputs":[{"name":"account","type":"address","indexed":false,"internalType":"address"}],"anonymous":false},{"type":"event","name":"ReputationUpdated","inputs":[{"name":"user","type":"address","indexed":true,"internalType":"address"},{"name":"newScore","type":"uint256","indexed":false,"internalType":"uint256"}],"anonymous":false},{"type":"event","name":"Unpaused","inputs":[{"name":"account","type":"address","indexed":false,"internalType":"address"}],"anonymous":false},{"type":"event","name":"UserRegistered","inputs":[{"name":"user","type":"address","indexed":true,"internalType":"address"},{"name":"initialReputationScore","type":"uint256","indexed":false,"internalType":"uint256"}],"anonymous":false},{"type":"error","name":"EnforcedPause","inputs":[]},{"type":"error","name":"ExpectedPause","inputs":[]},{"type":"error","name":"OwnableInvalidOwner","inputs":[{"name":"owner","type":"address","internalType":"address"}]},{"type":"error","name":"OwnableUnauthorizedAccount","inputs":[{"name":"account","type":"address","internalType":"address"}]},{"type":"error","name":"ReentrancyGuardReentrantCall","inputs":[]}],"bytecode":{"object":"0x60803460c857601f610ba538819003918201601f19168301916001600160401b0383118484101760cc5780849260209460405283398101031260c857516001600160a01b03811680820360c857801560b5575f8054610100600160a81b03198116600894851b610100600160a81b0316178255604051931c6001600160a01b0316907f8be0079c531659141344cd1fd0a4f28419497f9722a3daafe3b4186f6b6457e09080a360018055610ac490816100e18239f35b631e4fbdf760e01b5f525f60045260245ffd5b5f80fd5b634e487b7160e01b5f52604160045260245ffdfe60806040526004361015610011575f80fd5b5f3560e01c80633f4ba83a146108665780634d3820eb146107585780635c975abb146107375780636be2cefb146106e6578063715018a61461068b57806375a67d5c146106385780638456cb59146105e15780638da5cb5b146105b65780638ff29cfe14610365578063987ee1561461051b57806399fc65d414610449578063a87430ba146103f5578063ae9a0eb6146103a2578063b865bccc14610365578063c3c5a54714610328578063ef01822c146101715763f2fde38b146100d4575f80fd5b3461016d57602036600319011261016d576100ed6108ca565b6100f5610a4b565b6001600160a01b03811690811561015a575f8054610100600160a81b03198116600893841b610100600160a81b031617825590911c6001600160a01b0316907f8be0079c531659141344cd1fd0a4f28419497f9722a3daafe3b4186f6b6457e09080a3005b631e4fbdf760e01b5f525f60045260245ffd5b5f80fd5b3461016d57604036600319011261016d5761018a6108ca565b60243590335f52600360205260ff60405f205416801561030f575b156102be5760018060a01b031690815f5260026020526101cb60ff60405f20541661093a565b5f8281526002602052604081209190811261023957600182018054918201809211610225577ffc577563f1b9a0461e24abef1e1fcc0d33d3d881f20b5df6dda59de4aae2c82192602092600192555b0154604051908152a2005b634e487b7160e01b5f52601160045260245ffd5b600160ff1b81146102255760018201805490915f819003821161028657505060017ffc577563f1b9a0461e24abef1e1fcc0d33d3d881f20b5df6dda59de4aae2c821925f6020935561021a565b810191908211610225577ffc577563f1b9a0461e24abef1e1fcc0d33d3d881f20b5df6dda59de4aae2c821926020926001925561021a565b60405162461bcd60e51b815260206004820152602360248201527f4e6f7420617574686f72697a656420746f20757064617465207265707574617460448201526234b7b760e91b6064820152608490fd5b505f543360089190911c6001600160a01b0316146101a5565b3461016d57602036600319011261016d576001600160a01b036103496108ca565b165f526002602052602060ff60405f2054166040519015158152f35b3461016d57602036600319011261016d576001600160a01b036103866108ca565b165f526003602052602060ff60405f2054166040519015158152f35b3461016d57602036600319011261016d576001600160a01b036103c36108ca565b16805f5260026020526103dc60ff60405f20541661093a565b5f5260026020526020600260405f200154604051908152f35b3461016d57602036600319011261016d576001600160a01b036104166108ca565b165f526002602052606060405f2060ff815416906002600182015491015490604051921515835260208301526040820152f35b3461016d57604036600319011261016d576104626108ca565b602435908115159081830361016d57610479610a4b565b6001600160a01b03169182156104d6577f0b820fe6cf998498ff3199cab21fb6482c7a422cbdf4ea7e8f1d390405889985916104cd602092855f526003845260405f209060ff801983541691151516179055565b604051908152a2005b60405162461bcd60e51b815260206004820152601760248201527f496e76616c6964207570646174657220616464726573730000000000000000006044820152606490fd5b3461016d57602036600319011261016d576105346108ca565b5f604061053f6108e0565b828152826020820152015260018060a01b0316805f52600260205261056a60ff60405f20541661093a565b5f526002602052606060405f2061057f6108e0565b60ff825416151591828252604060026001830154926020850193845201549201918252604051928352516020830152516040820152f35b3461016d575f36600319011261016d575f5460405160089190911c6001600160a01b03168152602090f35b3461016d575f36600319011261016d576105f9610a4b565b610601610a74565b600160ff195f5416175f557f62e78cea01bee320cd4e420270b5ea74000d11b0c9f74754ebdbfc544b05a2586020604051338152a1005b3461016d57602036600319011261016d576001600160a01b036106596108ca565b16805f52600260205261067260ff60405f20541661093a565b5f5260026020526020600160405f200154604051908152f35b3461016d575f36600319011261016d576106a3610a4b565b5f8054610100600160a81b03198116825560081c6001600160a01b03167f8be0079c531659141344cd1fd0a4f28419497f9722a3daafe3b4186f6b6457e08280a3005b3461016d57602036600319011261016d576020604061070b6107066108ca565b61097c565b815192839181835280519182918282860152018484015e5f828201840152601f01601f19168101030190f35b3461016d575f36600319011261016d57602060ff5f54166040519015158152f35b3461016d575f36600319011261016d5760026001541461085757600260015561077f610a74565b335f52600260205260ff60405f2054166108125761079b6108e0565b60018152600260208201606481526040830190428252335f52826020526107d560405f2094511515859060ff801983541691151516179055565b51600184015551910155604051606481527fe29d35093005f4d575e1003753426b57a7f64378ba73332eef9c6ccc2b8decd660203392a260018055005b60405162461bcd60e51b815260206004820152601760248201527f5573657220616c726561647920726567697374657265640000000000000000006044820152606490fd5b633ee5aeb560e01b5f5260045ffd5b3461016d575f36600319011261016d5761087e610a4b565b5f5460ff8116156108bb5760ff19165f557f5db9ee0a495bf2e6ff9c91a7834c1ba4fdd244a5e8aa4e537bd38aeae4b073aa6020604051338152a1005b638dfc202b60e01b5f5260045ffd5b600435906001600160a01b038216820361016d57565b604051906060820182811067ffffffffffffffff82111761090057604052565b634e487b7160e01b5f52604160045260245ffd5b6040519190601f01601f1916820167ffffffffffffffff81118382101761090057604052565b1561094157565b60405162461bcd60e51b8152602060048201526013602482015272155cd95c881b9bdd081c9959da5cdd195c9959606a1b6044820152606490fd5b6001600160a01b03165f8181526002602052604090205461099f9060ff1661093a565b5f908152600260205260409020600101546101f481106109dc57506109c46040610914565b6008815267506c6174696e756d60c01b602082015290565b61012c8110610a0457506109f06040610914565b600481526311dbdb1960e21b602082015290565b606411610a2b57610a156040610914565b600681526529b4b63b32b960d11b602082015290565b610a356040610914565b600681526542726f6e7a6560d01b602082015290565b5f5460081c6001600160a01b03163303610a6157565b63118cdaa760e01b5f523360045260245ffd5b60ff5f5416610a7f57565b63d93c066560e01b5f5260045ffdfea26469706673582212203daf28b606fa186006acb9eb9e727a071ac72f2b2a6285bdd0b296d44f7b36f564736f6c634300081c0033","linkReferences":{}},"methodIdentifiers":{"authorizedUpdaters(address)":"8ff29cfe","getReputationScore(address)":"75a67d5c","getReputationTier(address)":"6be2cefb","getUserProfile(address)":"987ee156","getUserRegistrationTime(address)":"ae9a0eb6","isAuthorizedUpdater(address)":"b865bccc","isRegistered(address)":"c3c5a547","owner()":"8da5cb5b","pause()":"8456cb59","paused()":"5c975abb","registerUser()":"4d3820eb","renounceOwnership()":"715018a6","setAuthorizedUpdater(address,bool)":"99fc65d4","transferOwnership(address)":"f2fde38b","unpause()":"3f4ba83a","updateReputationScore(address,int256)":"ef01822c","users(address)":"a87430ba"},"id":57}