{"abi":[{"type":"constructor","inputs":[{"name":"_stablecoinAddress","type":"address","internalType":"address"},{"name":"_loanVaultAddress","type":"address","internalType":"address"},{"name":"_userRegistryAddress","type":"address","internalType":"address"},{"name":"initialOwner","type":"address","internalType":"address"}],"stateMutability":"nonpayable"},{"type":"function","name":"allowance","inputs":[{"name":"owner","type":"address","internalType":"address"},{"name":"spender","type":"address","internalType":"address"}],"outputs":[{"name":"","type":"uint256","internalType":"uint256"}],"stateMutability":"view"},{"type":"function","name":"approve","inputs":[{"name":"spender","type":"address","internalType":"address"},{"name":"value","type":"uint256","internalType":"uint256"}],"outputs":[{"name":"","type":"bool","internalType":"bool"}],"stateMutability":"nonpayable"},{"type":"function","name":"balanceOf","inputs":[{"name":"account","type":"address","internalType":"address"}],"outputs":[{"name":"","type":"uint256","internalType":"uint256"}],"stateMutability":"view"},{"type":"function","name":"decimals","inputs":[],"outputs":[{"name":"","type":"uint8","internalType":"uint8"}],"stateMutability":"view"},{"type":"function","name":"deposit","inputs":[{"name":"_amount","type":"uint256","internalType":"uint256"}],"outputs":[],"stateMutability":"nonpayable"},{"type":"function","name":"getExchangeRate","inputs":[],"outputs":[{"name":"","type":"uint256","internalType":"uint256"}],"stateMutability":"view"},{"type":"function","name":"getPoolStats","inputs":[],"outputs":[{"name":"totalValueLocked","type":"uint256","internalType":"uint256"},{"name":"totalShares","type":"uint256","internalType":"uint256"},{"name":"exchangeRate","type":"uint256","internalType":"uint256"},{"name":"utilization","type":"uint256","internalType":"uint256"}],"stateMutability":"view"},{"type":"function","name":"getTotalShares","inputs":[],"outputs":[{"name":"","type":"uint256","internalType":"uint256"}],"stateMutability":"view"},{"type":"function","name":"getTotalValueLocked","inputs":[],"outputs":[{"name":"","type":"uint256","internalType":"uint256"}],"stateMutability":"view"},{"type":"function","name":"getUserPosition","inputs":[{"name":"user","type":"address","internalType":"address"}],"outputs":[{"name":"shares","type":"uint256","internalType":"uint256"},{"name":"stablecoinValue","type":"uint256","internalType":"uint256"}],"stateMutability":"view"},{"type":"function","name":"getUtilizationRate","inputs":[],"outputs":[{"name":"utilization","type":"uint256","internalType":"uint256"}],"stateMutability":"view"},{"type":"function","name":"loanVaultAddress","inputs":[],"outputs":[{"name":"","type":"address","internalType":"address"}],"stateMutability":"view"},{"type":"function","name":"name","inputs":[],"outputs":[{"name":"","type":"string","internalType":"string"}],"stateMutability":"view"},{"type":"function","name":"owner","inputs":[],"outputs":[{"name":"","type":"address","internalType":"address"}],"stateMutability":"view"},{"type":"function","name":"pause","inputs":[],"outputs":[],"stateMutability":"nonpayable"},{"type":"function","name":"paused","inputs":[],"outputs":[{"name":"","type":"bool","internalType":"bool"}],"stateMutability":"view"},{"type":"function","name":"receiveRepayment","inputs":[{"name":"_borrower","type":"address","internalType":"address"},{"name":"_amount","type":"uint256","internalType":"uint256"}],"outputs":[],"stateMutability":"nonpayable"},{"type":"function","name":"renounceOwnership","inputs":[],"outputs":[],"stateMutability":"nonpayable"},{"type":"function","name":"setLoanVaultAddress","inputs":[{"name":"_loanVaultAddress","type":"address","internalType":"address"}],"outputs":[],"stateMutability":"nonpayable"},{"type":"function","name":"stablecoinAddress","inputs":[],"outputs":[{"name":"","type":"address","internalType":"address"}],"stateMutability":"view"},{"type":"function","name":"symbol","inputs":[],"outputs":[{"name":"","type":"string","internalType":"string"}],"stateMutability":"view"},{"type":"function","name":"totalSupply","inputs":[],"outputs":[{"name":"","type":"uint256","internalType":"uint256"}],"stateMutability":"view"},{"type":"function","name":"transfer","inputs":[{"name":"to","type":"address","internalType":"address"},{"name":"value","type":"uint256","internalType":"uint256"}],"outputs":[{"name":"","type":"bool","internalType":"bool"}],"stateMutability":"nonpayable"},{"type":"function","name":"transferFrom","inputs":[{"name":"from","type":"address","internalType":"address"},{"name":"to","type":"address","internalType":"address"},{"name":"value","type":"uint256","internalType":"uint256"}],"outputs":[{"name":"","type":"bool","internalType":"bool"}],"stateMutability":"nonpayable"},{"type":"function","name":"transferOwnership","inputs":[{"name":"newOwner","type":"address","internalType":"address"}],"outputs":[],"stateMutability":"nonpayable"},{"type":"function","name":"transferToBorrower","inputs":[{"name":"_to","type":"address","internalType":"address"},{"name":"_amount","type":"uint256","internalType":"uint256"}],"outputs":[{"name":"","type":"bool","internalType":"bool"}],"stateMutability":"nonpayable"},{"type":"function","name":"unpause","inputs":[],"outputs":[],"stateMutability":"nonpayable"},{"type":"function","name":"userRegistryAddress","inputs":[],"outputs":[{"name":"","type":"address","internalType":"address"}],"stateMutability":"view"},{"type":"function","name":"withdraw","inputs":[{"name":"_sharesToBurn","type":"uint256","internalType":"uint256"}],"outputs":[],"stateMutability":"nonpayable"},{"type":"event","name":"Approval","inputs":[{"name":"owner","type":"address","indexed":true,"internalType":"address"},{"name":"spender","type":"address","indexed":true,"internalType":"address"},{"name":"value","type":"uint256","indexed":false,"internalType":"uint256"}],"anonymous":false},{"type":"event","name":"Deposit","inputs":[{"name":"lender","type":"address","indexed":true,"internalType":"address"},{"name":"amount","type":"uint256","indexed":false,"internalType":"uint256"},{"name":"sharesMinted","type":"uint256","indexed":false,"internalType":"uint256"}],"anonymous":false},{"type":"event","name":"LoanFunded","inputs":[{"name":"borrower","type":"address","indexed":true,"internalType":"address"},{"name":"amount","type":"uint256","indexed":false,"internalType":"uint256"}],"anonymous":false},{"type":"event","name":"OwnershipTransferred","inputs":[{"name":"previousOwner","type":"address","indexed":true,"internalType":"address"},{"name":"newOwner","type":"address","indexed":true,"internalType":"address"}],"anonymous":false},{"type":"event","name":"Paused","inputs":[{"name":"account","type":"address","indexed":false,"internalType":"address"}],"anonymous":false},{"type":"event","name":"RepaymentReceived","inputs":[{"name":"borrower","type":"address","indexed":true,"internalType":"address"},{"name":"amount","type":"uint256","indexed":false,"internalType":"uint256"}],"anonymous":false},{"type":"event","name":"Transfer","inputs":[{"name":"from","type":"address","indexed":true,"internalType":"address"},{"name":"to","type":"address","indexed":true,"internalType":"address"},{"name":"value","type":"uint256","indexed":false,"internalType":"uint256"}],"anonymous":false},{"type":"event","name":"Unpaused","inputs":[{"name":"account","type":"address","indexed":false,"internalType":"address"}],"anonymous":false},{"type":"event","name":"Withdrawal","inputs":[{"name":"lender","type":"address","indexed":true,"internalType":"address"},{"name":"amount","type":"uint256","indexed":false,"internalType":"uint256"},{"name":"sharesBurned","type":"uint256","indexed":false,"internalType":"uint256"}],"anonymous":false},{"type":"error","name":"ERC20InsufficientAllowance","inputs":[{"name":"spender","type":"address","internalType":"address"},{"name":"allowance","type":"uint256","internalType":"uint256"},{"name":"needed","type":"uint256","internalType":"uint256"}]},{"type":"error","name":"ERC20InsufficientBalance","inputs":[{"name":"sender","type":"address","internalType":"address"},{"name":"balance","type":"uint256","internalType":"uint256"},{"name":"needed","type":"uint256","internalType":"uint256"}]},{"type":"error","name":"ERC20InvalidApprover","inputs":[{"name":"approver","type":"address","internalType":"address"}]},{"type":"error","name":"ERC20InvalidReceiver","inputs":[{"name":"receiver","type":"address","internalType":"address"}]},{"type":"error","name":"ERC20InvalidSender","inputs":[{"name":"sender","type":"address","internalType":"address"}]},{"type":"error","name":"ERC20InvalidSpender","inputs":[{"name":"spender","type":"address","internalType":"address"}]},{"type":"error","name":"EnforcedPause","inputs":[]},{"type":"error","name":"ExpectedPause","inputs":[]},{"type":"error","name":"OwnableInvalidOwner","inputs":[{"name":"owner","type":"address","internalType":"address"}]},{"type":"error","name":"OwnableUnauthorizedAccount","inputs":[{"name":"account","type":"address","internalType":"address"}]},{"type":"error","name":"ReentrancyGuardReentrantCall","inputs":[]}],"bytecode":{"object":"0x60c06040523461044657611a146080813803918261001c8161044a565b938492833981010312610446576100328161046f565b9061003f6020820161046f565b61005760606100506040850161046f565b930161046f565b610061604061044a565b600c81526b23b2b6a632b7322a37b5b2b760a11b6020820152610084604061044a565b600581526419d311539160da1b6020820152815190916001600160401b0382116103495760035490600182811c9216801561043c575b602083101461032b5781601f8493116103ce575b50602090601f8311600114610368575f9261035d575b50508160011b915f199060031b1c1916176003555b8051906001600160401b0382116103495760045490600182811c9216801561033f575b602083101461032b5781601f8493116102bd575b50602090601f8311600114610257575f9261024c575b50508160011b915f199060031b1c1916176004555b6001600160a01b031692831561023957600580546001600160a01b03198116861790915560405194906001600160a01b03167f8be0079c531659141344cd1fd0a4f28419497f9722a3daafe3b4186f6b6457e05f80a36001600655608052600780546001600160a01b0319166001600160a01b039290921691909117905560a0526115909081610484823960805181818161033a015281816104d0015281816106bc015281816108fb01528181610a8501528181610ce201528181610ef70152818161131c01526113af015260a0518181816104240152610bcb0152f35b631e4fbdf760e01b5f525f60045260245ffd5b015190505f80610146565b60045f9081528281209350601f198516905b8181106102a5575090846001959493921061028d575b505050811b0160045561015b565b01515f1960f88460031b161c191690555f808061027f565b92936020600181928786015181550195019301610269565b60045f529091507f8a35acfbc15ff81a39ae7d344fd709f28e8600b4aa8c65c6b64bfe7fe36bd19b601f840160051c81019160208510610321575b90601f859493920160051c01905b8181106103135750610130565b5f8155849350600101610306565b90915081906102f8565b634e487b7160e01b5f52602260045260245ffd5b91607f169161011c565b634e487b7160e01b5f52604160045260245ffd5b015190505f806100e4565b60035f9081528281209350601f198516905b8181106103b6575090846001959493921061039e575b505050811b016003556100f9565b01515f1960f88460031b161c191690555f8080610390565b9293602060018192878601518155019501930161037a565b60035f529091507fc2575a0e9e593c00f959f8c92f12db2869c3395a3b0502d05e2516446f71f85b601f840160051c81019160208510610432575b90601f859493920160051c01905b81811061042457506100ce565b5f8155849350600101610417565b9091508190610409565b91607f16916100ba565b5f80fd5b6040519190601f01601f191682016001600160401b0381118382101761034957604052565b51906001600160a01b03821682036104465756fe6080806040526004361015610012575f80fd5b5f905f3560e01c90816306fdde03146110dd57508063095ea7b31461105b5780631136758d14610eb557806315b0f88914610e8d57806318160ddd14610e7057806323b872dd14610d915780632e1a7d4d14610c15578063313ce56714610bfa5780633f39eaa114610bb65780633f4ba83a14610b485780634a417a5314610b2e5780635b7c2dad14610ad95780635c975abb14610ab4578063615737ef14610a7057806370a0823114610a39578063715018a6146109de5780638456cb591461097d578063851a77061461088e5780638da5cb5b1461086657806395d89b4114610762578063a9059cbb14610731578063b26025aa14610691578063b6b55f25146103de578063bbb851881461030d578063d0de77211461027c578063d5002f2e1461025e578063dd62ed3e1461020b578063e6aa216c146101e85763f2fde38b1461015d575f80fd5b346101e55760203660031901126101e5576101766111bf565b61017e611533565b6001600160a01b031680156101d157600580546001600160a01b0319811683179091556001600160a01b03167f8be0079c531659141344cd1fd0a4f28419497f9722a3daafe3b4186f6b6457e08380a380f35b631e4fbdf760e01b82526004829052602482fd5b80fd5b50346101e557806003193601126101e5576020610203611394565b604051908152f35b50346101e55760403660031901126101e55760406102276111bf565b916102306111d5565b9260018060a01b031681526001602052209060018060a01b03165f52602052602060405f2054604051908152f35b50346101e557806003193601126101e5576020600254604051908152f35b50346101e55760203660031901126101e5576102966111bf565b61029e611533565b6001600160a01b031680156102c8576bffffffffffffffffffffffff60a01b600754161760075580f35b60405162461bcd60e51b815260206004820152601a60248201527f496e76616c6964206c6f616e207661756c7420616464726573730000000000006044820152606490fd5b50346101e557806003193601126101e5576040516370a0823160e01b8152306004820152906020826024817f00000000000000000000000000000000000000000000000000000000000000006001600160a01b03165afa9081156103d2578091610399575b60809250600254610381611394565b90604051938452602084015260408301526060820152f35b90506020823d6020116103ca575b816103b4602093836111eb565b810103126103c6576080915190610372565b5f80fd5b3d91506103a7565b604051903d90823e3d90fd5b50346103c65760203660031901126103c6576004356103fb6114f5565b610403611515565b801561040f81156112a3565b60405163c3c5a54760e01b81523360048201527f00000000000000000000000000000000000000000000000000000000000000006001600160a01b03169190602081602481865afa9081156105d8575f91610672575b501561063757670de0b6b3a7640000830290838204670de0b6b3a76400001417156105e35761049c90610496611394565b9061126d565b6040516323b872dd60e01b8152336004820152306024820152604481018490529091906020816064815f6001600160a01b037f0000000000000000000000000000000000000000000000000000000000000000165af180156105d85761060a575b5033156105f7576002548281018091116105e357600255335f525f60205260405f208281540190556040518281525f7fddf252ad1be2c89b69c2b068fc378daa952ba7f163c4a11628f55a4df523b3ef60203393a3803b156103c6575f8091604460405180948193633bc0608b60e21b8352336004840152600560248401525af180156105d8576105c3575b5060405191825260208201527f90890809c654f11d6e72a28fa60149770a0d11ec6c92319d6ceb2bb0a4ea1a1560403392a2600160065580f35b6105d09193505f906111eb565b5f915f610589565b6040513d5f823e3d90fd5b634e487b7160e01b5f52601160045260245ffd5b63ec442f0560e01b5f525f60045260245ffd5b61062b9060203d602011610630575b61062381836111eb565b81019061128b565b6104fd565b503d610619565b60405162461bcd60e51b8152602060048201526013602482015272155cd95c881b9bdd081c9959da5cdd195c9959606a1b6044820152606490fd5b61068b915060203d6020116106305761062381836111eb565b5f610465565b346103c6575f3660031901126103c6576040516370a0823160e01b81523060048201526020816024817f00000000000000000000000000000000000000000000000000000000000000006001600160a01b03165afa80156105d8575f906106fe575b602090604051908152f35b506020813d602011610729575b81610718602093836111eb565b810103126103c657602090516106f3565b3d915061070b565b346103c65760403660031901126103c65761075761074d6111bf565b602435903361145e565b602060405160018152f35b346103c6575f3660031901126103c6576040515f6004548060011c9060018116801561085c575b6020831081146108485782855290811561082457506001146107c6575b6107c2836107b6818503826111eb565b60405191829182611195565b0390f35b91905060045f527f8a35acfbc15ff81a39ae7d344fd709f28e8600b4aa8c65c6b64bfe7fe36bd19b915f905b80821061080a575090915081016020016107b66107a6565b9192600181602092548385880101520191019092916107f2565b60ff191660208086019190915291151560051b840190910191506107b690506107a6565b634e487b7160e01b5f52602260045260245ffd5b91607f1691610789565b346103c6575f3660031901126103c6576005546040516001600160a01b039091168152602090f35b346103c65760403660031901126103c6576108a76111bf565b6108bc60018060a01b03600754163314611221565b6040516323b872dd60e01b81523360048201523060248083019190915264e8d4a5100090350460448201819052916020826064815f6001600160a01b037f0000000000000000000000000000000000000000000000000000000000000000165af19081156105d8577f98c4052bf152f27c1f28f1a5cfb4e4241fb491174d47ee4af9672cc5abda83ed92602092610962575b506040519384526001600160a01b031692a2005b61097890833d85116106305761062381836111eb565b61094e565b346103c6575f3660031901126103c657610995611533565b61099d611515565b6005805460ff60a01b1916600160a01b1790556040513381527f62e78cea01bee320cd4e420270b5ea74000d11b0c9f74754ebdbfc544b05a25890602090a1005b346103c6575f3660031901126103c6576109f6611533565b600580546001600160a01b031981169091555f906001600160a01b03167f8be0079c531659141344cd1fd0a4f28419497f9722a3daafe3b4186f6b6457e08280a3005b346103c65760203660031901126103c6576001600160a01b03610a5a6111bf565b165f525f602052602060405f2054604051908152f35b346103c6575f3660031901126103c6576040517f00000000000000000000000000000000000000000000000000000000000000006001600160a01b03168152602090f35b346103c6575f3660031901126103c657602060ff60055460a01c166040519015158152f35b346103c65760203660031901126103c6576001600160a01b03610afa6111bf565b165f525f6020526040805f2054670de0b6b3a7640000610b21610b1b611394565b836112ee565b0482519182526020820152f35b346103c6575f3660031901126103c6576020610203611301565b346103c6575f3660031901126103c657610b60611533565b60055460ff8160a01c1615610ba75760ff60a01b19166005556040513381527f5db9ee0a495bf2e6ff9c91a7834c1ba4fdd244a5e8aa4e537bd38aeae4b073aa90602090a1005b638dfc202b60e01b5f5260045ffd5b346103c6575f3660031901126103c6576040517f00000000000000000000000000000000000000000000000000000000000000006001600160a01b03168152602090f35b346103c6575f3660031901126103c657602060405160128152f35b346103c65760203660031901126103c657600435610c316114f5565b610c39611515565b610c448115156112a3565b670de0b6b3a7640000610c58610b1b611394565b04903315610d7e57335f525f60205260405f2054818110610d65578190335f525f6020520360405f205580600254036002555f6040518281527fddf252ad1be2c89b69c2b068fc378daa952ba7f163c4a11628f55a4df523b3ef60203392a360405163a9059cbb60e01b8152336004820152602481018390526020816044815f6001600160a01b037f0000000000000000000000000000000000000000000000000000000000000000165af180156105d857610d48575b5060405191825260208201527fdf273cb619d95419a9cd0ec88123a0538c85064229baa6363788f743fff90deb60403392a26001600655005b610d609060203d6020116106305761062381836111eb565b610d0f565b63391434e360e21b5f523360045260245260445260645ffd5b634b637e8f60e11b5f525f60045260245ffd5b346103c65760603660031901126103c657610daa6111bf565b610db26111d5565b6001600160a01b0382165f818152600160209081526040808320338452909152902054909260443592915f198110610df0575b50610757935061145e565b838110610e55578415610e42573315610e2f57610757945f52600160205260405f2060018060a01b0333165f526020528360405f209103905584610de5565b634a1406b160e11b5f525f60045260245ffd5b63e602df0560e01b5f525f60045260245ffd5b8390637dc7a0d960e11b5f523360045260245260445260645ffd5b346103c6575f3660031901126103c6576020600254604051908152f35b346103c6575f3660031901126103c6576007546040516001600160a01b039091168152602090f35b346103c65760403660031901126103c657610ece6111bf565b610ee360018060a01b03600754163314611221565b64e8d4a51000602435049060018060a01b037f000000000000000000000000000000000000000000000000000000000000000016906040516370a0823160e01b8152306004820152602081602481865afa9081156105d8575f91611029575b508311610fe45760405163a9059cbb60e01b81526001600160a01b03821660048201526024810184905291602090839060449082905f905af19081156105d8577f726d5f1a838fe31748f737fa3ae5539ccff95952adfc593a1299532b643ff7a892602092610fc9575b506040519384526001600160a01b031692a2602060405160018152f35b610fdf90833d85116106305761062381836111eb565b610fac565b60405162461bcd60e51b815260206004820152601b60248201527f496e73756666696369656e7420706f6f6c206c697175696469747900000000006044820152606490fd5b90506020813d602011611053575b81611044602093836111eb565b810103126103c6575184610f42565b3d9150611037565b346103c65760403660031901126103c6576110746111bf565b602435903315610e42576001600160a01b0316908115610e2f57335f52600160205260405f20825f526020528060405f20556040519081527f8c5be1e5ebec7d5bd14f71427d1e84f3dd0314c0f7b2291e5b200ac8c7c3b92560203392a3602060405160018152f35b346103c6575f3660031901126103c6575f6003548060011c9060018116801561118b575b60208310811461084857828552908115610824575060011461112d576107c2836107b6818503826111eb565b91905060035f527fc2575a0e9e593c00f959f8c92f12db2869c3395a3b0502d05e2516446f71f85b915f905b808210611171575090915081016020016107b66107a6565b919260018160209254838588010152019101909291611159565b91607f1691611101565b602060409281835280519182918282860152018484015e5f828201840152601f01601f1916010190565b600435906001600160a01b03821682036103c657565b602435906001600160a01b03821682036103c657565b90601f8019910116810190811067ffffffffffffffff82111761120d57604052565b634e487b7160e01b5f52604160045260245ffd5b1561122857565b60405162461bcd60e51b815260206004820152601b60248201527f43616c6c6572206973206e6f7420746865204c6f616e5661756c7400000000006044820152606490fd5b8115611277570490565b634e487b7160e01b5f52601260045260245ffd5b908160209103126103c6575180151581036103c65790565b156112aa57565b606460405162461bcd60e51b815260206004820152602060248201527f416d6f756e74206d7573742062652067726561746572207468616e207a65726f6044820152fd5b818102929181159184041417156105e357565b6040516370a0823160e01b81523060048201526020816024817f00000000000000000000000000000000000000000000000000000000000000006001600160a01b03165afa9081156105d8575f91611362575b501561135e575f90565b5f90565b90506020813d60201161138c575b8161137d602093836111eb565b810103126103c657515f611354565b3d9150611370565b6040516370a0823160e01b81523060048201526020816024817f00000000000000000000000000000000000000000000000000000000000000006001600160a01b03165afa9081156105d8575f9161142c575b50600254801561141e57670de0b6b3a7640000820291808304670de0b6b3a764000014901517156105e35761141b9161126d565b90565b5050670de0b6b3a764000090565b90506020813d602011611456575b81611447602093836111eb565b810103126103c657515f6113e7565b3d915061143a565b6001600160a01b0316908115610d7e576001600160a01b03169182156105f757815f525f60205260405f20548181106114dc57817fddf252ad1be2c89b69c2b068fc378daa952ba7f163c4a11628f55a4df523b3ef92602092855f525f84520360405f2055845f525f825260405f20818154019055604051908152a3565b8263391434e360e21b5f5260045260245260445260645ffd5b600260065414611506576002600655565b633ee5aeb560e01b5f5260045ffd5b60ff60055460a01c1661152457565b63d93c066560e01b5f5260045ffd5b6005546001600160a01b0316330361154757565b63118cdaa760e01b5f523360045260245ffdfea2646970667358221220445746ce2876bf1a3a180726bb52d2831ea4aa513e3d8fe88352495a7e69273864736f6c634300081c0033","linkReferences":{}},"methodIdentifiers":{"allowance(address,address)":"dd62ed3e","approve(address,uint256)":"095ea7b3","balanceOf(address)":"70a08231","decimals()":"313ce567","deposit(uint256)":"b6b55f25","getExchangeRate()":"e6aa216c","getPoolStats()":"bbb85188","getTotalShares()":"d5002f2e","getTotalValueLocked()":"b26025aa","getUserPosition(address)":"5b7c2dad","getUtilizationRate()":"4a417a53","loanVaultAddress()":"15b0f889","name()":"06fdde03","owner()":"8da5cb5b","pause()":"8456cb59","paused()":"5c975abb","receiveRepayment(address,uint256)":"851a7706","renounceOwnership()":"715018a6","setLoanVaultAddress(address)":"d0de7721","stablecoinAddress()":"615737ef","symbol()":"95d89b41","totalSupply()":"18160ddd","transfer(address,uint256)":"a9059cbb","transferFrom(address,address,uint256)":"23b872dd","transferOwnership(address)":"f2fde38b","transferToBorrower(address,uint256)":"1136758d","unpause()":"3f4ba83a","userRegistryAddress()":"3f39eaa1","withdraw(uint256)":"2e1a7d4d"},"id":50}