{"abi":[{"type":"constructor","inputs":[{"name":"_gemLoanVaultAddress","type":"address","internalType":"address"},{"name":"_collateralOracleAddress","type":"address","internalType":"address"},{"name":"_rwaGemNftAddress","type":"address","internalType":"address"},{"name":"_stablecoinAddress","type":"address","internalType":"address"},{"name":"_userRegistryAddress","type":"address","internalType":"address"},{"name":"initialOwner","type":"address","internalType":"address"}],"stateMutability":"nonpayable"},{"type":"function","name":"HEALTH_CHECK_INTERVAL","inputs":[],"outputs":[{"name":"","type":"uint256","internalType":"uint256"}],"stateMutability":"view"},{"type":"function","name":"activeOfferIds","inputs":[{"name":"","type":"uint256","internalType":"uint256"}],"outputs":[{"name":"","type":"uint256","internalType":"uint256"}],"stateMutability":"view"},{"type":"function","name":"cleanupExpiredOffers","inputs":[{"name":"maxOffers","type":"uint256","internalType":"uint256"}],"outputs":[],"stateMutability":"nonpayable"},{"type":"function","name":"collateralOracleAddress","inputs":[],"outputs":[{"name":"","type":"address","internalType":"address"}],"stateMutability":"view"},{"type":"function","name":"createLiquidationOffer","inputs":[{"name":"loanId","type":"uint256","internalType":"uint256"}],"outputs":[],"stateMutability":"nonpayable"},{"type":"function","name":"executeLiquidation","inputs":[{"name":"loanId","type":"uint256","internalType":"uint256"}],"outputs":[],"stateMutability":"nonpayable"},{"type":"function","name":"gemLoanVaultAddress","inputs":[],"outputs":[{"name":"","type":"address","internalType":"address"}],"stateMutability":"view"},{"type":"function","name":"getActiveOffers","inputs":[],"outputs":[{"name":"","type":"uint256[]","internalType":"uint256[]"}],"stateMutability":"view"},{"type":"function","name":"getAllOffersWithStatus","inputs":[],"outputs":[{"name":"loanIds","type":"uint256[]","internalType":"uint256[]"},{"name":"offers","type":"tuple[]","internalType":"struct GemLiquidationManager.LiquidationOffer[]","components":[{"name":"loanId","type":"uint256","internalType":"uint256"},{"name":"collateralId","type":"uint256","internalType":"uint256"},{"name":"repaymentAmount","type":"uint256","internalType":"uint256"},{"name":"collateralValue","type":"uint256","internalType":"uint256"},{"name":"discount","type":"uint256","internalType":"uint256"},{"name":"expiryTime","type":"uint256","internalType":"uint256"},{"name":"isActive","type":"bool","internalType":"bool"}]},{"name":"statuses","type":"string[]","internalType":"string[]"}],"stateMutability":"view"},{"type":"function","name":"getFilteredLiquidationOpportunities","inputs":[{"name":"maxDiscount","type":"uint256","internalType":"uint256"},{"name":"minCollateralValue","type":"uint256","internalType":"uint256"}],"outputs":[{"name":"filteredOffers","type":"uint256[]","internalType":"uint256[]"}],"stateMutability":"view"},{"type":"function","name":"getLiquidationConfig","inputs":[],"outputs":[{"name":"healthCheckInterval","type":"uint256","internalType":"uint256"},{"name":"lastHealthCheck","type":"uint256","internalType":"uint256"},{"name":"canTriggerHealthCheck","type":"bool","internalType":"bool"}],"stateMutability":"view"},{"type":"function","name":"getLiquidationOfferDetails","inputs":[{"name":"loanId","type":"uint256","internalType":"uint256"}],"outputs":[{"name":"offer","type":"tuple","internalType":"struct GemLiquidationManager.LiquidationOffer","components":[{"name":"loanId","type":"uint256","internalType":"uint256"},{"name":"collateralId","type":"uint256","internalType":"uint256"},{"name":"repaymentAmount","type":"uint256","internalType":"uint256"},{"name":"collateralValue","type":"uint256","internalType":"uint256"},{"name":"discount","type":"uint256","internalType":"uint256"},{"name":"expiryTime","type":"uint256","internalType":"uint256"},{"name":"isActive","type":"bool","internalType":"bool"}]},{"name":"timeRemaining","type":"uint256","internalType":"uint256"},{"name":"discountedPrice","type":"uint256","internalType":"uint256"},{"name":"isExpired","type":"bool","internalType":"bool"}],"stateMutability":"view"},{"type":"function","name":"getLiquidationStats","inputs":[],"outputs":[{"name":"totalOffers","type":"uint256","internalType":"uint256"},{"name":"activeOffers","type":"uint256","internalType":"uint256"},{"name":"totalLiquidated","type":"uint256","internalType":"uint256"},{"name":"averageDiscount","type":"uint256","internalType":"uint256"}],"stateMutability":"view"},{"type":"function","name":"getOfferDetails","inputs":[{"name":"loanId","type":"uint256","internalType":"uint256"}],"outputs":[{"name":"","type":"tuple","internalType":"struct GemLiquidationManager.LiquidationOffer","components":[{"name":"loanId","type":"uint256","internalType":"uint256"},{"name":"collateralId","type":"uint256","internalType":"uint256"},{"name":"repaymentAmount","type":"uint256","internalType":"uint256"},{"name":"collateralValue","type":"uint256","internalType":"uint256"},{"name":"discount","type":"uint256","internalType":"uint256"},{"name":"expiryTime","type":"uint256","internalType":"uint256"},{"name":"isActive","type":"bool","internalType":"bool"}]}],"stateMutability":"view"},{"type":"function","name":"lastGlobalHealthCheck","inputs":[],"outputs":[{"name":"","type":"uint256","internalType":"uint256"}],"stateMutability":"view"},{"type":"function","name":"liquidationOffers","inputs":[{"name":"","type":"uint256","internalType":"uint256"}],"outputs":[{"name":"loanId","type":"uint256","internalType":"uint256"},{"name":"collateralId","type":"uint256","internalType":"uint256"},{"name":"repaymentAmount","type":"uint256","internalType":"uint256"},{"name":"collateralValue","type":"uint256","internalType":"uint256"},{"name":"discount","type":"uint256","internalType":"uint256"},{"name":"expiryTime","type":"uint256","internalType":"uint256"},{"name":"isActive","type":"bool","internalType":"bool"}],"stateMutability":"view"},{"type":"function","name":"owner","inputs":[],"outputs":[{"name":"","type":"address","internalType":"address"}],"stateMutability":"view"},{"type":"function","name":"renounceOwnership","inputs":[],"outputs":[],"stateMutability":"nonpayable"},{"type":"function","name":"rwaGemNftAddress","inputs":[],"outputs":[{"name":"","type":"address","internalType":"address"}],"stateMutability":"view"},{"type":"function","name":"stablecoinAddress","inputs":[],"outputs":[{"name":"","type":"address","internalType":"address"}],"stateMutability":"view"},{"type":"function","name":"transferOwnership","inputs":[{"name":"newOwner","type":"address","internalType":"address"}],"outputs":[],"stateMutability":"nonpayable"},{"type":"function","name":"triggerGlobalHealthCheck","inputs":[{"name":"maxLoans","type":"uint256","internalType":"uint256"}],"outputs":[{"name":"loansChecked","type":"uint256","internalType":"uint256"}],"stateMutability":"nonpayable"},{"type":"function","name":"userRegistryAddress","inputs":[],"outputs":[{"name":"","type":"address","internalType":"address"}],"stateMutability":"view"},{"type":"event","name":"GlobalHealthCheckTriggered","inputs":[{"name":"timestamp","type":"uint256","indexed":false,"internalType":"uint256"},{"name":"loansChecked","type":"uint256","indexed":false,"internalType":"uint256"}],"anonymous":false},{"type":"event","name":"LiquidationDiscountUpdated","inputs":[{"name":"newDiscount","type":"uint256","indexed":false,"internalType":"uint256"}],"anonymous":false},{"type":"event","name":"LiquidationExecuted","inputs":[{"name":"loanId","type":"uint256","indexed":true,"internalType":"uint256"},{"name":"liquidator","type":"address","indexed":true,"internalType":"address"},{"name":"repaymentAmount","type":"uint256","indexed":false,"internalType":"uint256"}],"anonymous":false},{"type":"event","name":"LiquidationOfferCreated","inputs":[{"name":"loanId","type":"uint256","indexed":true,"internalType":"uint256"},{"name":"collateralId","type":"uint256","indexed":true,"internalType":"uint256"},{"name":"repaymentAmount","type":"uint256","indexed":false,"internalType":"uint256"},{"name":"collateralValue","type":"uint256","indexed":false,"internalType":"uint256"},{"name":"discount","type":"uint256","indexed":false,"internalType":"uint256"}],"anonymous":false},{"type":"event","name":"LiquidationOfferExpired","inputs":[{"name":"loanId","type":"uint256","indexed":true,"internalType":"uint256"}],"anonymous":false},{"type":"event","name":"OwnershipTransferred","inputs":[{"name":"previousOwner","type":"address","indexed":true,"internalType":"address"},{"name":"newOwner","type":"address","indexed":true,"internalType":"address"}],"anonymous":false},{"type":"error","name":"OwnableInvalidOwner","inputs":[{"name":"owner","type":"address","internalType":"address"}]},{"type":"error","name":"OwnableUnauthorizedAccount","inputs":[{"name":"account","type":"address","internalType":"address"}]},{"type":"error","name":"ReentrancyGuardReentrantCall","inputs":[]}],"bytecode":{"object":"0x6101203461017557601f611d9238819003918201601f19168301916001600160401b038311848410176101795780849260c094604052833981010312610175576100488161018d565b906100556020820161018d565b6100616040830161018d565b61006d6060840161018d565b9161007a6080850161018d565b936001600160a01b03906100909060a00161018d565b16948515610162575f80546001600160a01b031981168817825560405197916001600160a01b03909116907f8be0079c531659141344cd1fd0a4f28419497f9722a3daafe3b4186f6b6457e09080a36001805560805260a05260c05260e0526101005242600255611bf090816101a28239608051818181610279015281816107a8015281816110e401526114a8015260a0518181816101bb0152818161031d0152610819015260c0518161165c015260e0518181816110800152611464015261010051818181610ff001526115cb0152f35b631e4fbdf760e01b5f525f60045260245ffd5b5f80fd5b634e487b7160e01b5f52604160045260245ffd5b51906001600160a01b03821682036101755756fe60806040526004361015610011575f80fd5b5f5f3560e01c8063110b24a5146117c55780632014b71c1461168b578063253323f114611647578063288c83fc1461162a5780633a123cee146115fa5780633f39eaa1146115b6578063432ee802146115995780634fb64be21461150f57806354f2bbd6146114d75780635e50345614611493578063615737ef1461144f578063715018a6146113f8578063777a9c1714610f975780637d02b3d014610c885780637df2b19314610b8c5780637e5b80d314610b1b5780637ff118ef14610a8e5780638da5cb5b14610a675780639a3d4a121461076d5780639cd360f51461023c578063e0fd5c5c146101ea578063e565073c146101a55763f2fde38b14610117575f80fd5b346101a25760203660031901126101a2576004356001600160a01b038116908190036101a057610145611b74565b801561018c5781546001600160a01b03198116821783556001600160a01b03167f8be0079c531659141344cd1fd0a4f28419497f9722a3daafe3b4186f6b6457e08380a380f35b631e4fbdf760e01b82526004829052602482fd5b505b80fd5b50346101a257806003193601126101a2576040517f00000000000000000000000000000000000000000000000000000000000000006001600160a01b03168152602090f35b50346101a257806003193601126101a25760025462015180810180821161022857606092506040519162015180835260208301524210156040820152f35b634e487b7160e01b83526011600452602483fd5b50346101a25760203660031901126101a25760043590806002546201518081018091116107595742106107145760405163519af10360e01b8152927f00000000000000000000000000000000000000000000000000000000000000006001600160a01b031691908185600481865afa94851561070957829561066a575b5084519081610300575b602085426002557f40c528f3528a904f0597511b59f4a6899184d681e0b9413cfa2e9d03d337a0dd604080514281528385820152a1604051908152f35b92935090918082101561065f5750919290925b8360018060a01b037f00000000000000000000000000000000000000000000000000000000000000001662093a804201804211965b86811061036257505050505050602091505f8080806102c3565b61036c8187611b0a565b51610375611b9a565b604051631c3d878d60e31b81526004810182905290610100826024818a5afa801561065457869287918889928a926105d2575b501591826105c9575b50816105c1575b5015610571576040516382fee08f60e01b8152600481018490526020816024818b8b5af1908115610566578891610531575b5081605f810204605f148215171561051d578b61051d5761048960405161041081611a60565b84815260068a896020840189815260408501888152606086019088825260808701926005845260a08801948552604060c0890196600188528d81526003602052209751885551600188015551600287015551600386015551600485015551600584015551151591019060ff801983541691151516179055565b600454600160401b8110156105095783927f0cab95bd0f7a4388cc70933db0c2d695d70ba380c5578df46a77128fc96757e8926104ed60019897966104d5858b60609701600455611a34565b90919082549060031b91821b915f19901b1916179055565b604051918252602082015260056040820152a381805501610348565b634e487b7160e01b89526041600452602489fd5b634e487b7160e01b88526011600452602488fd5b90506020813d821161055e575b8161054b60209383611a90565b8101031261055a57515f6103ea565b8780fd5b3d915061053e565b6040513d8a823e3d90fd5b60405162461bcd60e51b815260206004820152602260248201527f4c6f616e206e6f7420617661696c61626c6520666f72206c697175696461746960448201526137b760f11b6064820152608490fd5b90505f6103b8565b1591505f6103b1565b955050505050610100823d821161064c575b816105f26101009383611a90565b810103126106485781516001600160a01b038116036106485760408201519160608101519261062360a08301611b54565b9161063c60e061063560c08401611b54565b9201611b54565b9194929091905f6103a8565b8580fd5b3d91506105e4565b6040513d88823e3d90fd5b905091929092610313565b9094503d8083833e61067c8183611a90565b8101906020818303126107015780519067ffffffffffffffff821161070557019080601f830112156107015781516106b381611ac0565b926106c16040519485611a90565b81845260208085019260051b8201019283116106fd57602001905b8282106106ed57505050935f6102b9565b81518152602091820191016106dc565b8480fd5b8280fd5b8380fd5b6040513d84823e3d90fd5b60405162461bcd60e51b815260206004820152601960248201527f546f6f20736f6f6e20666f7220676c6f62616c20636865636b000000000000006044820152606490fd5b634e487b7160e01b82526011600452602482fd5b50346101a25760203660031901126101a25760043561078a611b9a565b604051631c3d878d60e31b81526004810182905290610100826024817f00000000000000000000000000000000000000000000000000000000000000006001600160a01b03165afa8015610a5c578392849185869287926109e5575b501591826109dc575b50816109d4575b5015610571576040516382fee08f60e01b815260048101849052602081602481887f00000000000000000000000000000000000000000000000000000000000000006001600160a01b03165af19081156109c9578591610997575b5081605f810204605f14821517156109835762093a80420180421161096f576108f9906006876040519261088484611a60565b8784526020840189815260408501888152606086019088825260808701926005845260a08801948552604060c0890196600188528d81526003602052209751885551600188015551600287015551600386015551600485015551600584015551151591019060ff801983541691151516179055565b600454600160401b81101561095b5791606091610941856104d58660017f0cab95bd0f7a4388cc70933db0c2d695d70ba380c5578df46a77128fc96757e89801600455611a34565b604051918252602082015260056040820152a36001805580f35b634e487b7160e01b86526041600452602486fd5b634e487b7160e01b86526011600452602486fd5b634e487b7160e01b85526011600452602485fd5b90506020813d6020116109c1575b816109b260209383611a90565b810103126106fd57515f610851565b3d91506109a5565b6040513d87823e3d90fd5b90505f6107f6565b1591505f6107ef565b955050505050610100823d8211610a54575b81610a056101009383611a90565b810103126107015781516001600160a01b0381160361070157604082015191606081015192610a3660a08301611b54565b91610a4860e061063560c08401611b54565b9194929091905f6107e6565b3d91506109f7565b6040513d85823e3d90fd5b50346101a257806003193601126101a257546040516001600160a01b039091168152602090f35b50346101a257806003193601126101a25760405180916020600454928381520191600482527f8a35acfbc15ff81a39ae7d344fd709f28e8600b4aa8c65c6b64bfe7fe36bd19b915b818110610b0557610b0185610aed81870382611a90565b6040519182916020835260208301906119be565b0390f35b8254845260209093019260019283019201610ad6565b50346101a25760203660031901126101a257604060e09160043581526003602052208054906001810154906002810154600382015460048301549160ff600660058601549501541694604051968752602087015260408601526060850152608084015260a0830152151560c0820152f35b50346101a25760203660031901126101a257610ba6611b1e565b50600435815260036020526040812060405190610bc282611a60565b805482526001810154602083015260028101549060408301918252600381015460608401526004810154906080840191825260ff60066005830154928360a0880152015416151560c0850152804210155f14610c76575083906001925b5190516064039460648611610c625750610c3e61014095606492611b61565b0490610c4d60405180956119f1565b60e08401526101008301521515610120820152f35b634e487b7160e01b81526011600452602490fd5b42810390811161098357908492610c1f565b50346101a257806003193601126101a257600454610ca581611ad8565b90610caf81611ac0565b92610cbd6040519485611a90565b818452601f19610ccc83611ac0565b01815b818110610f78575050610ce182611ac0565b91610cef6040519384611a90565b808352601f19610cfe82611ac0565b01825b818110610f65575050815b818110610ded575050610d2d936040519485946060865260608601906119be565b848103602086015260208083519283815201920190835b818110610dc7575050508381036040850152825190818152602081016020808460051b84010195019380925b848410610d7d5787870388f35b919395600191939597506020808092601f19868203018852818b518051918291828552018484015e87838284010152601f8019910116010198019401940191879695939491610d70565b9194955091602060e082610dde60019489516119f1565b01950191019186959492610d44565b80610dfd60019297959697611a34565b90549060031b1c610e0e8289611b0a565b52610e1881611a34565b90549060031b1c845260036020526040842060ff600660405192610e3b84611a60565b80548452858101546020850152600281015460408501526003810154606085015260048101546080850152600581015460a0850152015416151560c0820152610e848287611b0a565b52610e8f8186611b0a565b5060c0610e9c8287611b0a565b510151610ee757604051610eb1604082611a90565b6008815267496e61637469766560c01b6020820152610ed08288611b0a565b52610edb8187611b0a565b505b0194939294610d0c565b60a0610ef38287611b0a565b510151421115610f3a57604051610f0b604082611a90565b6007815266115e1c1a5c995960ca1b6020820152610f298288611b0a565b52610f348187611b0a565b50610edd565b604051610f48604082611a90565b600681526541637469766560d01b6020820152610f298288611b0a565b6060602082870181019190915201610d01565b602090610f8796949596611b1e565b8282870101520194939294610ccf565b503461120557602036600319011261120557600435610fb4611b9a565b805f52600360205260405f2090600682019160ff835416156113c0576005810154421161138b5760405163c3c5a54760e01b81523360048201527f00000000000000000000000000000000000000000000000000000000000000006001600160a01b03169190602081602481865afa9081156111fa575f91611351575b501561131b576004600282015491015460640390606482116113075760649161105991611b61565b6040516323b872dd60e01b81523360048201523060248201529190046044820181905293907f00000000000000000000000000000000000000000000000000000000000000006001600160a01b0316906020816064815f865af19081156111fa575f916112cd575b50156112885760405163095ea7b360e01b81526020816044815f60018060a01b037f000000000000000000000000000000000000000000000000000000000000000016968760048401528b60248401525af19081156111fa575f9161124e575b501561120957803b15611205575f809160246040518094819363ccdd9f5d60e01b83528960048401525af180156111fa576111e3575b50805460ff191690558390803b156101a057818091604460405180948193633bc0608b60e21b8352336004840152600560248401525af18015610709576111ce575b50506040519182527fdc5716d7ce474a0578145102a2c9a63e03e80c637c364ff5dd178075373df67e60203393a36001805580f35b816111d891611a90565b61070157825f611199565b6111f1919295505f90611a90565b5f93905f611157565b6040513d5f823e3d90fd5b5f80fd5b60405162461bcd60e51b815260206004820152601d60248201527f417070726f76616c20746f206c6f616e207661756c74206661696c65640000006044820152606490fd5b90506020813d602011611280575b8161126960209383611a90565b810103126112055761127a90611b54565b5f611121565b3d915061125c565b60405162461bcd60e51b815260206004820152601f60248201527f5472616e736665722066726f6d206c697175696461746f72206661696c6564006044820152606490fd5b90506020813d6020116112ff575b816112e860209383611a90565b81010312611205576112f990611b54565b5f6110c1565b3d91506112db565b634e487b7160e01b5f52601160045260245ffd5b60405162461bcd60e51b815260206004820152600e60248201526d139bdd081c9959da5cdd195c995960921b6044820152606490fd5b90506020813d602011611383575b8161136c60209383611a90565b810103126112055761137d90611b54565b5f611031565b3d915061135f565b60405162461bcd60e51b815260206004820152600d60248201526c13d999995c88195e1c1a5c9959609a1b6044820152606490fd5b60405162461bcd60e51b815260206004820152601060248201526f4f66666572206e6f742061637469766560801b6044820152606490fd5b34611205575f36600319011261120557611410611b74565b5f80546001600160a01b0319811682556001600160a01b03167f8be0079c531659141344cd1fd0a4f28419497f9722a3daafe3b4186f6b6457e08280a3005b34611205575f366003190112611205576040517f00000000000000000000000000000000000000000000000000000000000000006001600160a01b03168152602090f35b34611205575f366003190112611205576040517f00000000000000000000000000000000000000000000000000000000000000006001600160a01b03168152602090f35b346112055760203660031901126112055760043560045481101561120557611500602091611a34565b90549060031b1c604051908152f35b3461120557602036600319011261120557611528611b1e565b506004355f52600360205260e060405f2060ff60066040519261154a84611a60565b8054845260018101546020850152600281015460408501526003810154606085015260048101546080850152600581015460a0850152015416151560c082015261159760405180926119f1565bf35b34611205575f366003190112611205576020600254604051908152f35b34611205575f366003190112611205576040517f00000000000000000000000000000000000000000000000000000000000000006001600160a01b03168152602090f35b34611205575f3660031901126112055760806004546040519080825260208201525f604082015260056060820152f35b34611205575f366003190112611205576020604051620151808152f35b34611205575f366003190112611205576040517f00000000000000000000000000000000000000000000000000000000000000006001600160a01b03168152602090f35b34611205576020366003190112611205575f600435815b60045490818410806117bc575b156117ba576116bd84611a34565b90549060031b1c805f52600360205260405f2092600684019360ff855416159081156117ac575b5015611798575f19810190811161130757808603611776575b506004549283156117625761175a935f190161171881611a34565b8154905f199060031b1b1916905560045560ff1981541690557ff46587ca33f96a7eb5fee9d2a9cfddd5e063222f52a3836eb9cc34b3e71393d45f80a2611ab2565b905b906116a2565b634e487b7160e01b5f52603160045260245ffd5b61178261179291611a34565b90549060031b1c6104d587611a34565b856116fd565b505091926117a69150611ab2565b9161175c565b6005915001544211876116e4565b005b508281106116af565b34611205576040366003190112611205576004805460243591355f805b8381106118f057506117f390611ad8565b925f915f5b8481106118155760405160208082528190610b01908201896119be565b61181e81611a34565b90549060031b1c805f52600360205260c060405f208560405161184081611a60565b8254815260018301546020820152600283015460408201528660038401549182606082015260048501549081608082015260ff60066005880154978860a085015201541615159687910152856118e5575b5050836118da575b5050816118cf575b506118b0575b506001016117f8565b846118c8916118c2600194978a611b0a565b52611ab2565b93906118a7565b9050421115886118a1565b10159150858a611899565b11159350868c611891565b6118f981611a34565b90549060031b1c5f52600360205260c060405f208660405161191a81611a60565b8254815260018301546020820152600283015460408201528660038401549182606082015260048501549081608082015260ff60066005880154978860a085015201541615159687910152856119b3575b5050836119a8575b50508161199d575b50611989575b6001016117e2565b90611995600191611ab2565b919050611981565b90504211158661197b565b101591508688611973565b11159350868a61196b565b90602080835192838152019201905f5b8181106119db5750505090565b82518452602093840193909201916001016119ce565b60c08091805184526020810151602085015260408101516040850152606081015160608501526080810151608085015260a081015160a085015201511515910152565b600454811015611a4c5760045f5260205f2001905f90565b634e487b7160e01b5f52603260045260245ffd5b60e0810190811067ffffffffffffffff821117611a7c57604052565b634e487b7160e01b5f52604160045260245ffd5b90601f8019910116810190811067ffffffffffffffff821117611a7c57604052565b5f1981146113075760010190565b67ffffffffffffffff8111611a7c5760051b60200190565b90611ae282611ac0565b611aef6040519182611a90565b8281528092611b00601f1991611ac0565b0190602036910137565b8051821015611a4c5760209160051b010190565b60405190611b2b82611a60565b5f60c0838281528260208201528260408201528260608201528260808201528260a08201520152565b5190811515820361120557565b8181029291811591840414171561130757565b5f546001600160a01b03163303611b8757565b63118cdaa760e01b5f523360045260245ffd5b600260015414611bab576002600155565b633ee5aeb560e01b5f5260045ffdfea2646970667358221220194f4c8681074973cb5027f9f50f991a1639d1dd91402474213396dbdf48b05664736f6c634300081c0033","linkReferences":{}},"methodIdentifiers":{"HEALTH_CHECK_INTERVAL()":"288c83fc","activeOfferIds(uint256)":"54f2bbd6","cleanupExpiredOffers(uint256)":"2014b71c","collateralOracleAddress()":"e565073c","createLiquidationOffer(uint256)":"9a3d4a12","executeLiquidation(uint256)":"777a9c17","gemLoanVaultAddress()":"5e503456","getActiveOffers()":"7ff118ef","getAllOffersWithStatus()":"7d02b3d0","getFilteredLiquidationOpportunities(uint256,uint256)":"110b24a5","getLiquidationConfig()":"e0fd5c5c","getLiquidationOfferDetails(uint256)":"7df2b193","getLiquidationStats()":"3a123cee","getOfferDetails(uint256)":"4fb64be2","lastGlobalHealthCheck()":"432ee802","liquidationOffers(uint256)":"7e5b80d3","owner()":"8da5cb5b","renounceOwnership()":"715018a6","rwaGemNftAddress()":"253323f1","stablecoinAddress()":"615737ef","transferOwnership(address)":"f2fde38b","triggerGlobalHealthCheck(uint256)":"9cd360f5","userRegistryAddress()":"3f39eaa1"},"id":51}