{"abi":[{"type":"constructor","inputs":[{"name":"_rwaGemNftAddress","type":"address","internalType":"address"},{"name":"_stablecoinAddress","type":"address","internalType":"address"},{"name":"_userRegistryAddress","type":"address","internalType":"address"},{"name":"_collateralOracleAddress","type":"address","internalType":"address"},{"name":"_gemLendingPoolAddress","type":"address","internalType":"address"},{"name":"initialOwner","type":"address","internalType":"address"}],"stateMutability":"nonpayable"},{"type":"function","name":"EVALUATION_INTERVAL","inputs":[],"outputs":[{"name":"","type":"uint256","internalType":"uint256"}],"stateMutability":"view"},{"type":"function","name":"HEALTH_FACTOR_THRESHOLD","inputs":[],"outputs":[{"name":"","type":"uint256","internalType":"uint256"}],"stateMutability":"view"},{"type":"function","name":"LIQUIDATION_FEE","inputs":[],"outputs":[{"name":"","type":"uint256","internalType":"uint256"}],"stateMutability":"view"},{"type":"function","name":"activeLiquidations","inputs":[{"name":"","type":"uint256","internalType":"uint256"}],"outputs":[{"name":"","type":"uint256","internalType":"uint256"}],"stateMutability":"view"},{"type":"function","name":"baseBorrowRate","inputs":[],"outputs":[{"name":"","type":"uint256","internalType":"uint256"}],"stateMutability":"view"},{"type":"function","name":"baseUtilizationRate","inputs":[],"outputs":[{"name":"","type":"uint256","internalType":"uint256"}],"stateMutability":"view"},{"type":"function","name":"calculateInterestRate","inputs":[{"name":"userReputation","type":"uint256","internalType":"uint256"}],"outputs":[{"name":"","type":"uint256","internalType":"uint256"}],"stateMutability":"view"},{"type":"function","name":"checkLoanHealth","inputs":[{"name":"loanId","type":"uint256","internalType":"uint256"}],"outputs":[{"name":"healthFactor","type":"uint256","internalType":"uint256"}],"stateMutability":"nonpayable"},{"type":"function","name":"collateralOracleAddress","inputs":[],"outputs":[{"name":"","type":"address","internalType":"address"}],"stateMutability":"view"},{"type":"function","name":"gemLendingPoolAddress","inputs":[],"outputs":[{"name":"","type":"address","internalType":"address"}],"stateMutability":"view"},{"type":"function","name":"getActiveLiquidations","inputs":[],"outputs":[{"name":"","type":"uint256[]","internalType":"uint256[]"}],"stateMutability":"view"},{"type":"function","name":"getInterestRateParams","inputs":[],"outputs":[{"name":"currentBaseBorrowRate","type":"uint256","internalType":"uint256"},{"name":"currentMaxBorrowRate","type":"uint256","internalType":"uint256"},{"name":"currentBaseUtilizationRate","type":"uint256","internalType":"uint256"}],"stateMutability":"view"},{"type":"function","name":"getLoanDetails","inputs":[{"name":"loanId","type":"uint256","internalType":"uint256"}],"outputs":[{"name":"loan","type":"tuple","internalType":"struct GemLoanVault.Loan","components":[{"name":"borrower","type":"address","internalType":"address"},{"name":"loanAmount","type":"uint256","internalType":"uint256"},{"name":"collateralId","type":"uint256","internalType":"uint256"},{"name":"repaymentAmount","type":"uint256","internalType":"uint256"},{"name":"repaymentDue","type":"uint256","internalType":"uint256"},{"name":"isRepaid","type":"bool","internalType":"bool"},{"name":"isLiquidated","type":"bool","internalType":"bool"},{"name":"isLiquidationActive","type":"bool","internalType":"bool"}]},{"name":"healthFactor","type":"uint256","internalType":"uint256"},{"name":"interestRate","type":"uint256","internalType":"uint256"},{"name":"daysUntilDue","type":"uint256","internalType":"uint256"}],"stateMutability":"view"},{"type":"function","name":"getLoanStatus","inputs":[{"name":"loanId","type":"uint256","internalType":"uint256"}],"outputs":[{"name":"status","type":"string","internalType":"string"}],"stateMutability":"view"},{"type":"function","name":"getProtocolLoanStats","inputs":[],"outputs":[{"name":"totalLoansIssued","type":"uint256","internalType":"uint256"},{"name":"activeLoansCount","type":"uint256","internalType":"uint256"},{"name":"totalVolumeLoaned","type":"uint256","internalType":"uint256"},{"name":"totalVolumeRepaid","type":"uint256","internalType":"uint256"}],"stateMutability":"view"},{"type":"function","name":"getUserLoanStats","inputs":[{"name":"borrower","type":"address","internalType":"address"}],"outputs":[{"name":"totalLoans","type":"uint256","internalType":"uint256"},{"name":"activeLoans","type":"uint256","internalType":"uint256"},{"name":"totalBorrowed","type":"uint256","internalType":"uint256"},{"name":"totalRepaid","type":"uint256","internalType":"uint256"}],"stateMutability":"view"},{"type":"function","name":"getUserLoans","inputs":[{"name":"borrower","type":"address","internalType":"address"}],"outputs":[{"name":"loanIds","type":"uint256[]","internalType":"uint256[]"}],"stateMutability":"view"},{"type":"function","name":"isLoanHealthy","inputs":[{"name":"loanId","type":"uint256","internalType":"uint256"}],"outputs":[{"name":"","type":"bool","internalType":"bool"}],"stateMutability":"nonpayable"},{"type":"function","name":"lastEvaluationTime","inputs":[{"name":"","type":"uint256","internalType":"uint256"}],"outputs":[{"name":"","type":"uint256","internalType":"uint256"}],"stateMutability":"view"},{"type":"function","name":"liquidateLoan","inputs":[{"name":"loanId","type":"uint256","internalType":"uint256"}],"outputs":[],"stateMutability":"nonpayable"},{"type":"function","name":"liquidationIndexInArray","inputs":[{"name":"","type":"uint256","internalType":"uint256"}],"outputs":[{"name":"","type":"uint256","internalType":"uint256"}],"stateMutability":"view"},{"type":"function","name":"loanByCollateralId","inputs":[{"name":"","type":"uint256","internalType":"uint256"}],"outputs":[{"name":"","type":"uint256","internalType":"uint256"}],"stateMutability":"view"},{"type":"function","name":"loanCounter","inputs":[],"outputs":[{"name":"","type":"uint256","internalType":"uint256"}],"stateMutability":"view"},{"type":"function","name":"loanExists","inputs":[{"name":"loanId","type":"uint256","internalType":"uint256"}],"outputs":[{"name":"exists","type":"bool","internalType":"bool"}],"stateMutability":"view"},{"type":"function","name":"loans","inputs":[{"name":"","type":"uint256","internalType":"uint256"}],"outputs":[{"name":"borrower","type":"address","internalType":"address"},{"name":"loanAmount","type":"uint256","internalType":"uint256"},{"name":"collateralId","type":"uint256","internalType":"uint256"},{"name":"repaymentAmount","type":"uint256","internalType":"uint256"},{"name":"repaymentDue","type":"uint256","internalType":"uint256"},{"name":"isRepaid","type":"bool","internalType":"bool"},{"name":"isLiquidated","type":"bool","internalType":"bool"},{"name":"isLiquidationActive","type":"bool","internalType":"bool"}],"stateMutability":"view"},{"type":"function","name":"maxBorrowRate","inputs":[],"outputs":[{"name":"","type":"uint256","internalType":"uint256"}],"stateMutability":"view"},{"type":"function","name":"onERC721Received","inputs":[{"name":"operator","type":"address","internalType":"address"},{"name":"from","type":"address","internalType":"address"},{"name":"tokenId","type":"uint256","internalType":"uint256"},{"name":"data","type":"bytes","internalType":"bytes"}],"outputs":[{"name":"","type":"bytes4","internalType":"bytes4"}],"stateMutability":"nonpayable"},{"type":"function","name":"owner","inputs":[],"outputs":[{"name":"","type":"address","internalType":"address"}],"stateMutability":"view"},{"type":"function","name":"pause","inputs":[],"outputs":[],"stateMutability":"nonpayable"},{"type":"function","name":"paused","inputs":[],"outputs":[{"name":"","type":"bool","internalType":"bool"}],"stateMutability":"view"},{"type":"function","name":"renounceOwnership","inputs":[],"outputs":[],"stateMutability":"nonpayable"},{"type":"function","name":"repayLoan","inputs":[{"name":"loanId","type":"uint256","internalType":"uint256"}],"outputs":[],"stateMutability":"nonpayable"},{"type":"function","name":"requestLoan","inputs":[{"name":"collateralId","type":"uint256","internalType":"uint256"},{"name":"loanAmount","type":"uint256","internalType":"uint256"},{"name":"duration","type":"uint256","internalType":"uint256"}],"outputs":[],"stateMutability":"nonpayable"},{"type":"function","name":"rwaGemNftAddress","inputs":[],"outputs":[{"name":"","type":"address","internalType":"address"}],"stateMutability":"view"},{"type":"function","name":"setInterestRateParams","inputs":[{"name":"_baseBorrowRate","type":"uint256","internalType":"uint256"},{"name":"_maxBorrowRate","type":"uint256","internalType":"uint256"},{"name":"_baseUtilizationRate","type":"uint256","internalType":"uint256"}],"outputs":[],"stateMutability":"nonpayable"},{"type":"function","name":"stablecoinAddress","inputs":[],"outputs":[{"name":"","type":"address","internalType":"address"}],"stateMutability":"view"},{"type":"function","name":"transferOwnership","inputs":[{"name":"newOwner","type":"address","internalType":"address"}],"outputs":[],"stateMutability":"nonpayable"},{"type":"function","name":"unpause","inputs":[],"outputs":[],"stateMutability":"nonpayable"},{"type":"function","name":"userRegistryAddress","inputs":[],"outputs":[{"name":"","type":"address","internalType":"address"}],"stateMutability":"view"},{"type":"event","name":"CollateralRevaluationTriggered","inputs":[{"name":"loanId","type":"uint256","indexed":true,"internalType":"uint256"},{"name":"newCollateralValue","type":"uint256","indexed":false,"internalType":"uint256"}],"anonymous":false},{"type":"event","name":"InterestRateUpdated","inputs":[{"name":"baseBorrowRate","type":"uint256","indexed":false,"internalType":"uint256"},{"name":"maxBorrowRate","type":"uint256","indexed":false,"internalType":"uint256"},{"name":"baseUtilizationRate","type":"uint256","indexed":false,"internalType":"uint256"}],"anonymous":false},{"type":"event","name":"LiquidationActivated","inputs":[{"name":"loanId","type":"uint256","indexed":true,"internalType":"uint256"},{"name":"repaymentNeeded","type":"uint256","indexed":false,"internalType":"uint256"},{"name":"collateralValue","type":"uint256","indexed":false,"internalType":"uint256"}],"anonymous":false},{"type":"event","name":"LoanIssued","inputs":[{"name":"loanId","type":"uint256","indexed":true,"internalType":"uint256"},{"name":"borrower","type":"address","indexed":true,"internalType":"address"},{"name":"collateralId","type":"uint256","indexed":false,"internalType":"uint256"},{"name":"amount","type":"uint256","indexed":false,"internalType":"uint256"},{"name":"repaymentAmount","type":"uint256","indexed":false,"internalType":"uint256"},{"name":"repaymentDue","type":"uint256","indexed":false,"internalType":"uint256"}],"anonymous":false},{"type":"event","name":"LoanLiquidated","inputs":[{"name":"loanId","type":"uint256","indexed":true,"internalType":"uint256"},{"name":"liquidator","type":"address","indexed":true,"internalType":"address"},{"name":"liquidationAmount","type":"uint256","indexed":false,"internalType":"uint256"}],"anonymous":false},{"type":"event","name":"LoanRepaid","inputs":[{"name":"loanId","type":"uint256","indexed":true,"internalType":"uint256"},{"name":"borrower","type":"address","indexed":true,"internalType":"address"}],"anonymous":false},{"type":"event","name":"LoanRequested","inputs":[{"name":"borrower","type":"address","indexed":true,"internalType":"address"},{"name":"collateralId","type":"uint256","indexed":true,"internalType":"uint256"}],"anonymous":false},{"type":"event","name":"OwnershipTransferred","inputs":[{"name":"previousOwner","type":"address","indexed":true,"internalType":"address"},{"name":"newOwner","type":"address","indexed":true,"internalType":"address"}],"anonymous":false},{"type":"event","name":"Paused","inputs":[{"name":"account","type":"address","indexed":false,"internalType":"address"}],"anonymous":false},{"type":"event","name":"Unpaused","inputs":[{"name":"account","type":"address","indexed":false,"internalType":"address"}],"anonymous":false},{"type":"error","name":"EnforcedPause","inputs":[]},{"type":"error","name":"ExpectedPause","inputs":[]},{"type":"error","name":"OwnableInvalidOwner","inputs":[{"name":"owner","type":"address","internalType":"address"}]},{"type":"error","name":"OwnableUnauthorizedAccount","inputs":[{"name":"account","type":"address","internalType":"address"}]},{"type":"error","name":"ReentrancyGuardReentrantCall","inputs":[]}],"bytecode":{"object":"0x610120346101be57601f61298438819003918201601f19168301916001600160401b038311848410176101c25780849260c0946040528339810103126101be57610048816101d6565b90610055602082016101d6565b610061604083016101d6565b61006d606084016101d6565b9161007a608085016101d6565b936001600160a01b03906100909060a0016101d6565b169485156101ab575f80546001600160a01b031981168817825560405197916001600160a01b03909116907f8be0079c531659141344cd1fd0a4f28419497f9722a3daafe3b4186f6b6457e09080a360018055600380556050600455600f60055560805260a05260c05260e0526101005261279990816101eb82396080518181816102f001528181610dc0015281816112980152611af8015260a051818181610cbd0152818161119b0152611904015260c05181818161029001528181610c3a0152818161131b015281816117fb0152611a7a015260e05181818161039001528181610a5a01528181611c5b01528181611ea7015261251c0152610100518181816105ef01528181610a1501528181610d0c01526111e90152f35b631e4fbdf760e01b5f525f60045260245ffd5b5f80fd5b634e487b7160e01b5f52604160045260245ffd5b51906001600160a01b03821682036101be5756fe60806040526004361015610011575f80fd5b5f5f3560e01c806302bf321f146120965780630c82e7a114611f6f5780630f0f63e414611f545780630fa42b5a14611f37578063115252c114611f1a57806314ce280714611be4578063150b7a0214611b735780631c4fd41c14611b27578063253323f114611ae357806334d9289e14611ac65780633c83fe3614611aa95780633f39eaa114611a655780633f4ba83a146119ff57806346cfe1ed146119d5578063519af103146119555780635c975abb14611933578063615737ef146118ef57806366877b8d146116ec578063715018a614611695578063737c56171461166d5780638456cb59146116145780638da5cb5b146115ed57806390d3b379146115c75780639eda03ef146114b8578063a41f5d931461148e578063a6e1542e14611456578063ab7b1c8914611105578063b1827330146110e9578063b2a9dd191461100b578063bf38668214610fed578063ccdd9f5d14610bc4578063e1ec3c6814610b3a578063e2efed3814610b10578063e38665a114610ad9578063e4ec99a514610a89578063e565073c14610a44578063ec701baf146109ff578063edadbbfe1461024f5763f2fde38b146101c7575f80fd5b3461024c57602036600319011261024c576101e06121ac565b6101e861262d565b6001600160a01b031680156102385781546001600160a01b03198116821783556001600160a01b03167f8be0079c531659141344cd1fd0a4f28419497f9722a3daafe3b4186f6b6457e08380a380f35b631e4fbdf760e01b82526004829052602482fd5b80fd5b503461024c5761025e36612211565b90610267612653565b61026f612748565b81156109ba5780156109755760405163c3c5a54760e01b81523360048201527f00000000000000000000000000000000000000000000000000000000000000006001600160a01b03169190602081602481865afa801561096a576102da91879161094b575b506125d8565b6040516331a9108f60e11b8152600481018590527f00000000000000000000000000000000000000000000000000000000000000006001600160a01b03169190602081602481865afa908115610851578791610905575b50336001600160a01b03909116036108c0576040516373f1844160e11b815260048101869052602081602481865afa9081156108515787916108a1575b5061085c5760405163e95f2c7d60e01b8152600481018690526020816024818a7f00000000000000000000000000000000000000000000000000000000000000006001600160a01b03165af190811561085157879161081f575b5081116107ce57604051631d699f5760e21b81523360048201528690602081602481885afa80156106c75786918391610790575b5061041e61042592610419610413618e9494612584565b8761261a565b61261a565b04836122a8565b92803b156106d2576040516323b872dd60e01b815233600482015230602482015260448101889052828160648183865af1908115610785578391610770575b5050803b156106d257604051632f4a61d960e01b8152600481018890523060248201529082908290604490829084905af180156106c75761075b575b5050600654936104af85612243565b6006556201518081029081046201518003610747576104ce90426122a8565b926040516104db81612251565b338152858860056020840193868552604081018b81526060820189815260808301918b835260a0840197868952604060c086019780895260e0870199818b5281526007602052209460018060a01b039051166bffffffffffffffffffffffff60a01b865416178555516001850155516002840155516003830155516004820155019251151560ff8019855416911617835551151561ff0083549160081b169061ff00191617825551151562ff000082549160101b169062ff0000191617905585875260086020528460408820558487526009602052426040882055604051631136758d60e01b8152602081806105ea86336004840160209093929193604081019460018060a01b031681520152565b03818b7f00000000000000000000000000000000000000000000000000000000000000006001600160a01b03165af190811561073c57889161070d575b50156106d6578087913b156106d257818091604460405180948193633bc0608b60e21b8352336004840152600a60248401525af180156106c7576106ae575b5050604080519586526020860191909152840152606083015233917f5971a5fe43a12bd3687ffbb819166ff96f67001a70138d69bc8d66b06363933490608090a36001805580f35b816106b89161226e565b6106c357855f610666565b8580fd5b6040513d84823e3d90fd5b5080fd5b60405162461bcd60e51b815260206004820152600f60248201526e151c985b9cd9995c8819985a5b1959608a1b6044820152606490fd5b61072f915060203d602011610735575b610727818361226e565b8101906124a2565b5f610627565b503d61071d565b6040513d8a823e3d90fd5b634e487b7160e01b87526011600452602487fd5b816107659161226e565b6106c357855f6104a0565b8161077a9161226e565b6106d257815f610464565b6040513d85823e3d90fd5b925050506020813d6020116107c6575b816107ad6020938361226e565b810103126107c257518690859061041e6103fc565b5f80fd5b3d91506107a0565b60405162461bcd60e51b815260206004820152602360248201527f4c6f616e20616d6f756e742065786365656473206d6178696d756d20616c6c6f6044820152621dd95960ea1b6064820152608490fd5b90506020813d602011610849575b8161083a6020938361226e565b810103126107c257515f6103c8565b3d915061082d565b6040513d89823e3d90fd5b60405162461bcd60e51b815260206004820152601a60248201527f4e465420616c726561647920636f6c6c61746572616c697a65640000000000006044820152606490fd5b6108ba915060203d60201161073557610727818361226e565b5f61036e565b60405162461bcd60e51b815260206004820152601860248201527f4e6f7420746865206f776e6572206f6620746865204e465400000000000000006044820152606490fd5b90506020813d602011610943575b816109206020938361226e565b8101031261093f57516001600160a01b038116810361093f575f610331565b8680fd5b3d9150610913565b610964915060203d60201161073557610727818361226e565b5f6102d4565b6040513d88823e3d90fd5b60405162461bcd60e51b815260206004820152601c60248201527f4c6f616e20616d6f756e74206d75737420626520706f736974697665000000006044820152606490fd5b60405162461bcd60e51b815260206004820152601960248201527f4475726174696f6e206d75737420626520706f736974697665000000000000006044820152606490fd5b503461024c578060031936011261024c576040517f00000000000000000000000000000000000000000000000000000000000000006001600160a01b03168152602090f35b503461024c578060031936011261024c576040517f00000000000000000000000000000000000000000000000000000000000000006001600160a01b03168152602090f35b503461024c57602036600319011261024c576020906004359060065482109182610aba575b50506040519015158152f35b81526007835260409020546001600160a01b0316151590505f80610aae565b503461024c578060031936011261024c576003546005546004546040805193845260208401929092529082015280606081015b0390f35b503461024c57602036600319011261024c5760406020916004358152600983522054604051908152f35b503461024c57602036600319011261024c57604061010091600435815260076020522060ff60018060a01b0382541691600181015490600281015460038201549060056004840154930154936040519687526020870152604086015260608501526080840152818116151560a0840152818160081c16151560c084015260101c16151560e0820152f35b503461024c57602036600319011261024c57600435610be1612653565b610be9612748565b80825260076020526040822090600582019160ff8354610c0b828216156122b5565b610c1a828260081c16156122f7565b60101c1615610f9d5760405163c3c5a54760e01b815233600482015284917f00000000000000000000000000000000000000000000000000000000000000006001600160a01b031691602081602481865afa8015610f2157610c8291859161094b57506125d8565b60038101546040516323b872dd60e01b815233600482015230602482015264e8d4a51000820460448201819052919691906001600160a01b037f000000000000000000000000000000000000000000000000000000000000000016906020816064818a865af18015610851578792602092610d5192610f82575b5060405163095ea7b360e01b81527f00000000000000000000000000000000000000000000000000000000000000006001600160a01b0381166004830152602482019690965293849283919082906044820190565b03925af1801561096a57610f65575b5082546001600160a01b039081169116803b156106c35760405163428d3b8360e11b81526001600160a01b039290921660048301526024820188905285908290604490829084905af1908115610f45578591610f50575b505060028201547f00000000000000000000000000000000000000000000000000000000000000006001600160a01b031690813b156106c3578591606483926040519485938492632d1d9ed760e01b845260048401523360248401528c60448401525af1908115610f45578591610f2c575b5050805461ff001916610100179055610e4184612673565b813b15610f0857604051633bc0608b60e21b815233600482015260056024820152838160448183875af1908115610f21578491610f0c575b5050546001600160a01b0316813b15610f08578291604483926040519485938492633bc0608b60e21b8452600484015260091960248401525af180156106c757610ef3575b50506040519182527f0256bdf47e9aff5784070d6cab332d79f81fc6b8c8ed875565982a423a389e3a60203393a36001805580f35b81610efd9161226e565b610f0857825f610ebe565b8280fd5b81610f169161226e565b610f0857825f610e79565b6040513d86823e3d90fd5b81610f369161226e565b610f4157835f610e29565b8380fd5b6040513d87823e3d90fd5b81610f5a9161226e565b610f4157835f610db7565b610f7d9060203d60201161073557610727818361226e565b610d60565b610f9890843d861161073557610727818361226e565b610cfc565b60405162461bcd60e51b815260206004820152602260248201527f4c6f616e206e6f7420617661696c61626c6520666f72206c697175696461746960448201526137b760f11b6064820152608490fd5b503461024c578060031936011261024c576020600354604051908152f35b503461024c578060031936011261024c57600654818080805b8484106110545750610b0c9250604051948594859094939260609260808301968352602083015260408201520152565b9061106f9084835260076020526001604084200154906122a8565b91838252600760205260ff6005604084200154165f146110b0576110a560019185845260076020526003604085200154906122a8565b935b01929190611024565b92808252600760205260ff600560408420015460081c16156110d5575b6001906110a7565b946110e1600191612243565b9590506110cd565b503461024c578060031936011261024c57602060405160058152f35b50346107c25760203660031901126107c257600435611122612653565b805f52600760205260405f20600581019061115060ff8354611146828216156122b5565b60081c16156122f7565b80546001600160a01b0316330361141e576003810180546040516323b872dd60e01b815233600482015230602482015264e8d4a5100090910460448201819052906001600160a01b037f000000000000000000000000000000000000000000000000000000000000000016906020816064815f865af180156113f6575f9260209261122e92610f82575060405163095ea7b360e01b81527f00000000000000000000000000000000000000000000000000000000000000006001600160a01b0381166004830152602482019690965293849283919082906044820190565b03925af180156113f657611401575b509054906001600160a01b0316803b156107c25760405163428d3b8360e11b815233600482015260248101929092525f908290604490829084905af180156113f6576113e1575b506002810154905484916001600160a01b037f000000000000000000000000000000000000000000000000000000000000000081169216823b15610f415760405163532c6b3760e01b815260048101929092526001600160a01b031660248201529082908290604490829084905af180156106c7576113cc575b5050805460ff19166001179081905560101c60ff166113be575b817f00000000000000000000000000000000000000000000000000000000000000006001600160a01b0316803b156106d257818091604460405180948193633bc0608b60e21b8352336004840152601460248401525af180156106c7576113a9575b505033907fe69d7686a8bc68278b8c5419579f91716b3ef2ac2fac0d8cf80b8011f8f458a48380a36001805580f35b816113b39161226e565b6106d257815f61137a565b6113c781612673565b611318565b816113d69161226e565b610f0857825f6112fe565b6113ee9194505f9061226e565b5f925f611284565b6040513d5f823e3d90fd5b6114199060203d60201161073557610727818361226e565b61123d565b60405162461bcd60e51b815260206004820152601060248201526f2737ba103a3432903137b93937bbb2b960811b6044820152606490fd5b346107c25760203660031901126107c257600435600a548110156107c25761147f60209161222b565b90549060031b1c604051908152f35b346107c25760203660031901126107c2576004355f52600b602052602060405f2054604051908152f35b346107c2576114c636612211565b916114cf61262d565b8181101561157657606483116115325761152d7fae105abe8db839281c90b44a9f60cf111b2217cf082514ef8db4786387753d8893826003558360055580600455604051938493846040919493926060820195825260208201520152565b0390a1005b606460405162461bcd60e51b815260206004820152602060248201527f5574696c697a6174696f6e2072617465206d757374206265203c3d20313030256044820152fd5b60405162461bcd60e51b8152602060048201526024808201527f426173652072617465206d757374206265206c657373207468616e206d6178206044820152637261746560e01b6064820152608490fd5b346107c25760203660031901126107c25760206115e5600435612584565b604051908152f35b346107c2575f3660031901126107c2575f546040516001600160a01b039091168152602090f35b346107c2575f3660031901126107c25761162c61262d565b611634612748565b600160ff1960025416176002557f62e78cea01bee320cd4e420270b5ea74000d11b0c9f74754ebdbfc544b05a2586020604051338152a1005b346107c25760203660031901126107c257602061168b6004356124ba565b6040519015158152f35b346107c2575f3660031901126107c2576116ad61262d565b5f80546001600160a01b0319811682556001600160a01b03167f8be0079c531659141344cd1fd0a4f28419497f9722a3daafe3b4186f6b6457e08280a3005b346107c25760203660031901126107c2575f60e060405161170c81612251565b8281528260208201528260408201528260608201528260808201528260a08201528260c082015201526004355f52600760205260405f2060405161174f81612251565b60018060a01b03825416815260018201549160208201928352600281015492604083019384526003820154916060840192835260048101546005608086019282845201549160a086019060ff84161515825260c087019260ff8560081c161515845260ff60e089019560101c1615158552804210155f146118c557505f955b8751604051631d699f5760e21b81526001600160a01b03918216600482015299906020908b9060249082907f0000000000000000000000000000000000000000000000000000000000000000165afa998a156113f6575f9a61188f575b506118386101609a612584565b966040519960018060a01b039051168a525160208a015251604089015251606088015251608087015251151560a086015251151560c085015251151560e08401526064610100840152610120830152610140820152f35b995060208a3d6020116118bd575b816118aa6020938361226e565b810103126107c25798519861183861182b565b3d915061189d565b4281039081116118db57620151809004956117ce565b634e487b7160e01b5f52601160045260245ffd5b346107c2575f3660031901126107c2576040517f00000000000000000000000000000000000000000000000000000000000000006001600160a01b03168152602090f35b346107c2575f3660031901126107c257602060ff600254166040519015158152f35b346107c2575f3660031901126107c257604051806020600a54918281520190600a5f527fc65a7bb8d6351c1cf70c95a316cc6a92839c986682d98bc35f958f4883f9d2a8905f5b8181106119bf57610b0c856119b38187038261226e565b604051918291826121d8565b825484526020909301926001928301920161199c565b346107c25760203660031901126107c2576004355f526008602052602060405f2054604051908152f35b346107c2575f3660031901126107c257611a1761262d565b60025460ff811615611a565760ff19166002557f5db9ee0a495bf2e6ff9c91a7834c1ba4fdd244a5e8aa4e537bd38aeae4b073aa6020604051338152a1005b638dfc202b60e01b5f5260045ffd5b346107c2575f3660031901126107c2576040517f00000000000000000000000000000000000000000000000000000000000000006001600160a01b03168152602090f35b346107c2575f3660031901126107c2576020600454604051908152f35b346107c2575f3660031901126107c2576020600654604051908152f35b346107c2575f3660031901126107c2576040517f00000000000000000000000000000000000000000000000000000000000000006001600160a01b03168152602090f35b346107c25760203660031901126107c25760206040611b47600435612343565b815192839181835280519182918282860152018484015e5f828201840152601f01601f19168101030190f35b346107c25760803660031901126107c257611b8c6121ac565b50611b956121c2565b5060643567ffffffffffffffff81116107c257366023820112156107c257806004013567ffffffffffffffff81116107c257369101602401116107c257604051630a85bd0160e11b8152602090f35b346107c25760203660031901126107c257600435805f52600760205260405f206005810191611c1c60ff8454611146828216156122b5565b805f52600960205260405f20546201518081018091116118db57421115611e76576002820180546040516382fee08f60e01b81526004810191909152937f00000000000000000000000000000000000000000000000000000000000000006001600160a01b031693916020866024815f895af19586156113f6575f96611e42575b50835f5260096020524260405f2055837f2dfcda30b2c50bf5dcd1db6ccb87e05cd6d0ab06d33410e334c1179a4645706e6020604051898152a254916020600382019360448554915f604051998a948593632696439560e11b8552600485015260248401525af19485156113f6575f95611e0e575b5060648510908115611e00575b50611d34575b50505060209150604051908152f35b805460ff8160101c1615611d49575b50611d25565b62ff0000191662010000179055600a5468010000000000000000811015611dec5782611d7e826001611d969401600a5561222b565b90919082549060031b91821b915f19901b1916179055565b600a545f1981019081116118db576020947f38577d1bb177dd5d275741fa2c905485715d3a12377667274397b59d50b74df592604092855f52600b8852835f20555490825191825286820152a282808080611d43565b634e487b7160e01b5f52604160045260245ffd5b600491500154421186611d1f565b9094506020813d602011611e3a575b81611e2a6020938361226e565b810103126107c257519386611d12565b3d9150611e1d565b9095506020813d602011611e6e575b81611e5e6020938361226e565b810103126107c257519486611c9d565b3d9150611e51565b506002810154600390910154604051632696439560e11b81526004810192909252602482015290506020816044815f7f00000000000000000000000000000000000000000000000000000000000000006001600160a01b03165af180156113f6575f90611ee7575b602091506115e5565b506020813d602011611f12575b81611f016020938361226e565b810103126107c25760209051611ede565b3d9150611ef4565b346107c2575f3660031901126107c2576020604051620151808152f35b346107c2575f3660031901126107c2576020600554604051908152f35b346107c2575f3660031901126107c257602060405160648152f35b346107c25760203660031901126107c257611f886121ac565b6006546001600160a01b03909116905f90819081908190815b818110611fd257505090610b0c91604051948594859094939260609260808301968352602083015260408201520152565b5f818152600760205260409020546001600160a01b03168714611ff8575b600101611fa1565b92919361200761201e91612243565b94845f526007602052600160405f200154906122a8565b91835f52600760205260ff600560405f200154165f1461205d57612054600191855f526007602052600360405f200154906122a8565b935b9050611ff0565b92805f52600760205260ff600560405f20015460081c1615612082575b600190612056565b9461208e600191612243565b95905061207a565b346107c25760203660031901126107c2576120af6121ac565b6006546001600160a01b03909116905f90815b81811061217257506120d382612290565b916120e1604051938461226e565b8083526120f0601f1991612290565b013660208401375f925f5b8281106121105760405180610b0c86826121d8565b5f818152600760205260409020546001600160a01b03168214612136575b6001016120fb565b93835181101561215e576121568186602060019460051b88010152612243565b94905061212e565b634e487b7160e01b5f52603260045260245ffd5b5f818152600760205260409020546001600160a01b03168414612198575b6001016120c2565b916121a4600191612243565b929050612190565b600435906001600160a01b03821682036107c257565b602435906001600160a01b03821682036107c257565b60206040818301928281528451809452019201905f5b8181106121fb5750505090565b82518452602093840193909201916001016121ee565b60609060031901126107c257600435906024359060443590565b600a5481101561215e57600a5f5260205f2001905f90565b5f1981146118db5760010190565b610100810190811067ffffffffffffffff821117611dec57604052565b90601f8019910116810190811067ffffffffffffffff821117611dec57604052565b67ffffffffffffffff8111611dec5760051b60200190565b919082018092116118db57565b156122bc57565b60405162461bcd60e51b8152602060048201526013602482015272131bd85b88185b1c9958591e481c995c185a59606a1b6044820152606490fd5b156122fe57565b60405162461bcd60e51b815260206004820152601760248201527f4c6f616e20616c7265616479206c6971756964617465640000000000000000006044820152606490fd5b6060905f52600760205260e060405f20916040519061236182612251565b60018060a01b0384541682526001840154602083015260028401546040830152600384015490820152600560048401549384608084015201549060ff82161515908160a082015260ff808460081c161515938460c084015260101c16151593849101525f146123f1575050506040516123db60408261226e565b600681526514995c185a5960d21b602082015290565b1561242057505060405161240660408261226e565b600a815269131a5c5d5a59185d195960b21b602082015290565b15612452575060405161243460408261226e565b600e81526d24b7102634b8bab4b230ba34b7b760911b602082015290565b42111561247e5760405161246760408261226e565b60078152664f76657264756560c81b602082015290565b60405161248c60408261226e565b600681526541637469766560d01b602082015290565b908160209103126107c2575180151581036107c25790565b5f52600760205260405f20600581015460ff8116908115612576575b50612570576004810154421161256b576002810154600390910154604051633975818960e11b8152600481019290925260248201526020816044815f6001600160a01b037f0000000000000000000000000000000000000000000000000000000000000000165af19081156113f6575f9161254f575090565b612568915060203d60201161073557610727818361226e565b90565b505f90565b50600190565b60ff915060081c165f6124d6565b6101f48110612594575060035490565b61012c81106125af5750600354600181018091116118db5790565b6064116125c757600354600281018091116118db5790565b600354600381018091116118db5790565b156125df57565b60405162461bcd60e51b8152602060048201526013602482015272155cd95c881b9bdd081c9959da5cdd195c9959606a1b6044820152606490fd5b818102929181159184041417156118db57565b5f546001600160a01b0316330361264057565b63118cdaa760e01b5f523360045260245ffd5b600260015414612664576002600155565b633ee5aeb560e01b5f5260045ffd5b805f52600760205260ff600560405f20015460101c161561274557805f52600b60205260405f2054600a545f1981019081116118db57808203612715575b5050600a548015612701575f19016126c88161222b565b8154905f199060031b1b19169055600a55805f52600b6020525f60408120555f526007602052600560405f200162ff0000198154169055565b634e487b7160e01b5f52603160045260245ffd5b61271e9061222b565b90549060031b1c61273281611d7e8461222b565b5f52600b60205260405f20555f806126b1565b50565b60ff6002541661275457565b63d93c066560e01b5f5260045ffdfea26469706673582212207904a81649c2a5dd7fd2dc6532de3d5843a34a80b8eec82065b5ceb48c009cb064736f6c634300081c0033","linkReferences":{}},"methodIdentifiers":{"EVALUATION_INTERVAL()":"115252c1","HEALTH_FACTOR_THRESHOLD()":"0f0f63e4","LIQUIDATION_FEE()":"b1827330","activeLiquidations(uint256)":"a6e1542e","baseBorrowRate()":"bf386682","baseUtilizationRate()":"3c83fe36","calculateInterestRate(uint256)":"90d3b379","checkLoanHealth(uint256)":"14ce2807","collateralOracleAddress()":"e565073c","gemLendingPoolAddress()":"ec701baf","getActiveLiquidations()":"519af103","getInterestRateParams()":"e38665a1","getLoanDetails(uint256)":"66877b8d","getLoanStatus(uint256)":"1c4fd41c","getProtocolLoanStats()":"b2a9dd19","getUserLoanStats(address)":"0c82e7a1","getUserLoans(address)":"02bf321f","isLoanHealthy(uint256)":"737c5617","lastEvaluationTime(uint256)":"e2efed38","liquidateLoan(uint256)":"ccdd9f5d","liquidationIndexInArray(uint256)":"a41f5d93","loanByCollateralId(uint256)":"46cfe1ed","loanCounter()":"34d9289e","loanExists(uint256)":"e4ec99a5","loans(uint256)":"e1ec3c68","maxBorrowRate()":"0fa42b5a","onERC721Received(address,address,uint256,bytes)":"150b7a02","owner()":"8da5cb5b","pause()":"8456cb59","paused()":"5c975abb","renounceOwnership()":"715018a6","repayLoan(uint256)":"ab7b1c89","requestLoan(uint256,uint256,uint256)":"edadbbfe","rwaGemNftAddress()":"253323f1","setInterestRateParams(uint256,uint256,uint256)":"9eda03ef","stablecoinAddress()":"615737ef","transferOwnership(address)":"f2fde38b","unpause()":"3f4ba83a","userRegistryAddress()":"3f39eaa1"},"id":52}