{"abi":[{"type":"constructor","inputs":[{"name":"initialOwner","type":"address","internalType":"address"}],"stateMutability":"nonpayable"},{"type":"function","name":"MAX_SUPPLY","inputs":[],"outputs":[{"name":"","type":"uint256","internalType":"uint256"}],"stateMutability":"view"},{"type":"function","name":"allowance","inputs":[{"name":"owner","type":"address","internalType":"address"},{"name":"spender","type":"address","internalType":"address"}],"outputs":[{"name":"","type":"uint256","internalType":"uint256"}],"stateMutability":"view"},{"type":"function","name":"approve","inputs":[{"name":"spender","type":"address","internalType":"address"},{"name":"value","type":"uint256","internalType":"uint256"}],"outputs":[{"name":"","type":"bool","internalType":"bool"}],"stateMutability":"nonpayable"},{"type":"function","name":"balanceOf","inputs":[{"name":"account","type":"address","internalType":"address"}],"outputs":[{"name":"","type":"uint256","internalType":"uint256"}],"stateMutability":"view"},{"type":"function","name":"burn","inputs":[{"name":"_amount","type":"uint256","internalType":"uint256"}],"outputs":[],"stateMutability":"nonpayable"},{"type":"function","name":"decimals","inputs":[],"outputs":[{"name":"","type":"uint8","internalType":"uint8"}],"stateMutability":"pure"},{"type":"function","name":"getAllMinters","inputs":[],"outputs":[{"name":"mintersList","type":"address[]","internalType":"address[]"}],"stateMutability":"view"},{"type":"function","name":"getPrice","inputs":[],"outputs":[{"name":"","type":"uint256","internalType":"uint256"}],"stateMutability":"pure"},{"type":"function","name":"getRemainingSupply","inputs":[],"outputs":[{"name":"remaining","type":"uint256","internalType":"uint256"}],"stateMutability":"view"},{"type":"function","name":"getSupplyUtilization","inputs":[],"outputs":[{"name":"utilizationPercent","type":"uint256","internalType":"uint256"}],"stateMutability":"view"},{"type":"function","name":"getTokenInfo","inputs":[],"outputs":[{"name":"tokenName","type":"string","internalType":"string"},{"name":"tokenSymbol","type":"string","internalType":"string"},{"name":"tokenDecimals","type":"uint8","internalType":"uint8"},{"name":"tokenTotalSupply","type":"uint256","internalType":"uint256"},{"name":"maxSupply","type":"uint256","internalType":"uint256"},{"name":"currentPrice","type":"uint256","internalType":"uint256"}],"stateMutability":"view"},{"type":"function","name":"getUserTokenInfo","inputs":[{"name":"user","type":"address","internalType":"address"},{"name":"spender","type":"address","internalType":"address"}],"outputs":[{"name":"balance","type":"uint256","internalType":"uint256"},{"name":"allowanceAmount","type":"uint256","internalType":"uint256"}],"stateMutability":"view"},{"type":"function","name":"isMinter","inputs":[{"name":"_account","type":"address","internalType":"address"}],"outputs":[{"name":"","type":"bool","internalType":"bool"}],"stateMutability":"view"},{"type":"function","name":"mint","inputs":[{"name":"_to","type":"address","internalType":"address"},{"name":"_amount","type":"uint256","internalType":"uint256"}],"outputs":[],"stateMutability":"nonpayable"},{"type":"function","name":"minters","inputs":[{"name":"","type":"address","internalType":"address"}],"outputs":[{"name":"","type":"bool","internalType":"bool"}],"stateMutability":"view"},{"type":"function","name":"name","inputs":[],"outputs":[{"name":"","type":"string","internalType":"string"}],"stateMutability":"view"},{"type":"function","name":"owner","inputs":[],"outputs":[{"name":"","type":"address","internalType":"address"}],"stateMutability":"view"},{"type":"function","name":"renounceOwnership","inputs":[],"outputs":[],"stateMutability":"nonpayable"},{"type":"function","name":"setMinter","inputs":[{"name":"_minter","type":"address","internalType":"address"},{"name":"_isActive","type":"bool","internalType":"bool"}],"outputs":[],"stateMutability":"nonpayable"},{"type":"function","name":"symbol","inputs":[],"outputs":[{"name":"","type":"string","internalType":"string"}],"stateMutability":"view"},{"type":"function","name":"totalSupply","inputs":[],"outputs":[{"name":"","type":"uint256","internalType":"uint256"}],"stateMutability":"view"},{"type":"function","name":"transfer","inputs":[{"name":"to","type":"address","internalType":"address"},{"name":"value","type":"uint256","internalType":"uint256"}],"outputs":[{"name":"","type":"bool","internalType":"bool"}],"stateMutability":"nonpayable"},{"type":"function","name":"transferFrom","inputs":[{"name":"from","type":"address","internalType":"address"},{"name":"to","type":"address","internalType":"address"},{"name":"value","type":"uint256","internalType":"uint256"}],"outputs":[{"name":"","type":"bool","internalType":"bool"}],"stateMutability":"nonpayable"},{"type":"function","name":"transferOwnership","inputs":[{"name":"newOwner","type":"address","internalType":"address"}],"outputs":[],"stateMutability":"nonpayable"},{"type":"event","name":"Approval","inputs":[{"name":"owner","type":"address","indexed":true,"internalType":"address"},{"name":"spender","type":"address","indexed":true,"internalType":"address"},{"name":"value","type":"uint256","indexed":false,"internalType":"uint256"}],"anonymous":false},{"type":"event","name":"MinterSet","inputs":[{"name":"account","type":"address","indexed":true,"internalType":"address"},{"name":"isMinter","type":"bool","indexed":false,"internalType":"bool"}],"anonymous":false},{"type":"event","name":"OwnershipTransferred","inputs":[{"name":"previousOwner","type":"address","indexed":true,"internalType":"address"},{"name":"newOwner","type":"address","indexed":true,"internalType":"address"}],"anonymous":false},{"type":"event","name":"Transfer","inputs":[{"name":"from","type":"address","indexed":true,"internalType":"address"},{"name":"to","type":"address","indexed":true,"internalType":"address"},{"name":"value","type":"uint256","indexed":false,"internalType":"uint256"}],"anonymous":false},{"type":"error","name":"ERC20InsufficientAllowance","inputs":[{"name":"spender","type":"address","internalType":"address"},{"name":"allowance","type":"uint256","internalType":"uint256"},{"name":"needed","type":"uint256","internalType":"uint256"}]},{"type":"error","name":"ERC20InsufficientBalance","inputs":[{"name":"sender","type":"address","internalType":"address"},{"name":"balance","type":"uint256","internalType":"uint256"},{"name":"needed","type":"uint256","internalType":"uint256"}]},{"type":"error","name":"ERC20InvalidApprover","inputs":[{"name":"approver","type":"address","internalType":"address"}]},{"type":"error","name":"ERC20InvalidReceiver","inputs":[{"name":"receiver","type":"address","internalType":"address"}]},{"type":"error","name":"ERC20InvalidSender","inputs":[{"name":"sender","type":"address","internalType":"address"}]},{"type":"error","name":"ERC20InvalidSpender","inputs":[{"name":"spender","type":"address","internalType":"address"}]},{"type":"error","name":"OwnableInvalidOwner","inputs":[{"name":"owner","type":"address","internalType":"address"}]},{"type":"error","name":"OwnableUnauthorizedAccount","inputs":[{"name":"account","type":"address","internalType":"address"}]}],"bytecode":{"object":"0x608060405234610454576113246020813803918261001c81610458565b93849283398101031261045457516001600160a01b03811690819003610454576100466040610458565b90600782526611d95b481554d160ca1b60208301526100656040610458565b600481526319d554d160e21b602082015282519091906001600160401b03811161036557600354600181811c9116801561044a575b602082101461034757601f81116103e7575b506020601f821160011461038457819293945f92610379575b50508160011b915f199060031b1c1916176003555b81516001600160401b03811161036557600454600181811c9116801561035b575b602082101461034757601f81116102e4575b50602092601f821160011461028357928192935f92610278575b50508160011b915f199060031b1c1916176004555b801561026557600580546001600160a01b03198116831790915560405191906001600160a01b03167f8be0079c531659141344cd1fd0a4f28419497f9722a3daafe3b4186f6b6457e05f80a3335f52600660205260405f20600160ff19825416179055600181527f583b0aa0e528532caf4b907c11d7a8158a122fe2a6fb80cd9b09776ebea8d92d60203392a23315610252576002546509184e72a000810180911161023e57600255335f525f60205260405f206509184e72a00081540190556040516509184e72a00081525f7fddf252ad1be2c89b69c2b068fc378daa952ba7f163c4a11628f55a4df523b3ef60203393a3604051610ea6908161047e8239f35b634e487b7160e01b5f52601160045260245ffd5b63ec442f0560e01b5f525f60045260245ffd5b631e4fbdf760e01b5f525f60045260245ffd5b015190505f80610127565b601f1982169360045f52805f20915f5b8681106102cc57508360019596106102b4575b505050811b0160045561013c565b01515f1960f88460031b161c191690555f80806102a6565b91926020600181928685015181550194019201610293565b60045f527f8a35acfbc15ff81a39ae7d344fd709f28e8600b4aa8c65c6b64bfe7fe36bd19b601f830160051c8101916020841061033d575b601f0160051c01905b818110610332575061010d565b5f8155600101610325565b909150819061031c565b634e487b7160e01b5f52602260045260245ffd5b90607f16906100fb565b634e487b7160e01b5f52604160045260245ffd5b015190505f806100c5565b601f1982169060035f52805f20915f5b8181106103cf575095836001959697106103b7575b505050811b016003556100da565b01515f1960f88460031b161c191690555f80806103a9565b9192602060018192868b015181550194019201610394565b60035f527fc2575a0e9e593c00f959f8c92f12db2869c3395a3b0502d05e2516446f71f85b601f830160051c81019160208410610440575b601f0160051c01905b81811061043557506100ac565b5f8155600101610428565b909150819061041f565b90607f169061009a565b5f80fd5b6040519190601f01601f191682016001600160401b038111838210176103655760405256fe60806040526004361015610011575f80fd5b5f5f3560e01c806306fdde0314610c23578063095ea7b314610ba157806318160ddd14610b845780631f7dfc5a14610b3357806323b872dd14610a54578063313ce56714610a3957806332cb6b0c14610a1757806340c10f19146108a757806342966c681461080757806370a08231146107d0578063715018a6146107755780638da5cb5b1461074d57806395d89b411461065557806398d5fdca14610633578063a045442c146105c2578063a9059cbb14610590578063aa271e1a14610565578063abb1dc44146103ad578063cf456ae7146102e5578063dd62ed3e14610292578063de0c4d2e14610231578063e4b7fb73146101ec578063f2fde38b146101635763f46eccc414610122575f80fd5b346101605760203660031901126101605760209060ff906040906001600160a01b0361014c610c62565b168152600684522054166040519015158152f35b80fd5b50346101605760203660031901126101605761017d610c62565b610185610e49565b6001600160a01b031680156101d857600580546001600160a01b0319811683179091556001600160a01b03167f8be0079c531659141344cd1fd0a4f28419497f9722a3daafe3b4186f6b6457e05f80a380f35b631e4fbdf760e01b82526004829052602482fd5b503461016057806003193601126101605766038d7ea4c6800090600254820391821161021d57602082604051908152f35b634e487b7160e01b81526011600452602490fd5b50346101605760403660031901126101605760409061024e610c62565b82610257610c78565b6001600160a01b03928316808552602085815283862054918652600181529290942092165f9081529181529083902054835192835290820152f35b50346101605760403660031901126101605760406102ae610c62565b916102b7610c78565b9260018060a01b031681526001602052209060018060a01b03165f52602052602060405f2054604051908152f35b5034610160576040366003190112610160576102ff610c62565b602435908115158092036103a957610315610e49565b6001600160a01b031690811561036b5760207f583b0aa0e528532caf4b907c11d7a8158a122fe2a6fb80cd9b09776ebea8d92d91838552600682526040852060ff1981541660ff8316179055604051908152a280f35b60405162461bcd60e51b8152602060048201526016602482015275496e76616c6964206d696e746572206164647265737360501b6044820152606490fd5b8280fd5b50346101605780600319360112610160576103c6610cc4565b604051915f6004548060011c916001821691821561055b575b60208410831461054757838752869290811561052857506001146104c9575b61040a92500384610c8e565b6002549066038d7ea4c68000604051634c6afee560e11b8152602081600481305afa9283156104bd578093610480575b50506104656104579560405196879660c0885260c0880190610c3e565b908682036020880152610c3e565b92600660408601526060850152608084015260a08301520390f35b909592506020863d6020116104b5575b8161049d60209383610c8e565b8101031261016057506104656104579551929561043a565b3d9150610490565b604051903d90823e3d90fd5b5060045f90815290917f8a35acfbc15ff81a39ae7d344fd709f28e8600b4aa8c65c6b64bfe7fe36bd19b5b81831061050c57505090602061040a928201016103fe565b6020919350806001915483858a010152019101909185926104f4565b6020925061040a94915060ff191682840152151560051b8201016103fe565b634e487b7160e01b5f52602260045260245ffd5b92607f16926103df565b50346101605760203660031901126101605760209060ff906040906001600160a01b0361014c610c62565b5034610160576040366003190112610160576105b76105ad610c62565b6024359033610d9f565b602060405160018152f35b503461016057806003193601126101605760206040516105e28282610c8e565b8281525f36813760405192828493840190808552835180925280604086019401925b82811061061357505050500390f35b83516001600160a01b031685528695509381019392810192600101610604565b34610651575f366003190112610651576020620f4240604051908152f35b5f80fd5b34610651575f366003190112610651576040515f6004548060011c90600181168015610743575b6020831081146105475782855290811561071f57506001146106c1575b6106bd836106a981850382610c8e565b604051918291602083526020830190610c3e565b0390f35b60045f9081527f8a35acfbc15ff81a39ae7d344fd709f28e8600b4aa8c65c6b64bfe7fe36bd19b939250905b808210610705575090915081016020016106a9610699565b9192600181602092548385880101520191019092916106ed565b60ff191660208086019190915291151560051b840190910191506106a99050610699565b91607f169161067c565b34610651575f366003190112610651576005546040516001600160a01b039091168152602090f35b34610651575f3660031901126106515761078d610e49565b600580546001600160a01b031981169091555f906001600160a01b03167f8be0079c531659141344cd1fd0a4f28419497f9722a3daafe3b4186f6b6457e08280a3005b34610651576020366003190112610651576001600160a01b036107f1610c62565b165f525f602052602060405f2054604051908152f35b3461065157602036600319011261065157600435331561089457335f525f60205260405f205481811061087b5790805f923384528360205203604083205580600254036002556040519081527fddf252ad1be2c89b69c2b068fc378daa952ba7f163c4a11628f55a4df523b3ef60203392a3005b63391434e360e21b5f523360045260245260445260645ffd5b634b637e8f60e11b5f525f60045260245ffd5b34610651576040366003190112610651576108c0610c62565b60243590335f52600660205260ff60405f205416156109e3576001600160a01b03169081156109aa576108f581600254610d92565b66038d7ea4c6800010610965577fddf252ad1be2c89b69c2b068fc378daa952ba7f163c4a11628f55a4df523b3ef60205f9261093381600254610d92565b600255841584146109505780600254036002555b604051908152a3005b84845283825260408420818154019055610947565b60405162461bcd60e51b815260206004820152601760248201527f576f756c6420657863656564206d617820737570706c790000000000000000006044820152606490fd5b60405162461bcd60e51b8152602060048201526011602482015270125b9d985b1a59081c9958da5c1a595b9d607a1b6044820152606490fd5b60405162461bcd60e51b815260206004820152600c60248201526b2737ba10309036b4b73a32b960a11b6044820152606490fd5b34610651575f36600319011261065157602066038d7ea4c68000604051908152f35b34610651575f36600319011261065157602060405160068152f35b3461065157606036600319011261065157610a6d610c62565b610a75610c78565b6001600160a01b0382165f818152600160209081526040808320338452909152902054909260443592915f198110610ab3575b506105b79350610d9f565b838110610b18578415610b05573315610af2576105b7945f52600160205260405f2060018060a01b0333165f526020528360405f209103905584610aa8565b634a1406b160e11b5f525f60045260245ffd5b63e602df0560e01b5f525f60045260245ffd5b8390637dc7a0d960e11b5f523360045260245260445260645ffd5b34610651575f366003190112610651576002546127108102908082046127101490151715610b705766038d7ea4c680009060209160405191048152f35b634e487b7160e01b5f52601160045260245ffd5b34610651575f366003190112610651576020600254604051908152f35b3461065157604036600319011261065157610bba610c62565b602435903315610b05576001600160a01b0316908115610af257335f52600160205260405f20825f526020528060405f20556040519081527f8c5be1e5ebec7d5bd14f71427d1e84f3dd0314c0f7b2291e5b200ac8c7c3b92560203392a3602060405160018152f35b34610651575f366003190112610651576106bd6106a9610cc4565b805180835260209291819084018484015e5f828201840152601f01601f1916010190565b600435906001600160a01b038216820361065157565b602435906001600160a01b038216820361065157565b90601f8019910116810190811067ffffffffffffffff821117610cb057604052565b634e487b7160e01b5f52604160045260245ffd5b604051905f6003548060011c9160018216918215610d88575b602084108314610547578386528592908115610d695750600114610d0a575b610d0892500383610c8e565b565b5060035f90815290917fc2575a0e9e593c00f959f8c92f12db2869c3395a3b0502d05e2516446f71f85b5b818310610d4d575050906020610d0892820101610cfc565b6020919350806001915483858901015201910190918492610d35565b60209250610d0894915060ff191682840152151560051b820101610cfc565b92607f1692610cdd565b91908201809211610b7057565b6001600160a01b0316908115610894576001600160a01b0316918215610e3657815f525f60205260405f2054818110610e1d57817fddf252ad1be2c89b69c2b068fc378daa952ba7f163c4a11628f55a4df523b3ef92602092855f525f84520360405f2055845f525f825260405f20818154019055604051908152a3565b8263391434e360e21b5f5260045260245260445260645ffd5b63ec442f0560e01b5f525f60045260245ffd5b6005546001600160a01b03163303610e5d57565b63118cdaa760e01b5f523360045260245ffdfea2646970667358221220edd493f1e215c83e67064ac05343cf280c566fa5e77b8f001509ce0e9a696f1c64736f6c634300081c0033","linkReferences":{}},"methodIdentifiers":{"MAX_SUPPLY()":"32cb6b0c","allowance(address,address)":"dd62ed3e","approve(address,uint256)":"095ea7b3","balanceOf(address)":"70a08231","burn(uint256)":"42966c68","decimals()":"313ce567","getAllMinters()":"a045442c","getPrice()":"98d5fdca","getRemainingSupply()":"e4b7fb73","getSupplyUtilization()":"1f7dfc5a","getTokenInfo()":"abb1dc44","getUserTokenInfo(address,address)":"de0c4d2e","isMinter(address)":"aa271e1a","mint(address,uint256)":"40c10f19","minters(address)":"f46eccc4","name()":"06fdde03","owner()":"8da5cb5b","renounceOwnership()":"715018a6","setMinter(address,bool)":"cf456ae7","symbol()":"95d89b41","totalSupply()":"18160ddd","transfer(address,uint256)":"a9059cbb","transferFrom(address,address,uint256)":"23b872dd","transferOwnership(address)":"f2fde38b"},"id":54}