{"abi":[{"type":"constructor","inputs":[{"name":"_decimals","type":"uint8","internalType":"uint8"},{"name":"_description","type":"string","internalType":"string"},{"name":"_version","type":"uint256","internalType":"uint256"},{"name":"_initialPrice","type":"int256","internalType":"int256"}],"stateMutability":"nonpayable"},{"type":"function","name":"decimals","inputs":[],"outputs":[{"name":"","type":"uint8","internalType":"uint8"}],"stateMutability":"view"},{"type":"function","name":"description","inputs":[],"outputs":[{"name":"","type":"string","internalType":"string"}],"stateMutability":"view"},{"type":"function","name":"getHistoricalData","inputs":[{"name":"fromRound","type":"uint80","internalType":"uint80"},{"name":"toRound","type":"uint80","internalType":"uint80"}],"outputs":[{"name":"roundIds","type":"uint80[]","internalType":"uint80[]"},{"name":"prices","type":"int256[]","internalType":"int256[]"},{"name":"timestamps","type":"uint256[]","internalType":"uint256[]"}],"stateMutability":"view"},{"type":"function","name":"getPrice","inputs":[],"outputs":[{"name":"","type":"int256","internalType":"int256"}],"stateMutability":"view"},{"type":"function","name":"getPriceChangePercent","inputs":[],"outputs":[{"name":"changePercent","type":"int256","internalType":"int256"}],"stateMutability":"pure"},{"type":"function","name":"getPriceFeedInfo","inputs":[],"outputs":[{"name":"currentPrice","type":"int256","internalType":"int256"},{"name":"lastUpdated","type":"uint256","internalType":"uint256"},{"name":"roundId","type":"uint80","internalType":"uint80"},{"name":"feedDecimals","type":"uint8","internalType":"uint8"},{"name":"feedDescription","type":"string","internalType":"string"}],"stateMutability":"view"},{"type":"function","name":"getRoundData","inputs":[{"name":"roundId","type":"uint80","internalType":"uint80"}],"outputs":[{"name":"","type":"uint80","internalType":"uint80"},{"name":"answer","type":"int256","internalType":"int256"},{"name":"startedAt","type":"uint256","internalType":"uint256"},{"name":"updatedAt","type":"uint256","internalType":"uint256"},{"name":"answeredInRound","type":"uint80","internalType":"uint80"}],"stateMutability":"view"},{"type":"function","name":"getValidatedPrice","inputs":[],"outputs":[{"name":"price","type":"int256","internalType":"int256"},{"name":"isValid","type":"bool","internalType":"bool"},{"name":"lastUpdate","type":"uint256","internalType":"uint256"}],"stateMutability":"view"},{"type":"function","name":"isPriceStale","inputs":[{"name":"maxAge","type":"uint256","internalType":"uint256"}],"outputs":[{"name":"isStale","type":"bool","internalType":"bool"},{"name":"age","type":"uint256","internalType":"uint256"}],"stateMutability":"view"},{"type":"function","name":"latestRoundData","inputs":[],"outputs":[{"name":"roundId","type":"uint80","internalType":"uint80"},{"name":"answer","type":"int256","internalType":"int256"},{"name":"startedAt","type":"uint256","internalType":"uint256"},{"name":"updatedAt","type":"uint256","internalType":"uint256"},{"name":"answeredInRound","type":"uint80","internalType":"uint80"}],"stateMutability":"view"},{"type":"function","name":"updatePrice","inputs":[{"name":"newPrice","type":"int256","internalType":"int256"}],"outputs":[],"stateMutability":"nonpayable"},{"type":"function","name":"version","inputs":[],"outputs":[{"name":"","type":"uint256","internalType":"uint256"}],"stateMutability":"view"}],"bytecode":{"object":"0x60806040523461023d57610a038038038061001981610241565b92833981019060808183031261023d5780519060ff821680920361023d5760208101516001600160401b03811161023d57810183601f8201121561023d578051906001600160401b0382116102295761007b601f8301601f1916602001610241565b948286526020838301011161023d57815f9260208093018388015e85010152606060408201519101519160ff195f5416175f55825160018060401b03811161022957600154600181811c9116801561021f575b602082101461020b57601f81116101a8575b506020601f821160011461014557819293945f9261013a575b50508160011b915f199060031b1c1916176001555b600255600355600480546001600160501b03191660011790554260055560405161079c90816102678239f35b015190505f806100f9565b601f1982169060015f52805f20915f5b81811061019057509583600195969710610178575b505050811b0160015561010e565b01515f1960f88460031b161c191690555f808061016a565b9192602060018192868b015181550194019201610155565b60015f527fb10e2d527612073b26eecdfd717e6a320cf44b4afac2b0732d9fcbe2b7fa0cf6601f830160051c81019160208410610201575b601f0160051c01905b8181106101f657506100e0565b5f81556001016101e9565b90915081906101e0565b634e487b7160e01b5f52602260045260245ffd5b90607f16906100ce565b634e487b7160e01b5f52604160045260245ffd5b5f80fd5b6040519190601f01601f191682016001600160401b038111838210176102295760405256fe6080806040526004361015610012575f80fd5b5f3560e01c90816319c40775146105af57508063313ce5671461059057806354fd4d50146105735780637284e4161461054457806398d5fdca146105275780639a6fc8f5146104d9578063a76752b81461047d578063c127f85f14610444578063c99a96281461018a578063d4c19bda14610120578063db4e3ec8146100f05763feaf968c146100a0575f80fd5b346100ec575f3660031901126100ec57600454600354600554604080516001600160501b0390941680855260208501939093528301819052606083015260808201528060a081015b0390f35b5f80fd5b346100ec5760203660031901126100ec57604061010f60055442610719565b815190600435811182526020820152f35b346100ec5760203660031901126100ec576004356003556004546001600160501b0381166001600160501b0381146101765760016001600160501b03910116906001600160501b03191617600455426005555f80f35b634e487b7160e01b5f52601160045260245ffd5b346100ec5760403660031901126100ec576101a3610703565b602435906001600160501b0382168092036100ec576001600160501b03169080821161040f576001600160501b036004541681116103d1578190036001600160501b038111610176576001600160501b0360019116016001600160501b038111610176576001600160501b031661021981610726565b9061022760405192836105c7565b80825261023381610726565b6020830190601f190136823761024882610726565b9361025660405195866105c7565b82855261026283610726565b602086019290601f190136843761027884610726565b9161028660405193846105c7565b84835261029285610726565b602084019590601f19013687375f60035492600554915b83811061036f575050505050604051958695606087019060608852518091526080870192905f5b81811061034d575050506020908683038288015251918281520192905f5b81811061033457505050602090848303604086015251918281520191905f5b81811061031b575050500390f35b825184528594506020938401939092019160010161030d565b82518552879650602094850194909201916001016102ee565b82516001600160501b03168552899850602094850194909201916001016102d0565b5f9a95969798999a506001600160501b0381168201906001600160501b038211610176576001916001600160501b036103a8838f61073e565b91169052856103b7828961073e565b52836103c3828b61073e565b5201999897969594996102a9565b60405162461bcd60e51b8152602060048201526016602482015275119d5d1d5c99481c9bdd5b99081c995c5d595cdd195960521b6044820152606490fd5b60405162461bcd60e51b815260206004820152600d60248201526c496e76616c69642072616e676560981b6044820152606490fd5b346100ec575f3660031901126100ec576060600354600554610e106104698242610719565b111560405192835260208301526040820152f35b346100ec575f3660031901126100ec57600354600554906100e86001600160501b036004541660ff5f54166104b06105fd565b91604051958695865260208601526040850152606084015260a0608084015260a08301906106df565b346100ec5760203660031901126100ec576104f2610703565b600354600554604080516001600160501b0394909416808552602085019390935283018190526060830152608082015260a090f35b346100ec575f3660031901126100ec576020600354604051908152f35b346100ec575f3660031901126100ec576100e861055f6105fd565b6040519182916020835260208301906106df565b346100ec575f3660031901126100ec576020600254604051908152f35b346100ec575f3660031901126100ec57602060ff5f5416604051908152f35b346100ec575f3660031901126100ec57805f60209252f35b90601f8019910116810190811067ffffffffffffffff8211176105e957604052565b634e487b7160e01b5f52604160045260245ffd5b604051905f6001548060011c91600182169182156106d5575b6020841083146106c15783865285929081156106a25750600114610643575b610641925003836105c7565b565b5060015f90815290917fb10e2d527612073b26eecdfd717e6a320cf44b4afac2b0732d9fcbe2b7fa0cf65b81831061068657505090602061064192820101610635565b602091935080600191548385890101520191019091849261066e565b6020925061064194915060ff191682840152151560051b820101610635565b634e487b7160e01b5f52602260045260245ffd5b92607f1692610616565b805180835260209291819084018484015e5f828201840152601f01601f1916010190565b600435906001600160501b03821682036100ec57565b9190820391821161017657565b67ffffffffffffffff81116105e95760051b60200190565b80518210156107525760209160051b010190565b634e487b7160e01b5f52603260045260245ffdfea2646970667358221220d4152b2ce8ef4433de8a67b38e5d38a5b45f0af41dec23599010e4e9fa82800364736f6c634300081c0033","linkReferences":{}},"methodIdentifiers":{"decimals()":"313ce567","description()":"7284e416","getHistoricalData(uint80,uint80)":"c99a9628","getPrice()":"98d5fdca","getPriceChangePercent()":"19c40775","getPriceFeedInfo()":"a76752b8","getRoundData(uint80)":"9a6fc8f5","getValidatedPrice()":"c127f85f","isPriceStale(uint256)":"db4e3ec8","latestRoundData()":"feaf968c","updatePrice(int256)":"d4c19bda","version()":"54fd4d50"},"id":55}